{"abi":[{"type":"constructor","inputs":[],"stateMutability":"nonpayable"},{"type":"function","name":"approveAgreement","inputs":[{"name":"agreementId_","type":"uint256","internalType":"uint256"},{"name":"caller_","type":"address","internalType":"address"}],"outputs":[],"stateMutability":"nonpayable"},{"type":"function","name":"createAgreement","inputs":[{"name":"listingId_","type":"uint256","internalType":"uint256"},{"name":"buyer_","type":"address","internalType":"address"},{"name":"seller_","type":"address","internalType":"address"},{"name":"transferFee_","type":"uint256","internalType":"uint256"},{"name":"signingBonus_","type":"uint256","internalType":"uint256"},{"name":"sellOnPercentage_","type":"uint256","internalType":"uint256"},{"name":"releaseClause_","type":"uint256","internalType":"uint256"},{"name":"installmentAmount_","type":"uint256","internalType":"uint256"},{"name":"appearanceBonus_","type":"uint256","internalType":"uint256"},{"name":"goalBonus_","type":"uint256","internalType":"uint256"},{"name":"metadataURI_","type":"string","internalType":"string"}],"outputs":[],"stateMutability":"nonpayable"},{"type":"function","name":"getAgreement","inputs":[{"name":"agreementId_","type":"uint256","internalType":"uint256"}],"outputs":[{"name":"","type":"tuple","internalType":"struct TransferAgreementManager.Agreement","components":[{"name":"id","type":"uint256","internalType":"uint256"},{"name":"listingId","type":"uint256","internalType":"uint256"},{"name":"buyer","type":"address","internalType":"address"},{"name":"seller","type":"address","internalType":"address"},{"name":"status","type":"uint8","internalType":"enum TransferAgreementManager.AgreementStatus"},{"name":"clauses","type":"tuple","internalType":"struct TransferAgreementManager.ClauseSet","components":[{"name":"transferFee","type":"uint256","internalType":"uint256"},{"name":"signingBonus","type":"uint256","internalType":"uint256"},{"name":"sellOnPercentage","type":"uint256","internalType":"uint256"},{"name":"releaseClause","type":"uint256","internalType":"uint256"},{"name":"installmentAmount","type":"uint256","internalType":"uint256"},{"name":"appearanceBonus","type":"uint256","internalType":"uint256"},{"name":"goalBonus","type":"uint256","internalType":"uint256"},{"name":"medicalApprovalRequired","type":"bool","internalType":"bool"},{"name":"negotiationDeadline","type":"uint256","internalType":"uint256"},{"name":"agreementExpiration","type":"uint256","internalType":"uint256"},{"name":"metadataURI","type":"string","internalType":"string"}]},{"name":"buyerSigned","type":"bool","internalType":"bool"},{"name":"sellerSigned","type":"bool","internalType":"bool"},{"name":"createdAt","type":"uint256","internalType":"uint256"}]}],"stateMutability":"view"},{"type":"function","name":"nextAgreementId","inputs":[],"outputs":[{"name":"","type":"uint256","internalType":"uint256"}],"stateMutability":"view"},{"type":"function","name":"rejectAgreement","inputs":[{"name":"agreementId_","type":"uint256","internalType":"uint256"},{"name":"caller_","type":"address","internalType":"address"}],"outputs":[],"stateMutability":"nonpayable"},{"type":"event","name":"AgreementApproved","inputs":[{"name":"agreementId","type":"uint256","indexed":true,"internalType":"uint256"}],"anonymous":false},{"type":"event","name":"AgreementCreated","inputs":[{"name":"agreementId","type":"uint256","indexed":true,"internalType":"uint256"},{"name":"listingId","type":"uint256","indexed":true,"internalType":"uint256"},{"name":"buyer","type":"address","indexed":true,"internalType":"address"}],"anonymous":false},{"type":"event","name":"AgreementRejected","inputs":[{"name":"agreementId","type":"uint256","indexed":true,"internalType":"uint256"}],"anonymous":false},{"type":"event","name":"AgreementSigned","inputs":[{"name":"agreementId","type":"uint256","indexed":true,"internalType":"uint256"}],"anonymous":false},{"type":"error","name":"AgreementNotFound","inputs":[]},{"type":"error","name":"InvalidAddress","inputs":[]},{"type":"error","name":"InvalidMetadataURI","inputs":[]},{"type":"error","name":"Unauthorized","inputs":[]}],"bytecode":{"object":"0x608060405234602257600e609b565b60146026565b6118226100ad823961182290f35b602c565b60405190565b5f80fd5b90565b90565b90565b60486044604c926030565b6036565b6033565b90565b5f1b90565b90605e5f1991604f565b9181191691161790565b60776073607b926033565b6036565b6033565b90565b90565b906091608d6097926068565b607e565b82546054565b9055565b60aa60a560016039565b5f6081565b56fe60806040526004361015610013575b61062b565b61001d5f3561006c565b80631f62c442146100675780633223ba36146100625780634f9f6fe61461005d5780639528be5b146100585763c9b99dab0361000e576105f6565b610556565b610521565b61025d565b610116565b60e01c90565b60405190565b5f80fd5b5f80fd5b5f80fd5b90565b61009081610084565b0361009757565b5f80fd5b905035906100a882610087565b565b60018060a01b031690565b6100be906100aa565b90565b6100ca816100b5565b036100d157565b5f80fd5b905035906100e2826100c1565b565b919060408382031261010c5780610100610109925f860161009b565b936020016100d5565b90565b61007c565b5f0190565b346101455761012f6101293660046100e4565b906106cd565b610137610072565b8061014181610111565b0390f35b610078565b5f80fd5b5f80fd5b5f80fd5b909182601f830112156101905781359167ffffffffffffffff831161018b57602001926001830284011161018657565b610152565b61014e565b61014a565b91909161016081840312610258576101af835f830161009b565b926101bd81602084016100d5565b926101cb82604085016100d5565b926101d9836060830161009b565b926101e7816080840161009b565b926101f58260a0850161009b565b926102038360c0830161009b565b926102118160e0840161009b565b9261022082610100850161009b565b9261022f83610120830161009b565b9261014082013567ffffffffffffffff81116102535761024f9201610156565b9091565b610080565b61007c565b3461029b57610285610270366004610195565b9a999099989198979297969396959495610f5c565b61028d610072565b8061029781610111565b0390f35b610078565b906020828203126102b9576102b6915f0161009b565b90565b61007c565b6102c790610084565b9052565b6102d4906100b5565b9052565b634e487b7160e01b5f52602160045260245ffd5b600511156102f657565b6102d8565b90610305826102ec565b565b610310906102fb565b90565b61031c90610307565b9052565b151590565b61032e90610320565b9052565b5190565b60209181520190565b90825f9392825e0152565b601f801991011690565b61037361037c6020936103819361036a81610332565b93848093610336565b9586910161033f565b61034a565b0190565b610459916101406101608201926103a25f8201515f8501906102be565b6103b4602082015160208501906102be565b6103c6604082015160408501906102be565b6103d8606082015160608501906102be565b6103ea608082015160808501906102be565b6103fc60a082015160a08501906102be565b61040e60c082015160c08501906102be565b61042060e082015160e0850190610325565b6104346101008201516101008501906102be565b6104486101208201516101208501906102be565b015190610140818403910152610354565b90565b9061050690610100806104d7610120840161047d5f8801515f8701906102be565b61048f602088015160208701906102be565b6104a1604088015160408701906102cb565b6104b3606088015160608701906102cb565b6104c560808801516080870190610313565b60a087015185820360a0870152610385565b946104ea60c082015160c0860190610325565b6104fc60e082015160e0860190610325565b01519101906102be565b90565b61051e9160208201915f81840391015261045c565b90565b346105515761054d61053c6105373660046102a0565b6116bc565b610544610072565b91829182610509565b0390f35b610078565b346105855761056f6105693660046100e4565b906116db565b610577610072565b8061058181610111565b0390f35b610078565b5f91031261059457565b61007c565b1c90565b90565b6105b09060086105b59302610599565b61059d565b90565b906105c391546105a0565b90565b6105d15f5f906105b8565b90565b6105dd90610084565b9052565b91906105f4905f602085019401906105d4565b565b346106265761060636600461058a565b6106226106116105c6565b610619610072565b918291826105e1565b0390f35b610078565b5f80fd5b5f1c90565b60018060a01b031690565b61064b6106509161062f565b610634565b90565b61065d905461063f565b90565b60a01b90565b9061067560ff60a01b91610660565b9181191691161790565b610688906102fb565b90565b90565b906106a361069e6106aa9261067f565b61068b565b8254610666565b9055565b90565b6106c56106c06106ca92610084565b6106ae565b610084565b90565b906106d782611778565b906106f66106f06106ea60028501610653565b926100b5565b916100b5565b0361074c5761070a9060036002910161068e565b6107347f992557b8f4cb6f777e4417e711bbdef7078134e0b2113e4d9945aed8cee28124916106b1565b9061073d610072565b8061074781610111565b0390a2565b5f6282b42960e81b81528061076360048201610111565b0390fd5b90565b61077e61077961078392610767565b6106ae565b6100aa565b90565b61078f9061076a565b90565b91565b5090565b6107ad6107a86107b292610767565b6106ae565b610084565b90565b6107c16107c69161062f565b61059d565b90565b6107d390546107b5565b90565b90565b6107ed6107e86107f2926107d6565b6106ae565b610084565b90565b634e487b7160e01b5f52601160045260245ffd5b61081861081e91939293610084565b92610084565b820180921161082957565b6107f5565b5f1b90565b9061083f5f199161082e565b9181191691161790565b90565b9061086161085c610868926106b1565b610849565b8254610833565b9055565b90565b61088361087e6108889261086c565b6106ae565b610084565b90565b90565b6108a261089d6108a79261088b565b6106ae565b610084565b90565b634e487b7160e01b5f52604160045260245ffd5b906108c89061034a565b810190811067ffffffffffffffff8211176108e257604052565b6108aa565b906108fa6108f3610072565b92836108be565b565b6109076101606108e7565b90565b9061091490610084565b9052565b9061092290610320565b9052565b5f80fd5b67ffffffffffffffff81116109485761094460209161034a565b0190565b6108aa565b90825f939282370152565b9092919261096d6109688261092a565b6108e7565b93818552602085019082840111610989576109879261094d565b565b610926565b610999913691610958565b90565b52565b6109aa6101206108e7565b90565b906109b7906100b5565b9052565b906109c5906102fb565b9052565b52565b906109d6906106b1565b5f5260205260405f2090565b6109ec9051610084565b90565b6109f990516100b5565b90565b90610a0d60018060a01b039161082e565b9181191691161790565b610a2b610a26610a30926100aa565b6106ae565b6100aa565b90565b610a3c90610a17565b90565b610a4890610a33565b90565b90565b90610a63610a5e610a6a92610a3f565b610a4b565b82546109fc565b9055565b610a7890516102fb565b90565b5190565b610a899051610320565b90565b90610a9860ff9161082e565b9181191691161790565b610aab90610320565b90565b90565b90610ac6610ac1610acd92610aa2565b610aae565b8254610a8c565b9055565b5190565b634e487b7160e01b5f52602260045260245ffd5b9060016002830492168015610b09575b6020831014610b0457565b610ad5565b91607f1691610af9565b5f5260205f2090565b601f602091010490565b1b90565b91906008610b45910291610b3f5f1984610b26565b92610b26565b9181191691161790565b9190610b65610b60610b6d936106b1565b610849565b908354610b2a565b9055565b5f90565b610b8791610b81610b71565b91610b4f565b565b5f5b828110610b9757505050565b80610ba65f6001938501610b75565b01610b8b565b9190601f8111610bbc575b505050565b818111610bc9575b610bb7565b610bde610bd8610bfc94610b13565b91610b1c565b916020610bea82610b1c565b9110610c04575b809101910390610b89565b5f8080610bc4565b505f610bf1565b90610c1b905f1990600802610599565b191690565b81610c2a91610c0b565b906002021790565b90610c3c81610332565b9067ffffffffffffffff8211610cfc57610c6082610c5a8554610ae9565b85610bac565b602090601f8311600114610c9457918091610c83935f92610c88575b5050610c20565b90555b565b90915001515f80610c7c565b601f19831691610ca385610b13565b925f5b818110610ce457509160029391856001969410610cca575b50505002019055610c86565b610cda910151601f841690610c0b565b90555f8080610cbe565b91936020600181928787015181550195019201610ca6565b6108aa565b90610d0b91610c32565b565b90610e1c610140600a610e2294610d315f8201610d2b5f88016109e2565b9061084c565b610d4a60018201610d44602088016109e2565b9061084c565b610d6360028201610d5d604088016109e2565b9061084c565b610d7c60038201610d76606088016109e2565b9061084c565b610d9560048201610d8f608088016109e2565b9061084c565b610dae60058201610da860a088016109e2565b9061084c565b610dc760068201610dc160c088016109e2565b9061084c565b610de060078201610dda60e08801610a7f565b90610ab1565b610dfa60088201610df461010088016109e2565b9061084c565b610e1460098201610e0e61012088016109e2565b9061084c565b019201610ad1565b90610d01565b565b90610e2e91610d0d565b565b60081b90565b90610e4361ff0091610e30565b9181191691161790565b90610e62610e5d610e6992610aa2565b610aae565b8254610e36565b9055565b90610f486101006010610f4e94610e915f8201610e8b5f88016109e2565b9061084c565b610eaa60018201610ea4602088016109e2565b9061084c565b610ec360028201610ebd604088016109ef565b90610a4e565b610edc60038201610ed6606088016109ef565b90610a4e565b610ef560038201610eef60808801610a6e565b9061068e565b610f0e60048201610f0860a08801610a7b565b90610e24565b610f27600f8201610f2160c08801610a7f565b90610ab1565b610f40600f8201610f3a60e08801610a7f565b90610e4d565b0192016109e2565b9061084c565b565b90610f5a91610e6d565b565b9a9195989490999796978a610f81610f7b610f765f610786565b6100b5565b916100b5565b14801561120f575b6111f357610fa1610f9b828590610792565b90610795565b610fb3610fad5f610799565b91610084565b146111d757610fc15f6107c9565b996001610fcd906107d9565b610fd65f6107c9565b90610fe091610809565b610fea905f61084c565b8a998d998d99985f97989593929190915f93426201518061100a9061086f565b61101391610809565b954262093a806110229061088e565b61102b91610809565b9799986110366108fc565b9c5f8e01906110449161090a565b60208d01906110529161090a565b60408c01906110609161090a565b60608b019061106e9161090a565b60808a019061107c9161090a565b60a089019061108a9161090a565b60c08801906110989161090a565b60e08701906110a691610918565b6101008601906110b59161090a565b6101208501906110c49161090a565b6110cd9161098e565b6101408301906110dc9161099c565b5f925f9442966110ea61099f565b985f8a01906110f89161090a565b60208901906111069161090a565b6040880190611114916109ad565b6060870190611122916109ad565b6080860190611130916109bb565b60a085019061113e916109c9565b60c084019061114c91610918565b60e083019061115a91610918565b6101008201906111699161090a565b600182611175916109cc565b9061117f91610f50565b917f46c3e8f018031b9c1b506ac0eb4c174c259e41ce714d4aa5f95a5bd642c6895c926111ab906106b1565b906111b5906106b1565b916111bf90610a3f565b926111c8610072565b806111d281610111565b0390a4565b5f630eec403f60e41b8152806111ef60048201610111565b0390fd5b5f63e6c4247b60e01b81528061120b60048201610111565b0390fd5b508661122b6112256112205f610786565b6100b5565b916100b5565b14610f89565b61123c6101206108e7565b90565b5f90565b5f90565b5f90565b6112566101606108e7565b90565b5f90565b606090565b61126a61124b565b906020808080808080808080808c61128061123f565b81520161128b61123f565b81520161129661123f565b8152016112a161123f565b8152016112ac61123f565b8152016112b761123f565b8152016112c261123f565b8152016112cd611259565b8152016112d861123f565b8152016112e361123f565b8152016112ee61125d565b81525050565b6112fc611262565b90565b611307611231565b90602080808080808080808a61131b61123f565b81520161132661123f565b815201611331611243565b81520161133c611243565b815201611347611247565b8152016113526112f4565b81520161135d611259565b815201611368611259565b81520161137361123f565b81525050565b6113816112ff565b90565b60a01c90565b60ff1690565b61139c6113a191611384565b61138a565b90565b6113ae9054611390565b90565b60ff1690565b6113c36113c89161062f565b6113b1565b90565b6113d590546113b7565b90565b905f92918054906113f26113eb83610ae9565b8094610336565b916001811690815f14611449575060011461140d575b505050565b61141a9192939450610b13565b915f925b81841061143157505001905f8080611408565b6001816020929593955484860152019101929061141e565b92949550505060ff19168252151560200201905f8080611408565b9061146e916113d8565b90565b9061149161148a92611481610072565b93848092611464565b03836108be565b565b906115a561159b600a6114a461124b565b946114bb6114b35f83016107c9565b5f880161090a565b6114d36114ca600183016107c9565b6020880161090a565b6114eb6114e2600283016107c9565b6040880161090a565b6115036114fa600383016107c9565b6060880161090a565b61151b611512600483016107c9565b6080880161090a565b61153361152a600583016107c9565b60a0880161090a565b61154b611542600683016107c9565b60c0880161090a565b61156361155a600783016113cb565b60e08801610918565b61157c611572600883016107c9565b610100880161090a565b61159561158b600983016107c9565b610120880161090a565b01611471565b610140840161099c565b565b60081c90565b6115b96115be916115a7565b6113b1565b90565b6115cb90546115ad565b90565b906116ae6116a460106115df611231565b946115f66115ee5f83016107c9565b5f880161090a565b61160e611605600183016107c9565b6020880161090a565b61162661161d60028301610653565b604088016109ad565b61163e61163560038301610653565b606088016109ad565b61165661164d600383016113a4565b608088016109bb565b61166e61166560048301611493565b60a088016109c9565b61168661167d600f83016113cb565b60c08801610918565b61169e611695600f83016115c1565b60e08801610918565b016107c9565b610100840161090a565b565b6116b9906115ce565b90565b6116d36116d8916116cb611379565b5060016109cc565b6116b0565b90565b906116e582611778565b906117046116fe6116f860028501610653565b926100b5565b916100b5565b0361175a576117189060036001910161068e565b6117427ff7e6ad7e5e2c48eef8b9eda56ab39e904d8d223e24e4d3b0214018d8093b98ec916106b1565b9061174b610072565b8061175581610111565b0390a2565b5f6282b42960e81b81528061177160048201610111565b0390fd5b90565b8061178b6117855f610799565b91610084565b1480156117c9575b6117ad576117a56117aa9160016109cc565b611775565b90565b5f639cc59cb960e01b8152806117c560048201610111565b0390fd5b50806117e56117df6117da5f6107c9565b610084565b91610084565b101561179356fea26469706673582212206f2e1f11153a95c1e3d9b4095f6f1c0944116fe761f2ba9c5d61f29428e8984864736f6c63430008210033","linkReferences":{}},"methodIdentifiers":{"approveAgreement(uint256,address)":"9528be5b","createAgreement(uint256,address,address,uint256,uint256,uint256,uint256,uint256,uint256,uint256,string)":"3223ba36","getAgreement(uint256)":"4f9f6fe6","nextAgreementId()":"c9b99dab","rejectAgreement(uint256,address)":"1f62c442"},"id":19}