{"abi":[{"type":"constructor","inputs":[],"stateMutability":"nonpayable"},{"type":"function","name":"approveAgreement","inputs":[{"name":"agreementId_","type":"uint256","internalType":"uint256"}],"outputs":[],"stateMutability":"nonpayable"},{"type":"function","name":"createAgreement","inputs":[{"name":"listingId_","type":"uint256","internalType":"uint256"},{"name":"buyer_","type":"address","internalType":"address"},{"name":"seller_","type":"address","internalType":"address"},{"name":"transferFee_","type":"uint256","internalType":"uint256"},{"name":"signingBonus_","type":"uint256","internalType":"uint256"},{"name":"sellOnPercentage_","type":"uint256","internalType":"uint256"},{"name":"releaseClause_","type":"uint256","internalType":"uint256"},{"name":"installmentAmount_","type":"uint256","internalType":"uint256"},{"name":"appearanceBonus_","type":"uint256","internalType":"uint256"},{"name":"goalBonus_","type":"uint256","internalType":"uint256"},{"name":"metadataUri_","type":"string","internalType":"string"}],"outputs":[],"stateMutability":"nonpayable"},{"type":"function","name":"getAgreement","inputs":[{"name":"agreementId_","type":"uint256","internalType":"uint256"}],"outputs":[{"name":"","type":"tuple","internalType":"struct TransferAgreementManager.Agreement","components":[{"name":"id","type":"uint256","internalType":"uint256"},{"name":"listingId","type":"uint256","internalType":"uint256"},{"name":"buyer","type":"address","internalType":"address"},{"name":"seller","type":"address","internalType":"address"},{"name":"status","type":"uint8","internalType":"enum TransferAgreementManager.AgreementStatus"},{"name":"clauses","type":"tuple","internalType":"struct TransferAgreementManager.ClauseSet","components":[{"name":"transferFee","type":"uint256","internalType":"uint256"},{"name":"signingBonus","type":"uint256","internalType":"uint256"},{"name":"sellOnPercentage","type":"uint256","internalType":"uint256"},{"name":"releaseClause","type":"uint256","internalType":"uint256"},{"name":"installmentAmount","type":"uint256","internalType":"uint256"},{"name":"appearanceBonus","type":"uint256","internalType":"uint256"},{"name":"goalBonus","type":"uint256","internalType":"uint256"},{"name":"medicalApprovalRequired","type":"bool","internalType":"bool"},{"name":"negotiationDeadline","type":"uint256","internalType":"uint256"},{"name":"agreementExpiration","type":"uint256","internalType":"uint256"},{"name":"metadataURI","type":"string","internalType":"string"}]},{"name":"buyerSigned","type":"bool","internalType":"bool"},{"name":"sellerSigned","type":"bool","internalType":"bool"},{"name":"createdAt","type":"uint256","internalType":"uint256"}]}],"stateMutability":"view"},{"type":"function","name":"nextAgreementId","inputs":[],"outputs":[{"name":"","type":"uint256","internalType":"uint256"}],"stateMutability":"view"},{"type":"function","name":"rejectAgreement","inputs":[{"name":"agreementId_","type":"uint256","internalType":"uint256"}],"outputs":[],"stateMutability":"nonpayable"},{"type":"event","name":"AgreementApproved","inputs":[{"name":"agreementId","type":"uint256","indexed":true,"internalType":"uint256"}],"anonymous":false},{"type":"event","name":"AgreementCreated","inputs":[{"name":"agreementId","type":"uint256","indexed":true,"internalType":"uint256"},{"name":"listingId","type":"uint256","indexed":true,"internalType":"uint256"},{"name":"buyer","type":"address","indexed":true,"internalType":"address"}],"anonymous":false},{"type":"event","name":"AgreementRejected","inputs":[{"name":"agreementId","type":"uint256","indexed":true,"internalType":"uint256"}],"anonymous":false},{"type":"event","name":"AgreementSigned","inputs":[{"name":"agreementId","type":"uint256","indexed":true,"internalType":"uint256"}],"anonymous":false},{"type":"error","name":"AgreementNotFound","inputs":[]},{"type":"error","name":"InvalidAddress","inputs":[]},{"type":"error","name":"InvalidMetadataURI","inputs":[]},{"type":"error","name":"Unauthorized","inputs":[]}],"bytecode":{"object":"0x608060405234602257600e609b565b60146026565b6118226100ad823961182290f35b602c565b60405190565b5f80fd5b90565b90565b90565b60486044604c926030565b6036565b6033565b90565b5f1b90565b90605e5f1991604f565b9181191691161790565b60776073607b926033565b6036565b6033565b90565b90565b906091608d6097926068565b607e565b82546054565b9055565b60aa60a560016039565b5f6081565b56fe60806040526004361015610013575b6105fc565b61001d5f3561006c565b80633223ba3614610067578063457c8816146100625780634f9f6fe61461005d578063b132d78b146100585763c9b99dab0361000e576105c7565b610528565b6104f3565b61025d565b6101fc565b60e01c90565b60405190565b5f80fd5b5f80fd5b5f80fd5b90565b61009081610084565b0361009757565b5f80fd5b905035906100a882610087565b565b60018060a01b031690565b6100be906100aa565b90565b6100ca816100b5565b036100d157565b5f80fd5b905035906100e2826100c1565b565b5f80fd5b5f80fd5b5f80fd5b909182601f8301121561012a5781359167ffffffffffffffff831161012557602001926001830284011161012057565b6100ec565b6100e8565b6100e4565b919091610160818403126101f257610149835f830161009b565b9261015781602084016100d5565b9261016582604085016100d5565b92610173836060830161009b565b92610181816080840161009b565b9261018f8260a0850161009b565b9261019d8360c0830161009b565b926101ab8160e0840161009b565b926101ba82610100850161009b565b926101c983610120830161009b565b9261014082013567ffffffffffffffff81116101ed576101e992016100f0565b9091565b610080565b61007c565b5f0190565b3461023a5761022461020f36600461012f565b9a999099989198979297969396959495610e67565b61022c610072565b80610236816101f7565b0390f35b610078565b9060208282031261025857610255915f0161009b565b90565b61007c565b3461028b5761027561027036600461023f565b61119b565b61027d610072565b80610287816101f7565b0390f35b610078565b61029990610084565b9052565b6102a6906100b5565b9052565b634e487b7160e01b5f52602160045260245ffd5b600511156102c857565b6102aa565b906102d7826102be565b565b6102e2906102cd565b90565b6102ee906102d9565b9052565b151590565b610300906102f2565b9052565b5190565b60209181520190565b90825f9392825e0152565b601f801991011690565b61034561034e6020936103539361033c81610304565b93848093610308565b95869101610311565b61031c565b0190565b61042b916101406101608201926103745f8201515f850190610290565b61038660208201516020850190610290565b61039860408201516040850190610290565b6103aa60608201516060850190610290565b6103bc60808201516080850190610290565b6103ce60a082015160a0850190610290565b6103e060c082015160c0850190610290565b6103f260e082015160e08501906102f7565b610406610100820151610100850190610290565b61041a610120820151610120850190610290565b015190610140818403910152610326565b90565b906104d890610100806104a9610120840161044f5f8801515f870190610290565b61046160208801516020870190610290565b6104736040880151604087019061029d565b6104856060880151606087019061029d565b610497608088015160808701906102e5565b60a087015185820360a0870152610357565b946104bc60c082015160c08601906102f7565b6104ce60e082015160e08601906102f7565b0151910190610290565b90565b6104f09160208201915f81840391015261042e565b90565b346105235761051f61050e61050936600461023f565b6116be565b610516610072565b918291826104db565b0390f35b610078565b346105565761054061053b36600461023f565b6116dd565b610548610072565b80610552816101f7565b0390f35b610078565b5f91031261056557565b61007c565b1c90565b90565b610581906008610586930261056a565b61056e565b90565b906105949154610571565b90565b6105a25f5f90610589565b90565b6105ae90610084565b9052565b91906105c5905f602085019401906105a5565b565b346105f7576105d736600461055b565b6105f36105e2610597565b6105ea610072565b918291826105b2565b0390f35b610078565b5f80fd5b90565b90565b61061a61061561061f92610600565b610603565b6100aa565b90565b61062b90610606565b90565b91565b5090565b61064961064461064e92610600565b610603565b610084565b90565b5f1c90565b61066261066791610651565b61056e565b90565b6106749054610656565b90565b90565b61068e61068961069392610677565b610603565b610084565b90565b634e487b7160e01b5f52601160045260245ffd5b6106b96106bf91939293610084565b92610084565b82018092116106ca57565b610696565b5f1b90565b906106e05f19916106cf565b9181191691161790565b6106fe6106f961070392610084565b610603565b610084565b90565b90565b9061071e610719610725926106ea565b610706565b82546106d4565b9055565b90565b61074061073b61074592610729565b610603565b610084565b90565b90565b61075f61075a61076492610748565b610603565b610084565b90565b634e487b7160e01b5f52604160045260245ffd5b906107859061031c565b810190811067ffffffffffffffff82111761079f57604052565b610767565b906107b76107b0610072565b928361077b565b565b6107c46101606107a4565b90565b906107d190610084565b9052565b906107df906102f2565b9052565b5f80fd5b67ffffffffffffffff81116108055761080160209161031c565b0190565b610767565b90825f939282370152565b9092919261082a610825826107e7565b6107a4565b93818552602085019082840111610846576108449261080a565b565b6107e3565b610856913691610815565b90565b52565b6108676101206107a4565b90565b90610874906100b5565b9052565b90610882906102cd565b9052565b52565b90610893906106ea565b5f5260205260405f2090565b6108a99051610084565b90565b6108b690516100b5565b90565b906108ca60018060a01b03916106cf565b9181191691161790565b6108e86108e36108ed926100aa565b610603565b6100aa565b90565b6108f9906108d4565b90565b610905906108f0565b90565b90565b9061092061091b610927926108fc565b610908565b82546108b9565b9055565b61093590516102cd565b90565b60a01b90565b9061094d60ff60a01b91610938565b9181191691161790565b610960906102cd565b90565b90565b9061097b61097661098292610957565b610963565b825461093e565b9055565b5190565b61099490516102f2565b90565b906109a360ff916106cf565b9181191691161790565b6109b6906102f2565b90565b90565b906109d16109cc6109d8926109ad565b6109b9565b8254610997565b9055565b5190565b634e487b7160e01b5f52602260045260245ffd5b9060016002830492168015610a14575b6020831014610a0f57565b6109e0565b91607f1691610a04565b5f5260205f2090565b601f602091010490565b1b90565b91906008610a50910291610a4a5f1984610a31565b92610a31565b9181191691161790565b9190610a70610a6b610a78936106ea565b610706565b908354610a35565b9055565b5f90565b610a9291610a8c610a7c565b91610a5a565b565b5f5b828110610aa257505050565b80610ab15f6001938501610a80565b01610a96565b9190601f8111610ac7575b505050565b818111610ad4575b610ac2565b610ae9610ae3610b0794610a1e565b91610a27565b916020610af582610a27565b9110610b0f575b809101910390610a94565b5f8080610acf565b505f610afc565b90610b26905f199060080261056a565b191690565b81610b3591610b16565b906002021790565b90610b4781610304565b9067ffffffffffffffff8211610c0757610b6b82610b6585546109f4565b85610ab7565b602090601f8311600114610b9f57918091610b8e935f92610b93575b5050610b2b565b90555b565b90915001515f80610b87565b601f19831691610bae85610a1e565b925f5b818110610bef57509160029391856001969410610bd5575b50505002019055610b91565b610be5910151601f841690610b16565b90555f8080610bc9565b91936020600181928787015181550195019201610bb1565b610767565b90610c1691610b3d565b565b90610d27610140600a610d2d94610c3c5f8201610c365f880161089f565b90610709565b610c5560018201610c4f6020880161089f565b90610709565b610c6e60028201610c686040880161089f565b90610709565b610c8760038201610c816060880161089f565b90610709565b610ca060048201610c9a6080880161089f565b90610709565b610cb960058201610cb360a0880161089f565b90610709565b610cd260068201610ccc60c0880161089f565b90610709565b610ceb60078201610ce560e0880161098a565b906109bc565b610d0560088201610cff610100880161089f565b90610709565b610d1f60098201610d19610120880161089f565b90610709565b0192016109dc565b90610c0c565b565b90610d3991610c18565b565b60081b90565b90610d4e61ff0091610d3b565b9181191691161790565b90610d6d610d68610d74926109ad565b6109b9565b8254610d41565b9055565b90610e536101006010610e5994610d9c5f8201610d965f880161089f565b90610709565b610db560018201610daf6020880161089f565b90610709565b610dce60028201610dc8604088016108ac565b9061090b565b610de760038201610de1606088016108ac565b9061090b565b610e0060038201610dfa6080880161092b565b90610966565b610e1960048201610e1360a08801610986565b90610d2f565b610e32600f8201610e2c60c0880161098a565b906109bc565b610e4b600f8201610e4560e0880161098a565b90610d58565b01920161089f565b90610709565b565b90610e6591610d78565b565b9a9195989490999796978a610e8c610e86610e815f610622565b6100b5565b916100b5565b14801561114d575b611131578a610eab610ea5336100b5565b916100b5565b0361111657610ec4610ebe82859061062e565b90610631565b610ed6610ed05f610635565b91610084565b146110fa57610ee45f61066a565b996001610ef09061067a565b610ef95f61066a565b90610f03916106aa565b610f0d905f610709565b8a998d998d99985f97989593929190915f934262015180610f2d9061072c565b610f36916106aa565b954262093a80610f459061074b565b610f4e916106aa565b979998610f596107b9565b9c5f8e0190610f67916107c7565b60208d0190610f75916107c7565b60408c0190610f83916107c7565b60608b0190610f91916107c7565b60808a0190610f9f916107c7565b60a0890190610fad916107c7565b60c0880190610fbb916107c7565b60e0870190610fc9916107d5565b610100860190610fd8916107c7565b610120850190610fe7916107c7565b610ff09161084b565b610140830190610fff91610859565b5f925f94429661100d61085c565b985f8a019061101b916107c7565b6020890190611029916107c7565b60408801906110379161086a565b60608701906110459161086a565b608086019061105391610878565b60a085019061106191610886565b60c084019061106f916107d5565b60e083019061107d916107d5565b61010082019061108c916107c7565b60018261109891610889565b906110a291610e5b565b917f46c3e8f018031b9c1b506ac0eb4c174c259e41ce714d4aa5f95a5bd642c6895c926110ce906106ea565b906110d8906106ea565b916110e2906108fc565b926110eb610072565b806110f5816101f7565b0390a4565b5f630eec403f60e41b815280611112600482016101f7565b0390fd5b5f6282b42960e81b81528061112d600482016101f7565b0390fd5b5f63e6c4247b60e01b815280611149600482016101f7565b0390fd5b508661116961116361115e5f610622565b6100b5565b916100b5565b14610e94565b60018060a01b031690565b61118661118b91610651565b61116f565b90565b611198905461117a565b90565b6111a481611778565b6111b06002820161118e565b6111c26111bc336100b5565b916100b5565b03611218576111d690600360029101610966565b6112007f992557b8f4cb6f777e4417e711bbdef7078134e0b2113e4d9945aed8cee28124916106ea565b90611209610072565b80611213816101f7565b0390a2565b5f6282b42960e81b81528061122f600482016101f7565b0390fd5b61123e6101206107a4565b90565b5f90565b5f90565b5f90565b6112586101606107a4565b90565b5f90565b606090565b61126c61124d565b906020808080808080808080808c611282611241565b81520161128d611241565b815201611298611241565b8152016112a3611241565b8152016112ae611241565b8152016112b9611241565b8152016112c4611241565b8152016112cf61125b565b8152016112da611241565b8152016112e5611241565b8152016112f061125f565b81525050565b6112fe611264565b90565b611309611233565b90602080808080808080808a61131d611241565b815201611328611241565b815201611333611245565b81520161133e611245565b815201611349611249565b8152016113546112f6565b81520161135f61125b565b81520161136a61125b565b815201611375611241565b81525050565b611383611301565b90565b60a01c90565b60ff1690565b61139e6113a391611386565b61138c565b90565b6113b09054611392565b90565b60ff1690565b6113c56113ca91610651565b6113b3565b90565b6113d790546113b9565b90565b905f92918054906113f46113ed836109f4565b8094610308565b916001811690815f1461144b575060011461140f575b505050565b61141c9192939450610a1e565b915f925b81841061143357505001905f808061140a565b60018160209295939554848601520191019290611420565b92949550505060ff19168252151560200201905f808061140a565b90611470916113da565b90565b9061149361148c92611483610072565b93848092611466565b038361077b565b565b906115a761159d600a6114a661124d565b946114bd6114b55f830161066a565b5f88016107c7565b6114d56114cc6001830161066a565b602088016107c7565b6114ed6114e46002830161066a565b604088016107c7565b6115056114fc6003830161066a565b606088016107c7565b61151d6115146004830161066a565b608088016107c7565b61153561152c6005830161066a565b60a088016107c7565b61154d6115446006830161066a565b60c088016107c7565b61156561155c600783016113cd565b60e088016107d5565b61157e6115746008830161066a565b61010088016107c7565b61159761158d6009830161066a565b61012088016107c7565b01611473565b6101408401610859565b565b60081c90565b6115bb6115c0916115a9565b6113b3565b90565b6115cd90546115af565b90565b906116b06116a660106115e1611233565b946115f86115f05f830161066a565b5f88016107c7565b6116106116076001830161066a565b602088016107c7565b61162861161f6002830161118e565b6040880161086a565b6116406116376003830161118e565b6060880161086a565b61165861164f600383016113a6565b60808801610878565b61167061166760048301611495565b60a08801610886565b61168861167f600f83016113cd565b60c088016107d5565b6116a0611697600f83016115c3565b60e088016107d5565b0161066a565b61010084016107c7565b565b6116bb906115d0565b90565b6116d56116da916116cd61137b565b506001610889565b6116b2565b90565b6116e681611778565b6116f26002820161118e565b6117046116fe336100b5565b916100b5565b0361175a5761171890600360019101610966565b6117427ff7e6ad7e5e2c48eef8b9eda56ab39e904d8d223e24e4d3b0214018d8093b98ec916106ea565b9061174b610072565b80611755816101f7565b0390a2565b5f6282b42960e81b815280611771600482016101f7565b0390fd5b90565b8061178b6117855f610635565b91610084565b1480156117c9575b6117ad576117a56117aa916001610889565b611775565b90565b5f639cc59cb960e01b8152806117c5600482016101f7565b0390fd5b50806117e56117df6117da5f61066a565b610084565b91610084565b101561179356fea2646970667358221220f6ffe6eeaab96ab071d9a682b1554c2c817cf18bf04466abed9e6620624dd5cd64736f6c63430008210033","linkReferences":{}},"methodIdentifiers":{"approveAgreement(uint256)":"b132d78b","createAgreement(uint256,address,address,uint256,uint256,uint256,uint256,uint256,uint256,uint256,string)":"3223ba36","getAgreement(uint256)":"4f9f6fe6","nextAgreementId()":"c9b99dab","rejectAgreement(uint256)":"457c8816"},"id":36}