{"abi":[{"type":"function","name":"arithmeticError","inputs":[],"outputs":[{"name":"","type":"bytes","internalType":"bytes"}],"stateMutability":"view"},{"type":"function","name":"assertionError","inputs":[],"outputs":[{"name":"","type":"bytes","internalType":"bytes"}],"stateMutability":"view"},{"type":"function","name":"divisionError","inputs":[],"outputs":[{"name":"","type":"bytes","internalType":"bytes"}],"stateMutability":"view"},{"type":"function","name":"encodeStorageError","inputs":[],"outputs":[{"name":"","type":"bytes","internalType":"bytes"}],"stateMutability":"view"},{"type":"function","name":"enumConversionError","inputs":[],"outputs":[{"name":"","type":"bytes","internalType":"bytes"}],"stateMutability":"view"},{"type":"function","name":"indexOOBError","inputs":[],"outputs":[{"name":"","type":"bytes","internalType":"bytes"}],"stateMutability":"view"},{"type":"function","name":"memOverflowError","inputs":[],"outputs":[{"name":"","type":"bytes","internalType":"bytes"}],"stateMutability":"view"},{"type":"function","name":"popError","inputs":[],"outputs":[{"name":"","type":"bytes","internalType":"bytes"}],"stateMutability":"view"},{"type":"function","name":"zeroVarError","inputs":[],"outputs":[{"name":"","type":"bytes","internalType":"bytes"}],"stateMutability":"view"}],"bytecode":{"object":"0x608060405234602057600e6024565b6107f861002f8239308150506107f890f35b602a565b60405190565b5f80fdfe60806040526004361015610013575b6107be565b61001d5f356100ac565b806305ee8612146100a757806310332977146100a25780631de455601461009d5780638995290f14610098578063986c5f6814610093578063b22dc54d1461008e578063b67689da14610089578063d160e4de146100845763fa784a440361000e57610793565b6106e1565b61062f565b61057d565b6104cb565b610419565b610367565b6102b5565b610203565b60e01c90565b60405190565b5f80fd5b5f9103126100c657565b6100b8565b90565b60ff1690565b90565b6100eb6100e66100f0926100cb565b6100d4565b6100ce565b90565b6100fc906100d7565b9052565b9190610113905f602085019401906100f3565b565b601f801991011690565b634e487b7160e01b5f52604160045260245ffd5b9061013d90610115565b810190811067ffffffffffffffff82111761015757604052565b61011f565b610185610194603261016c6100b2565b928391600460208401634e487b7160e01b815201610100565b60208201810382520382610133565b90565b61019f61015c565b90565b5190565b60209181520190565b90825f9392825e0152565b6101d96101e26020936101e7936101d0816101a2565b938480936101a6565b958691016101af565b610115565b0190565b6102009160208201915f8184039101526101ba565b90565b61020e3660046100bc565b61022a610219610197565b6102216100b2565b918291826101eb565b0390f35b90565b61024561024061024a9261022e565b6100d4565b6100ce565b90565b61025690610231565b9052565b919061026d905f6020850194019061024d565b565b6102986102a7600161027f6100b2565b928391600460208401634e487b7160e01b81520161025a565b60208201810382520382610133565b90565b6102b261026f565b90565b6102c03660046100bc565b6102dc6102cb6102aa565b6102d36100b2565b918291826101eb565b0390f35b90565b6102f76102f26102fc926102e0565b6100d4565b6100ce565b90565b610308906102e3565b9052565b919061031f905f602085019401906102ff565b565b61034a61035960216103316100b2565b928391600460208401634e487b7160e01b81520161030c565b60208201810382520382610133565b90565b610364610321565b90565b6103723660046100bc565b61038e61037d61035c565b6103856100b2565b918291826101eb565b0390f35b90565b6103a96103a46103ae92610392565b6100d4565b6100ce565b90565b6103ba90610395565b9052565b91906103d1905f602085019401906103b1565b565b6103fc61040b60116103e36100b2565b928391600460208401634e487b7160e01b8152016103be565b60208201810382520382610133565b90565b6104166103d3565b90565b6104243660046100bc565b61044061042f61040e565b6104376100b2565b918291826101eb565b0390f35b90565b61045b61045661046092610444565b6100d4565b6100ce565b90565b61046c90610447565b9052565b9190610483905f60208501940190610463565b565b6104ae6104bd60416104956100b2565b928391600460208401634e487b7160e01b815201610470565b60208201810382520382610133565b90565b6104c8610485565b90565b6104d63660046100bc565b6104f26104e16104c0565b6104e96100b2565b918291826101eb565b0390f35b90565b61050d610508610512926104f6565b6100d4565b6100ce565b90565b61051e906104f9565b9052565b9190610535905f60208501940190610515565b565b61056061056f60316105476100b2565b928391600460208401634e487b7160e01b815201610522565b60208201810382520382610133565b90565b61057a610537565b90565b6105883660046100bc565b6105a4610593610572565b61059b6100b2565b918291826101eb565b0390f35b90565b6105bf6105ba6105c4926105a8565b6100d4565b6100ce565b90565b6105d0906105ab565b9052565b91906105e7905f602085019401906105c7565b565b61061261062160516105f96100b2565b928391600460208401634e487b7160e01b8152016105d4565b60208201810382520382610133565b90565b61062c6105e9565b90565b61063a3660046100bc565b610656610645610624565b61064d6100b2565b918291826101eb565b0390f35b90565b61067161066c6106769261065a565b6100d4565b6100ce565b90565b6106829061065d565b9052565b9190610699905f60208501940190610679565b565b6106c46106d360226106ab6100b2565b928391600460208401634e487b7160e01b815201610686565b60208201810382520382610133565b90565b6106de61069b565b90565b6106ec3660046100bc565b6107086106f76106d6565b6106ff6100b2565b918291826101eb565b0390f35b90565b61072361071e6107289261070c565b6100d4565b6100ce565b90565b6107349061070f565b9052565b919061074b905f6020850194019061072b565b565b610776610785601261075d6100b2565b928391600460208401634e487b7160e01b815201610738565b60208201810382520382610133565b90565b61079061074d565b90565b61079e3660046100bc565b6107ba6107a9610788565b6107b16100b2565b918291826101eb565b0390f35b5f80fdfea2646970667358221220593e3a47b8fb6b5fe1eb4122f186c77708009d4c49d5676968e48ad47a9b8ab664736f6c63430008210033","linkReferences":{}},"methodIdentifiers":{"arithmeticError()":"8995290f","assertionError()":"10332977","divisionError()":"fa784a44","encodeStorageError()":"d160e4de","enumConversionError()":"1de45560","indexOOBError()":"05ee8612","memOverflowError()":"986c5f68","popError()":"b22dc54d","zeroVarError()":"b67689da"},"id":5}