{"abi":[{"type":"constructor","inputs":[],"stateMutability":"nonpayable"},{"type":"function","name":"getPlayer","inputs":[{"name":"owner_","type":"address","internalType":"address"}],"outputs":[{"name":"","type":"tuple","internalType":"struct PlayerRegistry.Player","components":[{"name":"id","type":"uint256","internalType":"uint256"},{"name":"owner","type":"address","internalType":"address"},{"name":"name","type":"string","internalType":"string"},{"name":"metadataURI","type":"string","internalType":"string"},{"name":"status","type":"uint8","internalType":"enum PlayerRegistry.PlayerStatus"},{"name":"registeredAt","type":"uint256","internalType":"uint256"}]}],"stateMutability":"view"},{"type":"function","name":"getPlayerOwner","inputs":[{"name":"playerId","type":"uint256","internalType":"uint256"}],"outputs":[{"name":"","type":"address","internalType":"address"}],"stateMutability":"view"},{"type":"function","name":"nextPlayerId","inputs":[],"outputs":[{"name":"","type":"uint256","internalType":"uint256"}],"stateMutability":"view"},{"type":"function","name":"registerPlayer","inputs":[{"name":"owner_","type":"address","internalType":"address"},{"name":"metadataURI_","type":"string","internalType":"string"},{"name":"name_","type":"string","internalType":"string"}],"outputs":[],"stateMutability":"nonpayable"},{"type":"function","name":"setPlayerStatus","inputs":[{"name":"owner_","type":"address","internalType":"address"},{"name":"status_","type":"uint8","internalType":"enum PlayerRegistry.PlayerStatus"}],"outputs":[],"stateMutability":"nonpayable"},{"type":"function","name":"updatePlayerMetadata","inputs":[{"name":"owner_","type":"address","internalType":"address"},{"name":"metadataURI_","type":"string","internalType":"string"}],"outputs":[],"stateMutability":"nonpayable"},{"type":"event","name":"PlayerMetadataUpdated","inputs":[{"name":"owner","type":"address","indexed":true,"internalType":"address"},{"name":"playerId","type":"uint256","indexed":true,"internalType":"uint256"},{"name":"metadataURI","type":"string","indexed":false,"internalType":"string"}],"anonymous":false},{"type":"event","name":"PlayerRegistered","inputs":[{"name":"owner","type":"address","indexed":true,"internalType":"address"},{"name":"playerId","type":"uint256","indexed":true,"internalType":"uint256"},{"name":"metadataURI","type":"string","indexed":false,"internalType":"string"}],"anonymous":false},{"type":"event","name":"PlayerStatusUpdated","inputs":[{"name":"owner","type":"address","indexed":true,"internalType":"address"},{"name":"playerId","type":"uint256","indexed":true,"internalType":"uint256"},{"name":"status","type":"uint8","indexed":false,"internalType":"enum PlayerRegistry.PlayerStatus"}],"anonymous":false},{"type":"error","name":"InvalidAddress","inputs":[]},{"type":"error","name":"InvalidMetadataURI","inputs":[]},{"type":"error","name":"PlayerAlreadyRegistered","inputs":[]},{"type":"error","name":"PlayerNotFound","inputs":[]}],"bytecode":{"object":"0x608060405234602257600e609b565b60146026565b61134a6100ad823961134a90f35b602c565b60405190565b5f80fd5b90565b90565b90565b60486044604c926030565b6036565b6033565b90565b5f1b90565b90605e5f1991604f565b9181191691161790565b60776073607b926033565b6036565b6033565b90565b90565b906091608d6097926068565b607e565b82546054565b9055565b60aa60a560016039565b5f6081565b56fe60806040526004361015610013575b61058c565b61001d5f3561007c565b806319863f35146100775780632349794d1461007257806356c26f251461006d5780635c12cd4b14610068578063ab01d9a3146100635763ce790ed80361000e57610558565b6104db565b6103f0565b610258565b6101c1565b6100ff565b60e01c90565b60405190565b5f80fd5b5f80fd5b5f91031261009a57565b61008c565b1c90565b90565b6100b69060086100bb930261009f565b6100a3565b90565b906100c991546100a6565b90565b6100d75f5f906100be565b90565b90565b6100e6906100da565b9052565b91906100fd905f602085019401906100dd565b565b3461012f5761010f366004610090565b61012b61011a6100cc565b610122610082565b918291826100ea565b0390f35b610088565b5f80fd5b60018060a01b031690565b61014c90610138565b90565b61015881610143565b0361015f57565b5f80fd5b905035906101708261014f565b565b6003111561017c57565b5f80fd5b9050359061018d82610172565b565b91906040838203126101b757806101ab6101b4925f8601610163565b93602001610180565b90565b61008c565b5f0190565b346101f0576101da6101d436600461018f565b90610675565b6101e2610082565b806101ec816101bc565b0390f35b610088565b6101fe816100da565b0361020557565b5f80fd5b90503590610216826101f5565b565b906020828203126102315761022e915f01610209565b90565b61008c565b61023f90610143565b9052565b9190610256905f60208501940190610236565b565b346102885761028461027361026e366004610218565b61072c565b61027b610082565b91829182610243565b0390f35b610088565b906020828203126102a6576102a3915f01610163565b90565b61008c565b6102b4906100da565b9052565b6102c190610143565b9052565b5190565b60209181520190565b90825f9392825e0152565b601f801991011690565b61030661030f602093610314936102fd816102c5565b938480936102c9565b958691016102d2565b6102dd565b0190565b634e487b7160e01b5f52602160045260245ffd5b6003111561033657565b610318565b906103458261032c565b565b6103509061033b565b90565b61035c90610347565b9052565b906103d59060a0806103b86103a660c085016103825f8901515f8801906102ab565b610394602089015160208801906102b8565b604088015186820360408801526102e7565b606087015185820360608701526102e7565b946103cb60808201516080860190610353565b01519101906102ab565b90565b6103ed9160208201915f818403910152610360565b90565b346104205761041c61040b61040636600461028d565b610a2d565b610413610082565b918291826103d8565b0390f35b610088565b5f80fd5b5f80fd5b5f80fd5b909182601f8301121561046b5781359167ffffffffffffffff831161046657602001926001830284011161046157565b61042d565b610429565b610425565b6060818303126104d657610486825f8301610163565b92602082013567ffffffffffffffff81116104d157836104a7918401610431565b929093604082013567ffffffffffffffff81116104cc576104c89201610431565b9091565b610134565b610134565b61008c565b3461050d576104f76104ee366004610470565b93929092610f3a565b6104ff610082565b80610509816101bc565b0390f35b610088565b9190916040818403126105535761052b835f8301610163565b92602082013567ffffffffffffffff811161054e5761054a9201610431565b9091565b610134565b61008c565b346105875761057161056b366004610512565b91611203565b610579610082565b80610583816101bc565b0390f35b610088565b5f80fd5b5f1b90565b906105a160ff91610590565b9181191691161790565b6105b49061033b565b90565b90565b906105cf6105ca6105d6926105ab565b6105b7565b8254610595565b9055565b5f1c90565b6105eb6105f0916105da565b6100a3565b90565b6105fd90546105df565b90565b90565b61061761061261061c92610138565b610600565b610138565b90565b61062890610603565b90565b6106349061061f565b90565b61064b610646610650926100da565b610600565b6100da565b90565b61065c90610347565b9052565b9190610673905f60208501940190610653565b565b906106985f610683846112c1565b9361069184600487016105ba565b93016105f3565b90916106e16106cf6106c97eabc3f2ce177f7b41a1e1a5cc51c932d9e93df767778f97a4594b4fe2d3aba99361062b565b93610637565b936106d8610082565b91829182610660565b0390a3565b5f90565b906106f490610637565b5f5260205260405f2090565b60018060a01b031690565b61071761071c916105da565b610700565b90565b610729905461070b565b90565b6107436107489161073b6106e6565b5060026106ea565b61071f565b90565b634e487b7160e01b5f52604160045260245ffd5b90610769906102dd565b810190811067ffffffffffffffff82111761078357604052565b61074b565b9061079b610794610082565b928361075f565b565b6107a760c0610788565b90565b5f90565b5f90565b606090565b5f90565b6107c361079d565b9060208080808080876107d46107aa565b8152016107df6107ae565b8152016107ea6107b2565b8152016107f56107b2565b8152016108006107b7565b81520161080b6107aa565b81525050565b6108196107bb565b90565b906108269061062b565b5f5260205260405f2090565b9061083c906100da565b9052565b9061084a90610143565b9052565b634e487b7160e01b5f52602260045260245ffd5b9060016002830492168015610882575b602083101461087d57565b61084e565b91607f1691610872565b5f5260205f2090565b905f92918054906108af6108a883610862565b80946102c9565b916001811690815f1461090657506001146108ca575b505050565b6108d7919293945061088c565b915f925b8184106108ee57505001905f80806108c5565b600181602092959395548486015201910192906108db565b92949550505060ff19168252151560200201905f80806108c5565b9061092b91610895565b90565b9061094e6109479261093e610082565b93848092610921565b038361075f565b565b52565b60ff1690565b61096561096a916105da565b610953565b90565b6109779054610959565b90565b906109849061033b565b9052565b90610a1f610a16600561099961079d565b946109b06109a85f83016105f3565b5f8801610832565b6109c86109bf6001830161071f565b60208801610840565b6109e06109d76002830161092e565b60408801610950565b6109f86109ef6003830161092e565b60608801610950565b610a10610a076004830161096d565b6080880161097a565b016105f3565b60a08401610832565b565b610a2a90610988565b90565b610a44610a4991610a3c610811565b50600161081c565b610a21565b90565b90565b610a63610a5e610a6892610a4c565b610600565b610138565b90565b610a7490610a4f565b90565b91565b5090565b610a92610a8d610a9792610a4c565b610600565b6100da565b90565b90610aa49061062b565b5f5260205260405f2090565b60ff1690565b610ac2610ac7916105da565b610ab0565b90565b610ad49054610ab6565b90565b634e487b7160e01b5f52601160045260245ffd5b610af4906100da565b5f198114610b025760010190565b610ad7565b90610b135f1991610590565b9181191691161790565b90565b90610b35610b30610b3c92610637565b610b1d565b8254610b07565b9055565b610b4a60c0610788565b90565b5f80fd5b67ffffffffffffffff8111610b6f57610b6b6020916102dd565b0190565b61074b565b90825f939282370152565b90929192610b94610b8f82610b51565b610788565b93818552602085019082840111610bb057610bae92610b74565b565b610b4d565b610bc0913691610b7f565b90565b610bcd90516100da565b90565b610bda9051610143565b90565b90610bee60018060a01b0391610590565b9181191691161790565b90565b90610c10610c0b610c179261062b565b610bf8565b8254610bdd565b9055565b5190565b601f602091010490565b1b90565b91906008610c48910291610c425f1984610c29565b92610c29565b9181191691161790565b9190610c68610c63610c7093610637565b610b1d565b908354610c2d565b9055565b5f90565b610c8a91610c84610c74565b91610c52565b565b5f5b828110610c9a57505050565b80610ca95f6001938501610c78565b01610c8e565b9190601f8111610cbf575b505050565b818111610ccc575b610cba565b610ce1610cdb610cff9461088c565b91610c1f565b916020610ced82610c1f565b9110610d07575b809101910390610c8c565b5f8080610cc7565b505f610cf4565b90610d1e905f199060080261009f565b191690565b81610d2d91610d0e565b906002021790565b90610d3f816102c5565b9067ffffffffffffffff8211610dff57610d6382610d5d8554610862565b85610caf565b602090601f8311600114610d9757918091610d86935f92610d8b575b5050610d23565b90555b565b90915001515f80610d7f565b601f19831691610da68561088c565b925f5b818110610de757509160029391856001969410610dcd575b50505002019055610d89565b610ddd910151601f841690610d0e565b90555f8080610dc1565b91936020600181928787015181550195019201610da9565b61074b565b90610e0e91610d35565b565b610e1a905161033b565b90565b90610eac60a06005610eb294610e405f8201610e3a5f8801610bc3565b90610b20565b610e5960018201610e5360208801610bd0565b90610bfb565b610e7260028201610e6c60408801610c1b565b90610e04565b610e8b60038201610e8560608801610c1b565b90610e04565b610ea460048201610e9e60808801610e10565b906105ba565b019201610bc3565b90610b20565b565b90610ebe91610e1d565b565b151590565b610ece90610ec0565b90565b90565b90610ee9610ee4610ef092610ec5565b610ed1565b8254610595565b9055565b60209181520190565b9190610f1781610f1081610f1c95610ef4565b8095610b74565b6102dd565b0190565b9091610f379260208301925f818503910152610efd565b90565b9092919381610f59610f53610f4e5f610a6b565b610143565b91610143565b1461110757610f72610f6c858790610a77565b90610a7a565b610f84610f7e5f610a7e565b916100da565b146110eb57610f9d610f9860038490610a9a565b610aca565b6110cf57610faa5f6105f3565b610fb381610aeb565b610fbd905f610b20565b9283918391869088905f934295610fd2610b40565b975f890190610fe091610832565b6020880190610fee91610840565b610ff791610bb5565b604086019061100591610950565b61100e91610bb5565b606084019061101c91610950565b608083019061102a9161097a565b60a082019061103891610832565b6001826110449161081c565b9061104e91610eb4565b8060028361105b916106ea565b9061106591610bfb565b600160038261107391610a9a565b9061107d91610ed4565b90917f865abd75d1ad47e64d129da8796be2c458df8c1942e06b39c4ac3e3a88f471f8916110aa9061062b565b926110b490610637565b936110bd610082565b9182916110ca9183610f20565b0390a3565b5f63ab5ac72b60e01b8152806110e7600482016101bc565b0390fd5b5f630eec403f60e41b815280611103600482016101bc565b0390fd5b5f63e6c4247b60e01b81528061111f600482016101bc565b0390fd5b5090565b916111329082611123565b9067ffffffffffffffff82116111f157611156826111508554610862565b85610caf565b5f90601f831160011461118957918091611178935f9261117d575b5050610d23565b90555b565b90915001355f80611171565b601f198316916111988561088c565b925f5b8181106111d9575091600293918560019694106111bf575b5050500201905561117b565b6111cf910135601f841690610d0e565b90555f80806111b3565b9193602060018192878701358155019501920161119b565b61074b565b906112019291611127565b565b61120c816112c1565b9061122161121b848690610a77565b90610a7a565b61123361122d5f610a7e565b916100da565b146112a2575f6112539161124c858790600387016111f6565b92016105f3565b91926112886112827fd348cf4f103057cf49f1147685fa189ee5f3a4e82ea2e7cf5ed420b11ae5e38c9361062b565b93610637565b9361129d611294610082565b92839283610f20565b0390a3565b5f630eec403f60e41b8152806112ba600482016101bc565b0390fd5b90565b6112de6112d86112d360038490610a9a565b610aca565b15610ec0565b6112f8576112f06112f591600161081c565b6112be565b90565b5f632a645edb60e01b815280611310600482016101bc565b0390fdfea26469706673582212203086fdf6887412b7f798f5160ae6b2ba96a6b01f7fa48f767033367e10c1800c64736f6c63430008210033","linkReferences":{}},"methodIdentifiers":{"getPlayer(address)":"5c12cd4b","getPlayerOwner(uint256)":"56c26f25","nextPlayerId()":"19863f35","registerPlayer(address,string,string)":"ab01d9a3","setPlayerStatus(address,uint8)":"2349794d","updatePlayerMetadata(address,string)":"ce790ed8"},"id":29}