{"abi":[{"type":"constructor","inputs":[],"stateMutability":"nonpayable"},{"type":"function","name":"getPlayer","inputs":[{"name":"owner_","type":"address","internalType":"address"}],"outputs":[{"name":"","type":"tuple","internalType":"struct PlayerRegistry.Player","components":[{"name":"id","type":"uint256","internalType":"uint256"},{"name":"owner","type":"address","internalType":"address"},{"name":"name","type":"string","internalType":"string"},{"name":"metadataURI","type":"string","internalType":"string"},{"name":"status","type":"uint8","internalType":"enum PlayerRegistry.PlayerStatus"},{"name":"registeredAt","type":"uint256","internalType":"uint256"}]}],"stateMutability":"view"},{"type":"function","name":"getPlayerOwner","inputs":[{"name":"playerId","type":"uint256","internalType":"uint256"}],"outputs":[{"name":"","type":"address","internalType":"address"}],"stateMutability":"view"},{"type":"function","name":"nextPlayerId","inputs":[],"outputs":[{"name":"","type":"uint256","internalType":"uint256"}],"stateMutability":"view"},{"type":"function","name":"owner","inputs":[],"outputs":[{"name":"","type":"address","internalType":"address"}],"stateMutability":"view"},{"type":"function","name":"registerPlayer","inputs":[{"name":"owner_","type":"address","internalType":"address"},{"name":"metadataUri_","type":"string","internalType":"string"},{"name":"name_","type":"string","internalType":"string"}],"outputs":[],"stateMutability":"nonpayable"},{"type":"function","name":"renounceOwnership","inputs":[],"outputs":[],"stateMutability":"nonpayable"},{"type":"function","name":"setPlayerStatus","inputs":[{"name":"owner_","type":"address","internalType":"address"},{"name":"status_","type":"uint8","internalType":"enum PlayerRegistry.PlayerStatus"}],"outputs":[],"stateMutability":"nonpayable"},{"type":"function","name":"transferOwnership","inputs":[{"name":"newOwner","type":"address","internalType":"address"}],"outputs":[],"stateMutability":"nonpayable"},{"type":"function","name":"updatePlayerMetadata","inputs":[{"name":"owner_","type":"address","internalType":"address"},{"name":"metadataUri_","type":"string","internalType":"string"}],"outputs":[],"stateMutability":"nonpayable"},{"type":"event","name":"OwnershipTransferred","inputs":[{"name":"previousOwner","type":"address","indexed":true,"internalType":"address"},{"name":"newOwner","type":"address","indexed":true,"internalType":"address"}],"anonymous":false},{"type":"event","name":"PlayerMetadataUpdated","inputs":[{"name":"owner","type":"address","indexed":true,"internalType":"address"},{"name":"playerId","type":"uint256","indexed":true,"internalType":"uint256"},{"name":"metadataURI","type":"string","indexed":false,"internalType":"string"}],"anonymous":false},{"type":"event","name":"PlayerRegistered","inputs":[{"name":"owner","type":"address","indexed":true,"internalType":"address"},{"name":"playerId","type":"uint256","indexed":true,"internalType":"uint256"},{"name":"metadataURI","type":"string","indexed":false,"internalType":"string"}],"anonymous":false},{"type":"event","name":"PlayerStatusUpdated","inputs":[{"name":"owner","type":"address","indexed":true,"internalType":"address"},{"name":"playerId","type":"uint256","indexed":true,"internalType":"uint256"},{"name":"status","type":"uint8","indexed":false,"internalType":"enum PlayerRegistry.PlayerStatus"}],"anonymous":false},{"type":"error","name":"InvalidAddress","inputs":[]},{"type":"error","name":"InvalidMetadataURI","inputs":[]},{"type":"error","name":"OwnableInvalidOwner","inputs":[{"name":"owner","type":"address","internalType":"address"}]},{"type":"error","name":"OwnableUnauthorizedAccount","inputs":[{"name":"account","type":"address","internalType":"address"}]},{"type":"error","name":"PlayerAlreadyRegistered","inputs":[]},{"type":"error","name":"PlayerNotFound","inputs":[]},{"type":"error","name":"Unauthorized","inputs":[]}],"bytecode":{"object":"0x608060405234610027576100116100b5565b61001961002c565b61160c610292823961160c90f35b610032565b60405190565b5f80fd5b90565b90565b90565b61005361004e61005892610036565b61003c565b610039565b90565b5f1b90565b9061006c5f199161005b565b9181191691161790565b61008a61008561008f92610039565b61003c565b610039565b90565b90565b906100aa6100a56100b192610076565b610092565b8254610060565b9055565b6100be33610138565b6100d26100cb600161003f565b6001610095565b565b90565b60018060a01b031690565b6100f66100f16100fb926100d4565b61003c565b6100d7565b90565b610107906100e2565b90565b610113906100d7565b90565b61011f9061010a565b9052565b9190610136905f60208501940190610116565b565b8061015361014d6101485f6100fe565b61010a565b9161010a565b146101635761016190610232565b565b61018661016f5f6100fe565b5f918291631e4fbdf760e01b835260048301610123565b0390fd5b5f1c90565b60018060a01b031690565b6101a66101ab9161018a565b61018f565b90565b6101b8905461019a565b90565b906101cc60018060a01b039161005b565b9181191691161790565b6101ea6101e56101ef926100d7565b61003c565b6100d7565b90565b6101fb906101d6565b90565b610207906101f2565b90565b90565b9061022261021d610229926101fe565b61020a565b82546101bb565b9055565b5f0190565b61023b5f6101ae565b610245825f61020d565b906102796102737f8be0079c531659141344cd1fd0a4f28419497f9722a3daafe3b4186f6b6457e0936101fe565b916101fe565b9161028261002c565b8061028c8161022d565b0390a356fe60806040526004361015610013575b610658565b61001d5f356100ac565b806319863f35146100a75780632349794d146100a257806356c26f251461009d5780635c12cd4b14610098578063715018a6146100935780638da5cb5b1461008e578063ab01d9a314610089578063ce790ed8146100845763f2fde38b0361000e57610625565b6105f1565b610574565b610489565b610456565b610421565b610289565b6101f2565b610130565b60e01c90565b60405190565b5f80fd5b5f80fd5b5f9103126100ca57565b6100bc565b1c90565b90565b6100e69060086100eb93026100cf565b6100d3565b90565b906100f991546100d6565b90565b61010860015f906100ee565b90565b90565b6101179061010b565b9052565b919061012e905f6020850194019061010e565b565b34610160576101403660046100c0565b61015c61014b6100fc565b6101536100b2565b9182918261011b565b0390f35b6100b8565b5f80fd5b60018060a01b031690565b61017d90610169565b90565b61018981610174565b0361019057565b5f80fd5b905035906101a182610180565b565b600311156101ad57565b5f80fd5b905035906101be826101a3565b565b91906040838203126101e857806101dc6101e5925f8601610194565b936020016101b1565b90565b6100bc565b5f0190565b346102215761020b6102053660046101c0565b906107c6565b6102136100b2565b8061021d816101ed565b0390f35b6100b8565b61022f8161010b565b0361023657565b5f80fd5b9050359061024782610226565b565b906020828203126102625761025f915f0161023a565b90565b6100bc565b61027090610174565b9052565b9190610287905f60208501940190610267565b565b346102b9576102b56102a461029f366004610249565b610818565b6102ac6100b2565b91829182610274565b0390f35b6100b8565b906020828203126102d7576102d4915f01610194565b90565b6100bc565b6102e59061010b565b9052565b6102f290610174565b9052565b5190565b60209181520190565b90825f9392825e0152565b601f801991011690565b6103376103406020936103459361032e816102f6565b938480936102fa565b95869101610303565b61030e565b0190565b634e487b7160e01b5f52602160045260245ffd5b6003111561036757565b610349565b906103768261035d565b565b6103819061036c565b90565b61038d90610378565b9052565b906104069060a0806103e96103d760c085016103b35f8901515f8801906102dc565b6103c5602089015160208801906102e9565b60408801518682036040880152610318565b60608701518582036060870152610318565b946103fc60808201516080860190610384565b01519101906102dc565b90565b61041e9160208201915f818403910152610391565b90565b346104515761044d61043c6104373660046102be565b610b19565b6104446100b2565b91829182610409565b0390f35b6100b8565b34610484576104663660046100c0565b61046e610b88565b6104766100b2565b80610480816101ed565b0390f35b6100b8565b346104b9576104993660046100c0565b6104b56104a4610b92565b6104ac6100b2565b91829182610274565b0390f35b6100b8565b5f80fd5b5f80fd5b5f80fd5b909182601f830112156105045781359167ffffffffffffffff83116104ff5760200192600183028401116104fa57565b6104c6565b6104c2565b6104be565b60608183031261056f5761051f825f8301610194565b92602082013567ffffffffffffffff811161056a57836105409184016104ca565b929093604082013567ffffffffffffffff81116105655761056192016104ca565b9091565b610165565b610165565b6100bc565b346105a657610590610587366004610509565b9392909261106a565b6105986100b2565b806105a2816101ed565b0390f35b6100b8565b9190916040818403126105ec576105c4835f8301610194565b92602082013567ffffffffffffffff81116105e7576105e392016104ca565b9091565b610165565b6100bc565b346106205761060a6106043660046105ab565b91611368565b6106126100b2565b8061061c816101ed565b0390f35b6100b8565b346106535761063d6106383660046102be565b6114bb565b6106456100b2565b8061064f816101ed565b0390f35b6100b8565b5f80fd5b9061066e916106696114c6565b610755565b565b5f1b90565b9061068160ff91610670565b9181191691161790565b6106949061036c565b90565b90565b906106af6106aa6106b69261068b565b610697565b8254610675565b9055565b5f1c90565b6106cb6106d0916106ba565b6100d3565b90565b6106dd90546106bf565b90565b90565b6106f76106f26106fc92610169565b6106e0565b610169565b90565b610708906106e3565b90565b610714906106ff565b90565b61072b6107266107309261010b565b6106e0565b61010b565b90565b61073c90610378565b9052565b9190610753905f60208501940190610733565b565b906107785f61076384611517565b93610771846004870161069a565b93016106d3565b90916107c16107af6107a97eabc3f2ce177f7b41a1e1a5cc51c932d9e93df767778f97a4594b4fe2d3aba99361070b565b93610717565b936107b86100b2565b91829182610740565b0390a3565b906107d09161065c565b565b5f90565b906107e090610717565b5f5260205260405f2090565b60018060a01b031690565b610803610808916106ba565b6107ec565b90565b61081590546107f7565b90565b61082f610834916108276107d2565b5060036107d6565b61080b565b90565b634e487b7160e01b5f52604160045260245ffd5b906108559061030e565b810190811067ffffffffffffffff82111761086f57604052565b610837565b906108876108806100b2565b928361084b565b565b61089360c0610874565b90565b5f90565b5f90565b606090565b5f90565b6108af610889565b9060208080808080876108c0610896565b8152016108cb61089a565b8152016108d661089e565b8152016108e161089e565b8152016108ec6108a3565b8152016108f7610896565b81525050565b6109056108a7565b90565b906109129061070b565b5f5260205260405f2090565b906109289061010b565b9052565b9061093690610174565b9052565b634e487b7160e01b5f52602260045260245ffd5b906001600283049216801561096e575b602083101461096957565b61093a565b91607f169161095e565b5f5260205f2090565b905f929180549061099b6109948361094e565b80946102fa565b916001811690815f146109f257506001146109b6575b505050565b6109c39192939450610978565b915f925b8184106109da57505001905f80806109b1565b600181602092959395548486015201910192906109c7565b92949550505060ff19168252151560200201905f80806109b1565b90610a1791610981565b90565b90610a3a610a3392610a2a6100b2565b93848092610a0d565b038361084b565b565b52565b60ff1690565b610a51610a56916106ba565b610a3f565b90565b610a639054610a45565b90565b90610a709061036c565b9052565b90610b0b610b026005610a85610889565b94610a9c610a945f83016106d3565b5f880161091e565b610ab4610aab6001830161080b565b6020880161092c565b610acc610ac360028301610a1a565b60408801610a3c565b610ae4610adb60038301610a1a565b60608801610a3c565b610afc610af360048301610a59565b60808801610a66565b016106d3565b60a0840161091e565b565b610b1690610a74565b90565b610b30610b3591610b286108fd565b506002610908565b610b0d565b90565b610b406114c6565b610b48610b75565b565b90565b610b61610b5c610b6692610b4a565b6106e0565b610169565b90565b610b7290610b4d565b90565b610b86610b815f610b69565b61156a565b565b610b90610b38565b565b610b9a6107d2565b50610ba45f61080b565b90565b91565b5090565b610bc2610bbd610bc792610b4a565b6106e0565b61010b565b90565b90610bd49061070b565b5f5260205260405f2090565b60ff1690565b610bf2610bf7916106ba565b610be0565b90565b610c049054610be6565b90565b634e487b7160e01b5f52601160045260245ffd5b610c249061010b565b5f198114610c325760010190565b610c07565b90610c435f1991610670565b9181191691161790565b90565b90610c65610c60610c6c92610717565b610c4d565b8254610c37565b9055565b610c7a60c0610874565b90565b5f80fd5b67ffffffffffffffff8111610c9f57610c9b60209161030e565b0190565b610837565b90825f939282370152565b90929192610cc4610cbf82610c81565b610874565b93818552602085019082840111610ce057610cde92610ca4565b565b610c7d565b610cf0913691610caf565b90565b610cfd905161010b565b90565b610d0a9051610174565b90565b90610d1e60018060a01b0391610670565b9181191691161790565b90565b90610d40610d3b610d479261070b565b610d28565b8254610d0d565b9055565b5190565b601f602091010490565b1b90565b91906008610d78910291610d725f1984610d59565b92610d59565b9181191691161790565b9190610d98610d93610da093610717565b610c4d565b908354610d5d565b9055565b5f90565b610dba91610db4610da4565b91610d82565b565b5f5b828110610dca57505050565b80610dd95f6001938501610da8565b01610dbe565b9190601f8111610def575b505050565b818111610dfc575b610dea565b610e11610e0b610e2f94610978565b91610d4f565b916020610e1d82610d4f565b9110610e37575b809101910390610dbc565b5f8080610df7565b505f610e24565b90610e4e905f19906008026100cf565b191690565b81610e5d91610e3e565b906002021790565b90610e6f816102f6565b9067ffffffffffffffff8211610f2f57610e9382610e8d855461094e565b85610ddf565b602090601f8311600114610ec757918091610eb6935f92610ebb575b5050610e53565b90555b565b90915001515f80610eaf565b601f19831691610ed685610978565b925f5b818110610f1757509160029391856001969410610efd575b50505002019055610eb9565b610f0d910151601f841690610e3e565b90555f8080610ef1565b91936020600181928787015181550195019201610ed9565b610837565b90610f3e91610e65565b565b610f4a905161036c565b90565b90610fdc60a06005610fe294610f705f8201610f6a5f8801610cf3565b90610c50565b610f8960018201610f8360208801610d00565b90610d2b565b610fa260028201610f9c60408801610d4b565b90610f34565b610fbb60038201610fb560608801610d4b565b90610f34565b610fd460048201610fce60808801610f40565b9061069a565b019201610cf3565b90610c50565b565b90610fee91610f4d565b565b151590565b610ffe90610ff0565b90565b90565b9061101961101461102092610ff5565b611001565b8254610675565b9055565b60209181520190565b9190611047816110408161104c95611024565b8095610ca4565b61030e565b0190565b90916110679260208301925f81850391015261102d565b90565b909291938161108961108361107e5f610b69565b610174565b91610174565b1461126c57816110a161109b33610174565b91610174565b03611251576110ba6110b4858790610ba7565b90610baa565b6110cc6110c65f610bae565b9161010b565b14611235576110e56110e060048490610bca565b610bfa565b611219576110f360016106d3565b6110fc81610c1b565b611107906001610c50565b9283918391869088905f93429561111c610c70565b975f89019061112a9161091e565b60208801906111389161092c565b61114191610ce5565b604086019061114f91610a3c565b61115891610ce5565b606084019061116691610a3c565b608083019061117491610a66565b60a08201906111829161091e565b60028261118e91610908565b9061119891610fe4565b806003836111a5916107d6565b906111af91610d2b565b60016004826111bd91610bca565b906111c791611004565b90917f865abd75d1ad47e64d129da8796be2c458df8c1942e06b39c4ac3e3a88f471f8916111f49061070b565b926111fe90610717565b936112076100b2565b9182916112149183611050565b0390a3565b5f63ab5ac72b60e01b815280611231600482016101ed565b0390fd5b5f630eec403f60e41b81528061124d600482016101ed565b0390fd5b5f6282b42960e81b815280611268600482016101ed565b0390fd5b5f63e6c4247b60e01b815280611284600482016101ed565b0390fd5b5090565b916112979082611288565b9067ffffffffffffffff8211611356576112bb826112b5855461094e565b85610ddf565b5f90601f83116001146112ee579180916112dd935f926112e2575b5050610e53565b90555b565b90915001355f806112d6565b601f198316916112fd85610978565b925f5b81811061133e57509160029391856001969410611324575b505050020190556112e0565b611334910135601f841690610e3e565b90555f8080611318565b91936020600181928787013581550195019201611300565b610837565b90611366929161128c565b565b61137181611517565b908061138561137f33610174565b91610174565b0361143b5761139e611398848690610ba7565b90610baa565b6113b06113aa5f610bae565b9161010b565b1461141f575f6113d0916113c98587906003870161135b565b92016106d3565b91926114056113ff7fd348cf4f103057cf49f1147685fa189ee5f3a4e82ea2e7cf5ed420b11ae5e38c9361070b565b93610717565b9361141a6114116100b2565b92839283611050565b0390a3565b5f630eec403f60e41b815280611437600482016101ed565b0390fd5b5f6282b42960e81b815280611452600482016101ed565b0390fd5b611467906114626114c6565b611469565b565b8061148461147e6114795f610b69565b610174565b91610174565b14611494576114929061156a565b565b6114b76114a05f610b69565b5f918291631e4fbdf760e01b835260048301610274565b0390fd5b6114c490611456565b565b6114ce610b92565b6114e76114e16114dc6115c9565b610174565b91610174565b036114ee57565b6115106114f96115c9565b5f91829163118cdaa760e01b835260048301610274565b0390fd5b90565b61153461152e61152960048490610bca565b610bfa565b15610ff0565b61154e5761154661154b916002610908565b611514565b90565b5f632a645edb60e01b815280611566600482016101ed565b0390fd5b6115735f61080b565b61157d825f610d2b565b906115b16115ab7f8be0079c531659141344cd1fd0a4f28419497f9722a3daafe3b4186f6b6457e09361070b565b9161070b565b916115ba6100b2565b806115c4816101ed565b0390a3565b6115d16107d2565b50339056fea264697066735822122012a7dc68a51c3d968697f260f47a54fabebf581f9df6bc413c038b3852fc599c64736f6c63430008210033","linkReferences":{}},"methodIdentifiers":{"getPlayer(address)":"5c12cd4b","getPlayerOwner(uint256)":"56c26f25","nextPlayerId()":"19863f35","owner()":"8da5cb5b","registerPlayer(address,string,string)":"ab01d9a3","renounceOwnership()":"715018a6","setPlayerStatus(address,uint8)":"2349794d","transferOwnership(address)":"f2fde38b","updatePlayerMetadata(address,string)":"ce790ed8"},"id":42}