{"abi":[{"type":"constructor","inputs":[{"name":"_treasury","type":"address","internalType":"address"},{"name":"_marketplaceFeeBps","type":"uint256","internalType":"uint256"},{"name":"_protocolVersion","type":"uint256","internalType":"uint256"}],"stateMutability":"nonpayable"},{"type":"function","name":"addSupportedPaymentToken","inputs":[{"name":"token","type":"address","internalType":"address"}],"outputs":[],"stateMutability":"nonpayable"},{"type":"function","name":"emergencyMode","inputs":[],"outputs":[{"name":"","type":"bool","internalType":"bool"}],"stateMutability":"view"},{"type":"function","name":"isPaymentTokenSupported","inputs":[{"name":"token","type":"address","internalType":"address"}],"outputs":[{"name":"","type":"bool","internalType":"bool"}],"stateMutability":"view"},{"type":"function","name":"isProtocolOperational","inputs":[],"outputs":[{"name":"","type":"bool","internalType":"bool"}],"stateMutability":"view"},{"type":"function","name":"marketplaceFeeBps","inputs":[],"outputs":[{"name":"","type":"uint256","internalType":"uint256"}],"stateMutability":"view"},{"type":"function","name":"owner","inputs":[],"outputs":[{"name":"","type":"address","internalType":"address"}],"stateMutability":"view"},{"type":"function","name":"pause","inputs":[],"outputs":[],"stateMutability":"nonpayable"},{"type":"function","name":"paused","inputs":[],"outputs":[{"name":"","type":"bool","internalType":"bool"}],"stateMutability":"view"},{"type":"function","name":"protocolVersion","inputs":[],"outputs":[{"name":"","type":"uint256","internalType":"uint256"}],"stateMutability":"view"},{"type":"function","name":"removeSupportedPaymentToken","inputs":[{"name":"token","type":"address","internalType":"address"}],"outputs":[],"stateMutability":"nonpayable"},{"type":"function","name":"renounceOwnership","inputs":[],"outputs":[],"stateMutability":"nonpayable"},{"type":"function","name":"setEmergencyMode","inputs":[{"name":"enabled","type":"bool","internalType":"bool"}],"outputs":[],"stateMutability":"nonpayable"},{"type":"function","name":"setMarketplaceFee","inputs":[{"name":"feeBps","type":"uint256","internalType":"uint256"}],"outputs":[],"stateMutability":"nonpayable"},{"type":"function","name":"setProtocolVersion","inputs":[{"name":"version","type":"uint256","internalType":"uint256"}],"outputs":[],"stateMutability":"nonpayable"},{"type":"function","name":"setTreasury","inputs":[{"name":"_treasury","type":"address","internalType":"address"}],"outputs":[],"stateMutability":"nonpayable"},{"type":"function","name":"supportedPaymentTokens","inputs":[{"name":"","type":"address","internalType":"address"}],"outputs":[{"name":"","type":"bool","internalType":"bool"}],"stateMutability":"view"},{"type":"function","name":"transferOwnership","inputs":[{"name":"newOwner","type":"address","internalType":"address"}],"outputs":[],"stateMutability":"nonpayable"},{"type":"function","name":"treasury","inputs":[],"outputs":[{"name":"","type":"address","internalType":"address"}],"stateMutability":"view"},{"type":"function","name":"unpause","inputs":[],"outputs":[],"stateMutability":"nonpayable"},{"type":"event","name":"EmergencyModeUpdated","inputs":[{"name":"enabled","type":"bool","indexed":true,"internalType":"bool"}],"anonymous":false},{"type":"event","name":"MarketplaceFeeUpdated","inputs":[{"name":"feeBps","type":"uint256","indexed":true,"internalType":"uint256"}],"anonymous":false},{"type":"event","name":"OwnershipTransferred","inputs":[{"name":"previousOwner","type":"address","indexed":true,"internalType":"address"},{"name":"newOwner","type":"address","indexed":true,"internalType":"address"}],"anonymous":false},{"type":"event","name":"PaymentTokenUpdated","inputs":[{"name":"token","type":"address","indexed":true,"internalType":"address"},{"name":"supported","type":"bool","indexed":true,"internalType":"bool"}],"anonymous":false},{"type":"event","name":"ProtocolPaused","inputs":[{"name":"paused","type":"bool","indexed":true,"internalType":"bool"}],"anonymous":false},{"type":"event","name":"TreasuryUpdated","inputs":[{"name":"treasury","type":"address","indexed":true,"internalType":"address"}],"anonymous":false},{"type":"error","name":"InvalidAddress","inputs":[]},{"type":"error","name":"InvalidFee","inputs":[]},{"type":"error","name":"NotAuthorized","inputs":[]},{"type":"error","name":"OwnableInvalidOwner","inputs":[{"name":"owner","type":"address","internalType":"address"}]},{"type":"error","name":"OwnableUnauthorizedAccount","inputs":[{"name":"account","type":"address","internalType":"address"}]},{"type":"error","name":"TokenAlreadySupported","inputs":[]},{"type":"error","name":"TokenNotSupported","inputs":[]}],"bytecode":{"object":"0x6080604052346100305761001a610014610137565b9161030a565b610022610035565b61107c6104c5823961107c90f35b61003b565b60405190565b5f80fd5b601f801991011690565b634e487b7160e01b5f52604160045260245ffd5b906100679061003f565b810190811060018060401b0382111761007f57604052565b610049565b90610097610090610035565b928361005d565b565b5f80fd5b60018060a01b031690565b6100b19061009d565b90565b6100bd816100a8565b036100c457565b5f80fd5b905051906100d5826100b4565b565b90565b6100e3816100d7565b036100ea57565b5f80fd5b905051906100fb826100da565b565b90916060828403126101325761012f610118845f85016100c8565b9361012681602086016100ee565b936040016100ee565b90565b610099565b6101556115418038038061014a81610084565b9283398101906100fd565b909192565b90565b90565b61017461016f6101799261015a565b61015d565b61009d565b90565b61018590610160565b90565b5f0190565b90565b6101a461019f6101a99261018d565b61015d565b6100d7565b90565b5f1b90565b906101c260018060a01b03916101ac565b9181191691161790565b6101e06101db6101e59261009d565b61015d565b61009d565b90565b6101f1906101cc565b90565b6101fd906101e8565b90565b90565b9061021861021361021f926101f4565b610200565b82546101b1565b9055565b9061022f5f19916101ac565b9181191691161790565b61024d610248610252926100d7565b61015d565b6100d7565b90565b90565b9061026d61026861027492610239565b610255565b8254610223565b9055565b60a81b90565b9061028d60ff60a81b91610278565b9181191691161790565b151590565b6102a590610297565b90565b90565b906102c06102bb6102c79261029c565b6102a8565b825461027e565b9055565b60a01b90565b906102e060ff60a01b916102cb565b9181191691161790565b906102ff6102fa6103069261029c565b6102a8565b82546102d1565b9055565b919091610316336103e2565b8061033161032b6103265f61017c565b6100a8565b916100a8565b146103a4578261034b610345612710610190565b916100d7565b116103885761037092610362610369926003610203565b6001610258565b6002610258565b61037b5f60036102ab565b6103865f60036102ea565b565b5f6358d620b360e01b8152806103a060048201610188565b0390fd5b5f63e6c4247b60e01b8152806103bc60048201610188565b0390fd5b6103c9906100a8565b9052565b91906103e0905f602085019401906103c0565b565b806103fd6103f76103f25f61017c565b6100a8565b916100a8565b1461040d5761040b90610465565b565b6104306104195f61017c565b5f918291631e4fbdf760e01b8352600483016103cd565b0390fd5b5f1c90565b60018060a01b031690565b61045061045591610434565b610439565b90565b6104629054610444565b90565b61046e5f610458565b610478825f610203565b906104ac6104a67f8be0079c531659141344cd1fd0a4f28419497f9722a3daafe3b4186f6b6457e0936101f4565b916101f4565b916104b5610035565b806104bf81610188565b0390a356fe60806040526004361015610013575b6107d4565b61001d5f3561014c565b80630905f560146101475780631da664e8146101425780632ae9c6001461013d5780633f4ba83a146101385780635c975abb1461013357806361d027b31461012e578063715018a6146101295780638456cb59146101245780638da5cb5b1461011f5780639407ea981461011a578063b1c5578c14610115578063b867cf0b14610110578063be32b3f81461010b578063ceba559814610106578063d3929c8a14610101578063ed45e0b2146100fc578063f0f44260146100f7578063f2136b83146100f25763f2fde38b0361000e576107a1565b61076c565b610739565b610706565b6106d1565b61068f565b61065c565b6105e8565b6105b3565b61051a565b6104a4565b610471565b61043e565b610409565b610372565b61032f565b6102f5565b610263565b6101d6565b60e01c90565b60405190565b5f80fd5b5f80fd5b5f91031261016a57565b61015c565b1c90565b60ff1690565b61018990600861018e930261016f565b610173565b90565b9061019c9154610179565b90565b6101ac6003601490610191565b90565b151590565b6101bd906101af565b9052565b91906101d4905f602085019401906101b4565b565b34610206576101e6366004610160565b6102026101f161019f565b6101f9610152565b918291826101c1565b0390f35b610158565b60018060a01b031690565b61021f9061020b565b90565b61022b81610216565b0361023257565b5f80fd5b9050359061024382610222565b565b9060208282031261025e5761025b915f01610236565b90565b61015c565b346102935761028f61027e610279366004610245565b610802565b610286610152565b918291826101c1565b0390f35b610158565b90565b6102ab9060086102b0930261016f565b610298565b90565b906102be915461029b565b90565b6102cd60025f906102b3565b90565b90565b6102dc906102d0565b9052565b91906102f3905f602085019401906102d3565b565b3461032557610305366004610160565b6103216103106102c1565b610318610152565b918291826102e0565b0390f35b610158565b5f0190565b3461035d5761033f366004610160565b6103476108cf565b61034f610152565b806103598161032a565b0390f35b610158565b61036f6003601590610191565b90565b346103a257610382366004610160565b61039e61038d610362565b610395610152565b918291826101c1565b0390f35b610158565b60018060a01b031690565b6103c29060086103c7930261016f565b6103a7565b90565b906103d591546103b2565b90565b6103e460035f906103ca565b90565b6103f090610216565b9052565b9190610407905f602085019401906103e7565b565b3461043957610419366004610160565b6104356104246103d8565b61042c610152565b918291826103f4565b0390f35b610158565b3461046c5761044e366004610160565b610456610929565b61045e610152565b806104688161032a565b0390f35b610158565b3461049f57610481366004610160565b610489610995565b610491610152565b8061049b8161032a565b0390f35b610158565b346104d4576104b4366004610160565b6104d06104bf6109c4565b6104c7610152565b918291826103f4565b0390f35b610158565b6104e2816102d0565b036104e957565b5f80fd5b905035906104fa826104d9565b565b9060208282031261051557610512915f016104ed565b90565b61015c565b346105485761053261052d3660046104fc565b610ae8565b61053a610152565b806105448161032a565b0390f35b610158565b90565b61056461055f6105699261020b565b61054d565b61020b565b90565b61057590610550565b90565b6105819061056c565b90565b9061058e90610578565b5f5260205260405f2090565b6105b0906105ab6004915f92610584565b610191565b90565b346105e3576105df6105ce6105c9366004610245565b61059a565b6105d6610152565b918291826101c1565b0390f35b610158565b34610616576106006105fb366004610245565b610bda565b610608610152565b806106128161032a565b0390f35b610158565b610624816101af565b0361062b57565b5f80fd5b9050359061063c8261061b565b565b9060208282031261065757610654915f0161062f565b90565b61015c565b3461068a5761067461066f36600461063e565b610c84565b61067c610152565b806106868161032a565b0390f35b610158565b346106bd576106a76106a23660046104fc565b610caf565b6106af610152565b806106b98161032a565b0390f35b610158565b6106ce60015f906102b3565b90565b34610701576106e1366004610160565b6106fd6106ec6106c2565b6106f4610152565b918291826102e0565b0390f35b610158565b346107345761071e610719366004610245565b610da0565b610726610152565b806107308161032a565b0390f35b610158565b346107675761075161074c366004610245565b610e85565b610759610152565b806107638161032a565b0390f35b610158565b3461079c5761077c366004610160565b610798610787610ede565b61078f610152565b918291826101c1565b0390f35b610158565b346107cf576107b96107b4366004610245565b610f81565b6107c1610152565b806107cb8161032a565b0390f35b610158565b5f80fd5b5f90565b5f1c90565b6107ed6107f2916107dc565b610173565b90565b6107ff90546107e1565b90565b61081961081e916108116107d8565b506004610584565b6107f5565b90565b610829610f8c565b610831610881565b565b60a81b90565b9061084860ff60a81b91610833565b9181191691161790565b61085b906101af565b90565b90565b9061087661087161087d92610852565b61085e565b8254610839565b9055565b61088c5f6003610861565b5f6108b77f6e0cb5fa7a57c38eb7939c1104f95fccb5b7a6a8c1a7cab76934305439b639f591610852565b906108c0610152565b806108ca8161032a565b0390a2565b6108d7610821565b565b6108e1610f8c565b6108e9610916565b565b90565b6109026108fd610907926108eb565b61054d565b61020b565b90565b610913906108ee565b90565b6109276109225f61090a565b610fda565b565b6109316108d9565b565b61093b610f8c565b610943610945565b565b61095160016003610861565b600161097d7f6e0cb5fa7a57c38eb7939c1104f95fccb5b7a6a8c1a7cab76934305439b639f591610852565b90610986610152565b806109908161032a565b0390a2565b61099d610933565b565b5f90565b6109af6109b4916107dc565b6103a7565b90565b6109c190546109a3565b90565b6109cc61099f565b506109d65f6109b7565b90565b6109ea906109e5610f8c565b610a65565b565b90565b610a036109fe610a08926109ec565b61054d565b6102d0565b90565b5f1b90565b90610a1c5f1991610a0b565b9181191691161790565b610a3a610a35610a3f926102d0565b61054d565b6102d0565b90565b90565b90610a5a610a55610a6192610a26565b610a42565b8254610a10565b9055565b80610a7a610a746127106109ef565b916102d0565b11610acc57610a8a816001610a45565b610ab47fe18aa129833f655a8166b6185277fee7a53f67e46fd32329bc2fc2ac21274d5591610a26565b90610abd610152565b80610ac78161032a565b0390a2565b5f6358d620b360e01b815280610ae46004820161032a565b0390fd5b610af1906109d9565b565b610b0490610aff610f8c565b610b3c565b565b90610b1260ff91610a0b565b9181191691161790565b90610b31610b2c610b3892610852565b61085e565b8254610b06565b9055565b610b59610b53610b4e60048490610584565b6107f5565b156101af565b610bbe57610b725f610b6d60048490610584565b610b1c565b5f610ba6610ba07f19c6e2fbd27c3204efb106f0081d2d7ffaf44da224ca04fbc0d8a262ba40f55593610578565b91610852565b91610baf610152565b80610bb98161032a565b0390a3565b5f633dd1b30560e01b815280610bd66004820161032a565b0390fd5b610be390610af3565b565b610bf690610bf1610f8c565b610c37565b565b60a01b90565b90610c0d60ff60a01b91610bf8565b9181191691161790565b90610c2c610c27610c3392610852565b61085e565b8254610bfe565b9055565b610c42816003610c17565b610c6c7f2e5a1930def2f974808cd3dd28f6606d8d2cb5d7adb78f6761ea31062ced1a3391610852565b90610c75610152565b80610c7f8161032a565b0390a2565b610c8d90610be5565b565b610ca090610c9b610f8c565b610ca2565b565b610cad906002610a45565b565b610cb890610c8f565b565b610ccb90610cc6610f8c565b610ccd565b565b80610ce8610ce2610cdd5f61090a565b610216565b91610216565b14610d8457610d01610cfc60048390610584565b6107f5565b610d6857610d1b6001610d1660048490610584565b610b1c565b6001610d50610d4a7f19c6e2fbd27c3204efb106f0081d2d7ffaf44da224ca04fbc0d8a262ba40f55593610578565b91610852565b91610d59610152565b80610d638161032a565b0390a3565b5f63c78e82ad60e01b815280610d806004820161032a565b0390fd5b5f63e6c4247b60e01b815280610d9c6004820161032a565b0390fd5b610da990610cba565b565b610dbc90610db7610f8c565b610dfc565b565b90610dcf60018060a01b0391610a0b565b9181191691161790565b90565b90610df1610dec610df892610578565b610dd9565b8254610dbe565b9055565b80610e17610e11610e0c5f61090a565b610216565b91610216565b14610e6957610e27816003610ddc565b610e517f7dae230f18360d76a040c81f050aa14eb9d6dc7901b20fc5d855e2a20fe814d191610578565b90610e5a610152565b80610e648161032a565b0390a2565b5f63e6c4247b60e01b815280610e816004820161032a565b0390fd5b610e8e90610dab565b565b60a81c90565b610ea2610ea791610e90565b610173565b90565b610eb49054610e96565b90565b60a01c90565b610ec9610ece91610eb7565b610173565b90565b610edb9054610ebd565b90565b610ee66107d8565b50610efa610ef46003610eaa565b156101af565b80610f03575b90565b50610f17610f116003610ed1565b156101af565b610f00565b610f2d90610f28610f8c565b610f2f565b565b80610f4a610f44610f3f5f61090a565b610216565b91610216565b14610f5a57610f5890610fda565b565b610f7d610f665f61090a565b5f918291631e4fbdf760e01b8352600483016103f4565b0390fd5b610f8a90610f1c565b565b610f946109c4565b610fad610fa7610fa2611039565b610216565b91610216565b03610fb457565b610fd6610fbf611039565b5f91829163118cdaa760e01b8352600483016103f4565b0390fd5b610fe35f6109b7565b610fed825f610ddc565b9061102161101b7f8be0079c531659141344cd1fd0a4f28419497f9722a3daafe3b4186f6b6457e093610578565b91610578565b9161102a610152565b806110348161032a565b0390a3565b61104161099f565b50339056fea2646970667358221220b96d8f9f3e862aabd2a40660d02224f666361a16b5902cf39e17b9db38560b6464736f6c63430008210033","linkReferences":{}},"methodIdentifiers":{"addSupportedPaymentToken(address)":"ed45e0b2","emergencyMode()":"0905f560","isPaymentTokenSupported(address)":"1da664e8","isProtocolOperational()":"f2136b83","marketplaceFeeBps()":"d3929c8a","owner()":"8da5cb5b","pause()":"8456cb59","paused()":"5c975abb","protocolVersion()":"2ae9c600","removeSupportedPaymentToken(address)":"b867cf0b","renounceOwnership()":"715018a6","setEmergencyMode(bool)":"be32b3f8","setMarketplaceFee(uint256)":"9407ea98","setProtocolVersion(uint256)":"ceba5598","setTreasury(address)":"f0f44260","supportedPaymentTokens(address)":"b1c5578c","transferOwnership(address)":"f2fde38b","treasury()":"61d027b3","unpause()":"3f4ba83a"},"id":27}