{"abi":[{"type":"constructor","inputs":[{"name":"_treasury","type":"address","internalType":"address"},{"name":"_marketplaceFeeBps","type":"uint256","internalType":"uint256"},{"name":"_protocolVersion","type":"uint256","internalType":"uint256"}],"stateMutability":"nonpayable"},{"type":"function","name":"addSupportedPaymentToken","inputs":[{"name":"token","type":"address","internalType":"address"}],"outputs":[],"stateMutability":"nonpayable"},{"type":"function","name":"emergencyMode","inputs":[],"outputs":[{"name":"","type":"bool","internalType":"bool"}],"stateMutability":"view"},{"type":"function","name":"isPaymentTokenSupported","inputs":[{"name":"token","type":"address","internalType":"address"}],"outputs":[{"name":"","type":"bool","internalType":"bool"}],"stateMutability":"view"},{"type":"function","name":"isProtocolOperational","inputs":[],"outputs":[{"name":"","type":"bool","internalType":"bool"}],"stateMutability":"view"},{"type":"function","name":"marketplaceFeeBps","inputs":[],"outputs":[{"name":"","type":"uint256","internalType":"uint256"}],"stateMutability":"view"},{"type":"function","name":"owner","inputs":[],"outputs":[{"name":"","type":"address","internalType":"address"}],"stateMutability":"view"},{"type":"function","name":"pause","inputs":[],"outputs":[],"stateMutability":"nonpayable"},{"type":"function","name":"paused","inputs":[],"outputs":[{"name":"","type":"bool","internalType":"bool"}],"stateMutability":"view"},{"type":"function","name":"protocolVersion","inputs":[],"outputs":[{"name":"","type":"uint256","internalType":"uint256"}],"stateMutability":"view"},{"type":"function","name":"removeSupportedPaymentToken","inputs":[{"name":"token","type":"address","internalType":"address"}],"outputs":[],"stateMutability":"nonpayable"},{"type":"function","name":"renounceOwnership","inputs":[],"outputs":[],"stateMutability":"nonpayable"},{"type":"function","name":"setEmergencyMode","inputs":[{"name":"enabled","type":"bool","internalType":"bool"}],"outputs":[],"stateMutability":"nonpayable"},{"type":"function","name":"setMarketplaceFee","inputs":[{"name":"feeBps","type":"uint256","internalType":"uint256"}],"outputs":[],"stateMutability":"nonpayable"},{"type":"function","name":"setProtocolVersion","inputs":[{"name":"version","type":"uint256","internalType":"uint256"}],"outputs":[],"stateMutability":"nonpayable"},{"type":"function","name":"setTreasury","inputs":[{"name":"_treasury","type":"address","internalType":"address"}],"outputs":[],"stateMutability":"nonpayable"},{"type":"function","name":"supportedPaymentTokens","inputs":[{"name":"","type":"address","internalType":"address"}],"outputs":[{"name":"","type":"bool","internalType":"bool"}],"stateMutability":"view"},{"type":"function","name":"transferOwnership","inputs":[{"name":"newOwner","type":"address","internalType":"address"}],"outputs":[],"stateMutability":"nonpayable"},{"type":"function","name":"treasury","inputs":[],"outputs":[{"name":"","type":"address","internalType":"address"}],"stateMutability":"view"},{"type":"function","name":"unpause","inputs":[],"outputs":[],"stateMutability":"nonpayable"},{"type":"event","name":"EmergencyModeUpdated","inputs":[{"name":"enabled","type":"bool","indexed":true,"internalType":"bool"}],"anonymous":false},{"type":"event","name":"MarketplaceFeeUpdated","inputs":[{"name":"feeBps","type":"uint256","indexed":true,"internalType":"uint256"}],"anonymous":false},{"type":"event","name":"OwnershipTransferred","inputs":[{"name":"previousOwner","type":"address","indexed":true,"internalType":"address"},{"name":"newOwner","type":"address","indexed":true,"internalType":"address"}],"anonymous":false},{"type":"event","name":"PaymentTokenUpdated","inputs":[{"name":"token","type":"address","indexed":true,"internalType":"address"},{"name":"supported","type":"bool","indexed":true,"internalType":"bool"}],"anonymous":false},{"type":"event","name":"ProtocolPaused","inputs":[{"name":"paused","type":"bool","indexed":true,"internalType":"bool"}],"anonymous":false},{"type":"event","name":"TreasuryUpdated","inputs":[{"name":"treasury","type":"address","indexed":true,"internalType":"address"}],"anonymous":false},{"type":"error","name":"InvalidAddress","inputs":[]},{"type":"error","name":"InvalidFee","inputs":[]},{"type":"error","name":"NotAuthorized","inputs":[]},{"type":"error","name":"OwnableInvalidOwner","inputs":[{"name":"owner","type":"address","internalType":"address"}]},{"type":"error","name":"OwnableUnauthorizedAccount","inputs":[{"name":"account","type":"address","internalType":"address"}]},{"type":"error","name":"TokenAlreadySupported","inputs":[]},{"type":"error","name":"TokenNotSupported","inputs":[]}],"bytecode":{"object":"0x608060405234801561000f575f5ffd5b506040516111113803806111118339818101604052810190610031919061032f565b335f73ffffffffffffffffffffffffffffffffffffffff168173ffffffffffffffffffffffffffffffffffffffff16036100a2575f6040517f1e4fbdf7000000000000000000000000000000000000000000000000000000008152600401610099919061038e565b60405180910390fd5b6100b1816101dd60201b60201c565b505f73ffffffffffffffffffffffffffffffffffffffff168373ffffffffffffffffffffffffffffffffffffffff1603610117576040517fe6c4247b00000000000000000000000000000000000000000000000000000000815260040160405180910390fd5b612710821115610153576040517f58d620b300000000000000000000000000000000000000000000000000000000815260040160405180910390fd5b8260035f6101000a81548173ffffffffffffffffffffffffffffffffffffffff021916908373ffffffffffffffffffffffffffffffffffffffff16021790555081600181905550806002819055505f600360156101000a81548160ff0219169083151502179055505f600360146101000a81548160ff0219169083151502179055505050506103a7565b5f5f5f9054906101000a900473ffffffffffffffffffffffffffffffffffffffff169050815f5f6101000a81548173ffffffffffffffffffffffffffffffffffffffff021916908373ffffffffffffffffffffffffffffffffffffffff1602179055508173ffffffffffffffffffffffffffffffffffffffff168173ffffffffffffffffffffffffffffffffffffffff167f8be0079c531659141344cd1fd0a4f28419497f9722a3daafe3b4186f6b6457e060405160405180910390a35050565b5f5ffd5b5f73ffffffffffffffffffffffffffffffffffffffff82169050919050565b5f6102cb826102a2565b9050919050565b6102db816102c1565b81146102e5575f5ffd5b50565b5f815190506102f6816102d2565b92915050565b5f819050919050565b61030e816102fc565b8114610318575f5ffd5b50565b5f8151905061032981610305565b92915050565b5f5f5f606084860312156103465761034561029e565b5b5f610353868287016102e8565b93505060206103648682870161031b565b92505060406103758682870161031b565b9150509250925092565b610388816102c1565b82525050565b5f6020820190506103a15f83018461037f565b92915050565b610d5d806103b45f395ff3fe608060405234801561000f575f5ffd5b506004361061011f575f3560e01c80639407ea98116100ab578063d3929c8a1161006f578063d3929c8a146102a7578063ed45e0b2146102c5578063f0f44260146102e1578063f2136b83146102fd578063f2fde38b1461031b5761011f565b80639407ea9814610207578063b1c5578c14610223578063b867cf0b14610253578063be32b3f81461026f578063ceba55981461028b5761011f565b80635c975abb116100f25780635c975abb1461019957806361d027b3146101b7578063715018a6146101d55780638456cb59146101df5780638da5cb5b146101e95761011f565b80630905f560146101235780631da664e8146101415780632ae9c600146101715780633f4ba83a1461018f575b5f5ffd5b61012b610337565b6040516101389190610b82565b60405180910390f35b61015b60048036038101906101569190610bf9565b61034a565b6040516101689190610b82565b60405180910390f35b61017961039c565b6040516101869190610c3c565b60405180910390f35b6101976103a2565b005b6101a16103f5565b6040516101ae9190610b82565b60405180910390f35b6101bf610408565b6040516101cc9190610c64565b60405180910390f35b6101dd61042d565b005b6101e7610440565b005b6101f1610495565b6040516101fe9190610c64565b60405180910390f35b610221600480360381019061021c9190610ca7565b6104bc565b005b61023d60048036038101906102389190610bf9565b610537565b60405161024a9190610b82565b60405180910390f35b61026d60048036038101906102689190610bf9565b610554565b005b61028960048036038101906102849190610cfc565b610679565b005b6102a560048036038101906102a09190610ca7565b6106cd565b005b6102af6106df565b6040516102bc9190610c3c565b60405180910390f35b6102df60048036038101906102da9190610bf9565b6106e5565b005b6102fb60048036038101906102f69190610bf9565b610872565b005b610305610965565b6040516103129190610b82565b60405180910390f35b61033560048036038101906103309190610bf9565b610995565b005b600360149054906101000a900460ff1681565b5f60045f8373ffffffffffffffffffffffffffffffffffffffff1673ffffffffffffffffffffffffffffffffffffffff1681526020019081526020015f205f9054906101000a900460ff169050919050565b60025481565b6103aa610a19565b5f600360156101000a81548160ff0219169083151502179055505f15157f6e0cb5fa7a57c38eb7939c1104f95fccb5b7a6a8c1a7cab76934305439b639f560405160405180910390a2565b600360159054906101000a900460ff1681565b60035f9054906101000a900473ffffffffffffffffffffffffffffffffffffffff1681565b610435610a19565b61043e5f610aa0565b565b610448610a19565b6001600360156101000a81548160ff021916908315150217905550600115157f6e0cb5fa7a57c38eb7939c1104f95fccb5b7a6a8c1a7cab76934305439b639f560405160405180910390a2565b5f5f5f9054906101000a900473ffffffffffffffffffffffffffffffffffffffff16905090565b6104c4610a19565b612710811115610500576040517f58d620b300000000000000000000000000000000000000000000000000000000815260040160405180910390fd5b80600181905550807fe18aa129833f655a8166b6185277fee7a53f67e46fd32329bc2fc2ac21274d5560405160405180910390a250565b6004602052805f5260405f205f915054906101000a900460ff1681565b61055c610a19565b60045f8273ffffffffffffffffffffffffffffffffffffffff1673ffffffffffffffffffffffffffffffffffffffff1681526020019081526020015f205f9054906101000a900460ff166105dc576040517f3dd1b30500000000000000000000000000000000000000000000000000000000815260040160405180910390fd5b5f60045f8373ffffffffffffffffffffffffffffffffffffffff1673ffffffffffffffffffffffffffffffffffffffff1681526020019081526020015f205f6101000a81548160ff0219169083151502179055505f15158173ffffffffffffffffffffffffffffffffffffffff167f19c6e2fbd27c3204efb106f0081d2d7ffaf44da224ca04fbc0d8a262ba40f55560405160405180910390a350565b610681610a19565b80600360146101000a81548160ff0219169083151502179055508015157f2e5a1930def2f974808cd3dd28f6606d8d2cb5d7adb78f6761ea31062ced1a3360405160405180910390a250565b6106d5610a19565b8060028190555050565b60015481565b6106ed610a19565b5f73ffffffffffffffffffffffffffffffffffffffff168173ffffffffffffffffffffffffffffffffffffffff1603610752576040517fe6c4247b00000000000000000000000000000000000000000000000000000000815260040160405180910390fd5b60045f8273ffffffffffffffffffffffffffffffffffffffff1673ffffffffffffffffffffffffffffffffffffffff1681526020019081526020015f205f9054906101000a900460ff16156107d3576040517fc78e82ad00000000000000000000000000000000000000000000000000000000815260040160405180910390fd5b600160045f8373ffffffffffffffffffffffffffffffffffffffff1673ffffffffffffffffffffffffffffffffffffffff1681526020019081526020015f205f6101000a81548160ff021916908315150217905550600115158173ffffffffffffffffffffffffffffffffffffffff167f19c6e2fbd27c3204efb106f0081d2d7ffaf44da224ca04fbc0d8a262ba40f55560405160405180910390a350565b61087a610a19565b5f73ffffffffffffffffffffffffffffffffffffffff168173ffffffffffffffffffffffffffffffffffffffff16036108df576040517fe6c4247b00000000000000000000000000000000000000000000000000000000815260040160405180910390fd5b8060035f6101000a81548173ffffffffffffffffffffffffffffffffffffffff021916908373ffffffffffffffffffffffffffffffffffffffff1602179055508073ffffffffffffffffffffffffffffffffffffffff167f7dae230f18360d76a040c81f050aa14eb9d6dc7901b20fc5d855e2a20fe814d160405160405180910390a250565b5f600360159054906101000a900460ff161580156109905750600360149054906101000a900460ff16155b905090565b61099d610a19565b5f73ffffffffffffffffffffffffffffffffffffffff168173ffffffffffffffffffffffffffffffffffffffff1603610a0d575f6040517f1e4fbdf7000000000000000000000000000000000000000000000000000000008152600401610a049190610c64565b60405180910390fd5b610a1681610aa0565b50565b610a21610b61565b73ffffffffffffffffffffffffffffffffffffffff16610a3f610495565b73ffffffffffffffffffffffffffffffffffffffff1614610a9e57610a62610b61565b6040517f118cdaa7000000000000000000000000000000000000000000000000000000008152600401610a959190610c64565b60405180910390fd5b565b5f5f5f9054906101000a900473ffffffffffffffffffffffffffffffffffffffff169050815f5f6101000a81548173ffffffffffffffffffffffffffffffffffffffff021916908373ffffffffffffffffffffffffffffffffffffffff1602179055508173ffffffffffffffffffffffffffffffffffffffff168173ffffffffffffffffffffffffffffffffffffffff167f8be0079c531659141344cd1fd0a4f28419497f9722a3daafe3b4186f6b6457e060405160405180910390a35050565b5f33905090565b5f8115159050919050565b610b7c81610b68565b82525050565b5f602082019050610b955f830184610b73565b92915050565b5f5ffd5b5f73ffffffffffffffffffffffffffffffffffffffff82169050919050565b5f610bc882610b9f565b9050919050565b610bd881610bbe565b8114610be2575f5ffd5b50565b5f81359050610bf381610bcf565b92915050565b5f60208284031215610c0e57610c0d610b9b565b5b5f610c1b84828501610be5565b91505092915050565b5f819050919050565b610c3681610c24565b82525050565b5f602082019050610c4f5f830184610c2d565b92915050565b610c5e81610bbe565b82525050565b5f602082019050610c775f830184610c55565b92915050565b610c8681610c24565b8114610c90575f5ffd5b50565b5f81359050610ca181610c7d565b92915050565b5f60208284031215610cbc57610cbb610b9b565b5b5f610cc984828501610c93565b91505092915050565b610cdb81610b68565b8114610ce5575f5ffd5b50565b5f81359050610cf681610cd2565b92915050565b5f60208284031215610d1157610d10610b9b565b5b5f610d1e84828501610ce8565b9150509291505056fea2646970667358221220ab84b553ce914075af7a3f07aa28aec1b17fca1c7a5b4319e0b7585b2f69620564736f6c63430008210033","linkReferences":{}},"methodIdentifiers":{"addSupportedPaymentToken(address)":"ed45e0b2","emergencyMode()":"0905f560","isPaymentTokenSupported(address)":"1da664e8","isProtocolOperational()":"f2136b83","marketplaceFeeBps()":"d3929c8a","owner()":"8da5cb5b","pause()":"8456cb59","paused()":"5c975abb","protocolVersion()":"2ae9c600","removeSupportedPaymentToken(address)":"b867cf0b","renounceOwnership()":"715018a6","setEmergencyMode(bool)":"be32b3f8","setMarketplaceFee(uint256)":"9407ea98","setProtocolVersion(uint256)":"ceba5598","setTreasury(address)":"f0f44260","supportedPaymentTokens(address)":"b1c5578c","transferOwnership(address)":"f2fde38b","treasury()":"61d027b3","unpause()":"3f4ba83a"},"id":21}