{"abi":[{"type":"constructor","inputs":[],"stateMutability":"nonpayable"},{"type":"function","name":"AGREEMENT_ADMIN_ROLE","inputs":[],"outputs":[{"name":"","type":"bytes32","internalType":"bytes32"}],"stateMutability":"view"},{"type":"function","name":"CONFIG_ADMIN_ROLE","inputs":[],"outputs":[{"name":"","type":"bytes32","internalType":"bytes32"}],"stateMutability":"view"},{"type":"function","name":"DEFAULT_ADMIN_ROLE","inputs":[],"outputs":[{"name":"","type":"bytes32","internalType":"bytes32"}],"stateMutability":"view"},{"type":"function","name":"ESCROW_MANAGER_ROLE","inputs":[],"outputs":[{"name":"","type":"bytes32","internalType":"bytes32"}],"stateMutability":"view"},{"type":"function","name":"MARKETPLACE_ADMIN_ROLE","inputs":[],"outputs":[{"name":"","type":"bytes32","internalType":"bytes32"}],"stateMutability":"view"},{"type":"function","name":"PAUSER_ROLE","inputs":[],"outputs":[{"name":"","type":"bytes32","internalType":"bytes32"}],"stateMutability":"view"},{"type":"function","name":"REGISTRY_ADMIN_ROLE","inputs":[],"outputs":[{"name":"","type":"bytes32","internalType":"bytes32"}],"stateMutability":"view"},{"type":"function","name":"TREASURY_ADMIN_ROLE","inputs":[],"outputs":[{"name":"","type":"bytes32","internalType":"bytes32"}],"stateMutability":"view"},{"type":"function","name":"getRoleAdmin","inputs":[{"name":"role","type":"bytes32","internalType":"bytes32"}],"outputs":[{"name":"","type":"bytes32","internalType":"bytes32"}],"stateMutability":"view"},{"type":"function","name":"grantPauseRole","inputs":[{"name":"account","type":"address","internalType":"address"}],"outputs":[],"stateMutability":"nonpayable"},{"type":"function","name":"grantRole","inputs":[{"name":"role","type":"bytes32","internalType":"bytes32"},{"name":"account","type":"address","internalType":"address"}],"outputs":[],"stateMutability":"nonpayable"},{"type":"function","name":"hasRole","inputs":[{"name":"role","type":"bytes32","internalType":"bytes32"},{"name":"account","type":"address","internalType":"address"}],"outputs":[{"name":"","type":"bool","internalType":"bool"}],"stateMutability":"view"},{"type":"function","name":"isPaused","inputs":[],"outputs":[{"name":"","type":"bool","internalType":"bool"}],"stateMutability":"view"},{"type":"function","name":"pause","inputs":[],"outputs":[],"stateMutability":"nonpayable"},{"type":"function","name":"paused","inputs":[],"outputs":[{"name":"","type":"bool","internalType":"bool"}],"stateMutability":"view"},{"type":"function","name":"renounceRole","inputs":[{"name":"role","type":"bytes32","internalType":"bytes32"},{"name":"callerConfirmation","type":"address","internalType":"address"}],"outputs":[],"stateMutability":"nonpayable"},{"type":"function","name":"revokePauseRole","inputs":[{"name":"account","type":"address","internalType":"address"}],"outputs":[],"stateMutability":"nonpayable"},{"type":"function","name":"revokeRole","inputs":[{"name":"role","type":"bytes32","internalType":"bytes32"},{"name":"account","type":"address","internalType":"address"}],"outputs":[],"stateMutability":"nonpayable"},{"type":"function","name":"supportsInterface","inputs":[{"name":"interfaceId","type":"bytes4","internalType":"bytes4"}],"outputs":[{"name":"","type":"bool","internalType":"bool"}],"stateMutability":"view"},{"type":"function","name":"unpause","inputs":[],"outputs":[],"stateMutability":"nonpayable"},{"type":"event","name":"Paused","inputs":[{"name":"account","type":"address","indexed":false,"internalType":"address"}],"anonymous":false},{"type":"event","name":"RoleAdminChanged","inputs":[{"name":"role","type":"bytes32","indexed":true,"internalType":"bytes32"},{"name":"previousAdminRole","type":"bytes32","indexed":true,"internalType":"bytes32"},{"name":"newAdminRole","type":"bytes32","indexed":true,"internalType":"bytes32"}],"anonymous":false},{"type":"event","name":"RoleGranted","inputs":[{"name":"role","type":"bytes32","indexed":true,"internalType":"bytes32"},{"name":"account","type":"address","indexed":true,"internalType":"address"},{"name":"sender","type":"address","indexed":true,"internalType":"address"}],"anonymous":false},{"type":"event","name":"RoleRevoked","inputs":[{"name":"role","type":"bytes32","indexed":true,"internalType":"bytes32"},{"name":"account","type":"address","indexed":true,"internalType":"address"},{"name":"sender","type":"address","indexed":true,"internalType":"address"}],"anonymous":false},{"type":"event","name":"Unpaused","inputs":[{"name":"account","type":"address","indexed":false,"internalType":"address"}],"anonymous":false},{"type":"error","name":"AccessControlBadConfirmation","inputs":[]},{"type":"error","name":"AccessControlUnauthorizedAccount","inputs":[{"name":"account","type":"address","internalType":"address"},{"name":"neededRole","type":"bytes32","internalType":"bytes32"}]},{"type":"error","name":"EnforcedPause","inputs":[]},{"type":"error","name":"ExpectedPause","inputs":[]}],"bytecode":{"object":"0x6080604052346100275761001161008d565b61001961002c565b610f456102948239610f4590f35b610032565b60405190565b5f80fd5b90565b90565b5f1b90565b61005561005061005a92610036565b61003c565b610039565b90565b6100665f610041565b90565b7f65d7a28e3265b37a6474929f336521b332c1681b933f6cb9f3376673440d862a90565b61009f61009861005d565b3390610182565b506100b26100ab610069565b3390610182565b50565b5f90565b151590565b6100c790610039565b90565b906100d4906100be565b5f5260205260405f2090565b60018060a01b031690565b90565b6101026100fd610107926100e0565b6100eb565b6100e0565b90565b610113906100ee565b90565b61011f9061010a565b90565b9061012c90610116565b5f5260205260405f2090565b9061014460ff9161003c565b9181191691161790565b610157906100b9565b90565b90565b9061017261016d6101799261014e565b61015a565b8254610138565b9055565b5f0190565b61018a6100b5565b5061019f610199828490610259565b156100b9565b5f14610227576101c660016101c15f6101b98186906100ca565b018590610122565b61015d565b906101cf610286565b9061020c6102066102007f2f8788117e7eff1d82e926ec794901d17c78024a50270940304540a733656f0d956100be565b92610116565b92610116565b9261021561002c565b8061021f8161017d565b0390a4600190565b50505f90565b5f1c90565b60ff1690565b6102446102499161022d565b610232565b90565b6102569054610238565b90565b61027f915f61027461027a9361026d6100b5565b50826100ca565b01610122565b61024c565b90565b5f90565b61028e610282565b50339056fe60806040526004361015610013575b610881565b61001d5f3561015c565b806301ffc9a7146101575780630d109070146101525780631e5238bd1461014d578063248a9ca3146101485780632f2ff15d1461014357806336568abe1461013e5780633f4ba83a146101395780635c975abb146101345780638456cb591461012f57806391d148541461012a57806392b6a94814610125578063a217fddf14610120578063b187bd261461011b578063b2a4eea014610116578063bf584c4b14610111578063c38a337f1461010c578063c78ef28c14610107578063d547741f14610102578063e63ab1e9146100fd5763ee7b24760361000e5761084e565b610819565b6107b6565b610781565b61071d565b6106b9565b610655565b6105f1565b6105bc565b61054e565b6104fa565b6104c7565b610492565b61045f565b61042b565b6103f7565b610356565b6102e0565b61027c565b6101e4565b60e01c90565b60405190565b5f80fd5b5f80fd5b63ffffffff60e01b1690565b61018581610170565b0361018c57565b5f80fd5b9050359061019d8261017c565b565b906020828203126101b8576101b5915f01610190565b90565b61016c565b151590565b6101cb906101bd565b9052565b91906101e2905f602085019401906101c2565b565b34610214576102106101ff6101fa36600461019f565b610889565b610207610162565b918291826101cf565b0390f35b610168565b5f91031261022357565b61016c565b7f4ba1c0b393f1850d2175b0f2d7c2d42c3f898b0037de3434dbcee26a67c6df6690565b610254610228565b90565b90565b61026390610257565b9052565b919061027a905f6020850194019061025a565b565b346102ac5761028c366004610219565b6102a861029761024c565b61029f610162565b91829182610267565b0390f35b610168565b7fea6a6ac60158b17605be2a846cb00f21be4b4bb9921f4bd5846baa97af08148d90565b6102dd6102b1565b90565b34610310576102f0366004610219565b61030c6102fb6102d5565b610303610162565b91829182610267565b0390f35b610168565b61031e81610257565b0361032557565b5f80fd5b9050359061033682610315565b565b906020828203126103515761034e915f01610329565b90565b61016c565b346103865761038261037161036c366004610338565b610918565b610379610162565b91829182610267565b0390f35b610168565b60018060a01b031690565b61039f9061038b565b90565b6103ab81610396565b036103b257565b5f80fd5b905035906103c3826103a2565b565b91906040838203126103ed57806103e16103ea925f8601610329565b936020016103b6565b90565b61016c565b5f0190565b346104265761041061040a3660046103c5565b90610963565b610418610162565b80610422816103f2565b0390f35b610168565b3461045a5761044461043e3660046103c5565b9061096f565b61044c610162565b80610456816103f2565b0390f35b610168565b3461048d5761046f366004610219565b6104776109db565b61047f610162565b80610489816103f2565b0390f35b610168565b346104c2576104a2366004610219565b6104be6104ad610a0c565b6104b5610162565b918291826101cf565b0390f35b610168565b346104f5576104d7366004610219565b6104df610a46565b6104e7610162565b806104f1816103f2565b0390f35b610168565b3461052b576105276105166105103660046103c5565b90610a9d565b61051e610162565b918291826101cf565b0390f35b610168565b9060208282031261054957610546915f016103b6565b90565b61016c565b3461057c57610566610561366004610530565b610af4565b61056e610162565b80610578816103f2565b0390f35b610168565b90565b5f1b90565b61059d6105986105a292610581565b610584565b610257565b90565b6105ae5f610589565b90565b6105b96105a5565b90565b346105ec576105cc366004610219565b6105e86105d76105b1565b6105df610162565b91829182610267565b0390f35b610168565b3461062157610601366004610219565b61061d61060c610aff565b610614610162565b918291826101cf565b0390f35b610168565b7f4e9617a5e2ee64b49ea666eb545a00a6f26df1c8ca519835eb93aac8d788949290565b610652610626565b90565b3461068557610665366004610219565b61068161067061064a565b610678610162565b91829182610267565b0390f35b610168565b7fbb28eb1a0cfabcecf96003fab466159bc2e051e49d79baf049890044e907244090565b6106b661068a565b90565b346106e9576106c9366004610219565b6106e56106d46106ae565b6106dc610162565b91829182610267565b0390f35b610168565b7f3b2a61e18f61be1272a467c8cbf17c05fd965ec69fdf24c3f07f078a6071aeea90565b61071a6106ee565b90565b3461074d5761072d366004610219565b610749610738610712565b610740610162565b91829182610267565b0390f35b610168565b7fb92d52e77ebaa0cae5c23e882d85609efbcb44029214147dd132daf9ef1018af90565b61077e610752565b90565b346107b157610791366004610219565b6107ad61079c610776565b6107a4610162565b91829182610267565b0390f35b610168565b346107e5576107cf6107c93660046103c5565b90610b3d565b6107d7610162565b806107e1816103f2565b0390f35b610168565b7f65d7a28e3265b37a6474929f336521b332c1681b933f6cb9f3376673440d862a90565b6108166107ea565b90565b3461084957610829366004610219565b61084561083461080e565b61083c610162565b91829182610267565b0390f35b610168565b3461087c57610866610861366004610530565b610b77565b61086e610162565b80610878816103f2565b0390f35b610168565b5f80fd5b5f90565b610891610885565b50806108ac6108a6637965db0b60e01b610170565b91610170565b149081156108b9575b5090565b6108c39150610b82565b5f6108b5565b5f90565b6108d690610257565b90565b906108e3906108cd565b5f5260205260405f2090565b5f1c90565b90565b610903610908916108ef565b6108f4565b90565b61091590546108f7565b90565b6001610930610936926109296108c9565b505f6108d9565b0161090b565b90565b906109549161094f61094a82610918565b610ba8565b610956565b565b9061096091610c01565b50565b9061096d91610939565b565b908061098a61098461097f610cb0565b610396565b91610396565b0361099b5761099891610cbd565b50565b5f63334bd91960e11b8152806109b3600482016103f2565b0390fd5b6109c76109c26107ea565b610ba8565b6109cf6109d1565b565b6109d9610de0565b565b6109e36109b7565b565b60ff1690565b6109f76109fc916108ef565b6109e5565b90565b610a0990546109eb565b90565b610a14610885565b50610a1f60016109ff565b90565b610a32610a2d6107ea565b610ba8565b610a3a610a3c565b565b610a44610e4a565b565b610a4e610a22565b565b90565b610a67610a62610a6c9261038b565b610a50565b61038b565b90565b610a7890610a53565b90565b610a8490610a6f565b90565b90610a9190610a7b565b5f5260205260405f2090565b610ac3915f610ab8610abe93610ab1610885565b50826108d9565b01610a87565b6109ff565b90565b610adf90610ada610ad56105a5565b610ba8565b610ae1565b565b610af290610aed6107ea565b610963565b565b610afd90610ac6565b565b610b07610885565b50610b10610a0c565b90565b90610b2e91610b29610b2482610918565b610ba8565b610b30565b565b90610b3a91610cbd565b50565b90610b4791610b13565b565b610b6290610b5d610b586105a5565b610ba8565b610b64565b565b610b7590610b706107ea565b610b3d565b565b610b8090610b49565b565b610b8a610885565b50610ba4610b9e6301ffc9a760e01b610170565b91610170565b1490565b610bba90610bb4610cb0565b90610e77565b565b90610bc860ff91610584565b9181191691161790565b610bdb906101bd565b90565b90565b90610bf6610bf1610bfd92610bd2565b610bde565b8254610bbc565b9055565b610c09610885565b50610c1e610c18828490610a9d565b156101bd565b5f14610ca657610c456001610c405f610c388186906108d9565b018590610a87565b610be1565b90610c4e610cb0565b90610c8b610c85610c7f7f2f8788117e7eff1d82e926ec794901d17c78024a50270940304540a733656f0d956108cd565b92610a7b565b92610a7b565b92610c94610162565b80610c9e816103f2565b0390a4600190565b50505f90565b5f90565b610cb8610cac565b503390565b610cc5610885565b50610cd1818390610a9d565b5f14610d5857610cf75f610cf25f610cea8186906108d9565b018590610a87565b610be1565b90610d00610cb0565b90610d3d610d37610d317ff6391f5c32d9c69d2a47ea670b442974b53935d1edc7fd64eb21e047a839171b956108cd565b92610a7b565b92610a7b565b92610d46610162565b80610d50816103f2565b0390a4600190565b50505f90565b610d66610eb2565b610d6e610d92565b565b610d7990610396565b9052565b9190610d90905f60208501940190610d70565b565b610d9d5f6001610be1565b610da5610cb0565b610ddb7f5db9ee0a495bf2e6ff9c91a7834c1ba4fdd244a5e8aa4e537bd38aeae4b073aa91610dd2610162565b91829182610d7d565b0390a1565b610de8610d5e565b565b610df2610ee5565b610dfa610dfc565b565b610e07600180610be1565b610e0f610cb0565b610e457f62e78cea01bee320cd4e420270b5ea74000d11b0c9f74754ebdbfc544b05a25891610e3c610162565b91829182610d7d565b0390a1565b610e52610dea565b565b916020610e75929493610e6e60408201965f830190610d70565b019061025a565b565b90610e8c610e86838390610a9d565b156101bd565b610e94575050565b610eae5f92839263e2517d3f60e01b845260048401610e54565b0390fd5b610ec3610ebd610a0c565b156101bd565b610ec957565b5f638dfc202b60e01b815280610ee1600482016103f2565b0390fd5b610eed610a0c565b610ef357565b5f63d93c066560e01b815280610f0b600482016103f2565b0390fdfea2646970667358221220fe7b5682d855a494e78940c20619bdb6b1420b49dd91671052d0a00651966aa764736f6c63430008210033","linkReferences":{}},"methodIdentifiers":{"AGREEMENT_ADMIN_ROLE()":"1e5238bd","CONFIG_ADMIN_ROLE()":"c78ef28c","DEFAULT_ADMIN_ROLE()":"a217fddf","ESCROW_MANAGER_ROLE()":"c38a337f","MARKETPLACE_ADMIN_ROLE()":"b2a4eea0","PAUSER_ROLE()":"e63ab1e9","REGISTRY_ADMIN_ROLE()":"bf584c4b","TREASURY_ADMIN_ROLE()":"0d109070","getRoleAdmin(bytes32)":"248a9ca3","grantPauseRole(address)":"92b6a948","grantRole(bytes32,address)":"2f2ff15d","hasRole(bytes32,address)":"91d14854","isPaused()":"b187bd26","pause()":"8456cb59","paused()":"5c975abb","renounceRole(bytes32,address)":"36568abe","revokePauseRole(address)":"ee7b2476","revokeRole(bytes32,address)":"d547741f","supportsInterface(bytes4)":"01ffc9a7","unpause()":"3f4ba83a"},"id":37}