{"abi":[{"type":"constructor","inputs":[],"stateMutability":"nonpayable"},{"type":"function","name":"AGREEMENT_ADMIN_ROLE","inputs":[],"outputs":[{"name":"","type":"bytes32","internalType":"bytes32"}],"stateMutability":"view"},{"type":"function","name":"CONFIG_ADMIN_ROLE","inputs":[],"outputs":[{"name":"","type":"bytes32","internalType":"bytes32"}],"stateMutability":"view"},{"type":"function","name":"DEFAULT_ADMIN_ROLE","inputs":[],"outputs":[{"name":"","type":"bytes32","internalType":"bytes32"}],"stateMutability":"view"},{"type":"function","name":"ESCROW_MANAGER_ROLE","inputs":[],"outputs":[{"name":"","type":"bytes32","internalType":"bytes32"}],"stateMutability":"view"},{"type":"function","name":"MARKETPLACE_ADMIN_ROLE","inputs":[],"outputs":[{"name":"","type":"bytes32","internalType":"bytes32"}],"stateMutability":"view"},{"type":"function","name":"PAUSER_ROLE","inputs":[],"outputs":[{"name":"","type":"bytes32","internalType":"bytes32"}],"stateMutability":"view"},{"type":"function","name":"REGISTRY_ADMIN_ROLE","inputs":[],"outputs":[{"name":"","type":"bytes32","internalType":"bytes32"}],"stateMutability":"view"},{"type":"function","name":"TREASURY_ADMIN_ROLE","inputs":[],"outputs":[{"name":"","type":"bytes32","internalType":"bytes32"}],"stateMutability":"view"},{"type":"function","name":"getRoleAdmin","inputs":[{"name":"role","type":"bytes32","internalType":"bytes32"}],"outputs":[{"name":"","type":"bytes32","internalType":"bytes32"}],"stateMutability":"view"},{"type":"function","name":"grantPauseRole","inputs":[{"name":"account","type":"address","internalType":"address"}],"outputs":[],"stateMutability":"nonpayable"},{"type":"function","name":"grantRole","inputs":[{"name":"role","type":"bytes32","internalType":"bytes32"},{"name":"account","type":"address","internalType":"address"}],"outputs":[],"stateMutability":"nonpayable"},{"type":"function","name":"hasRole","inputs":[{"name":"role","type":"bytes32","internalType":"bytes32"},{"name":"account","type":"address","internalType":"address"}],"outputs":[{"name":"","type":"bool","internalType":"bool"}],"stateMutability":"view"},{"type":"function","name":"isPaused","inputs":[],"outputs":[{"name":"","type":"bool","internalType":"bool"}],"stateMutability":"view"},{"type":"function","name":"pause","inputs":[],"outputs":[],"stateMutability":"nonpayable"},{"type":"function","name":"paused","inputs":[],"outputs":[{"name":"","type":"bool","internalType":"bool"}],"stateMutability":"view"},{"type":"function","name":"renounceRole","inputs":[{"name":"role","type":"bytes32","internalType":"bytes32"},{"name":"callerConfirmation","type":"address","internalType":"address"}],"outputs":[],"stateMutability":"nonpayable"},{"type":"function","name":"restrictedAction","inputs":[],"outputs":[],"stateMutability":"nonpayable"},{"type":"function","name":"revokePauseRole","inputs":[{"name":"account","type":"address","internalType":"address"}],"outputs":[],"stateMutability":"nonpayable"},{"type":"function","name":"revokeRole","inputs":[{"name":"role","type":"bytes32","internalType":"bytes32"},{"name":"account","type":"address","internalType":"address"}],"outputs":[],"stateMutability":"nonpayable"},{"type":"function","name":"supportsInterface","inputs":[{"name":"interfaceId","type":"bytes4","internalType":"bytes4"}],"outputs":[{"name":"","type":"bool","internalType":"bool"}],"stateMutability":"view"},{"type":"function","name":"unpause","inputs":[],"outputs":[],"stateMutability":"nonpayable"},{"type":"event","name":"Paused","inputs":[{"name":"account","type":"address","indexed":false,"internalType":"address"}],"anonymous":false},{"type":"event","name":"RoleAdminChanged","inputs":[{"name":"role","type":"bytes32","indexed":true,"internalType":"bytes32"},{"name":"previousAdminRole","type":"bytes32","indexed":true,"internalType":"bytes32"},{"name":"newAdminRole","type":"bytes32","indexed":true,"internalType":"bytes32"}],"anonymous":false},{"type":"event","name":"RoleGranted","inputs":[{"name":"role","type":"bytes32","indexed":true,"internalType":"bytes32"},{"name":"account","type":"address","indexed":true,"internalType":"address"},{"name":"sender","type":"address","indexed":true,"internalType":"address"}],"anonymous":false},{"type":"event","name":"RoleRevoked","inputs":[{"name":"role","type":"bytes32","indexed":true,"internalType":"bytes32"},{"name":"account","type":"address","indexed":true,"internalType":"address"},{"name":"sender","type":"address","indexed":true,"internalType":"address"}],"anonymous":false},{"type":"event","name":"Unpaused","inputs":[{"name":"account","type":"address","indexed":false,"internalType":"address"}],"anonymous":false},{"type":"error","name":"AccessControlBadConfirmation","inputs":[]},{"type":"error","name":"AccessControlUnauthorizedAccount","inputs":[{"name":"account","type":"address","internalType":"address"},{"name":"neededRole","type":"bytes32","internalType":"bytes32"}]},{"type":"error","name":"EnforcedPause","inputs":[]},{"type":"error","name":"ExpectedPause","inputs":[]}],"bytecode":{"object":"0x6080604052346100275761001161008d565b61001961002c565b610fb66102948239610fb690f35b610032565b60405190565b5f80fd5b90565b90565b5f1b90565b61005561005061005a92610036565b61003c565b610039565b90565b6100665f610041565b90565b7f65d7a28e3265b37a6474929f336521b332c1681b933f6cb9f3376673440d862a90565b61009f61009861005d565b3390610182565b506100b26100ab610069565b3390610182565b50565b5f90565b151590565b6100c790610039565b90565b906100d4906100be565b5f5260205260405f2090565b60018060a01b031690565b90565b6101026100fd610107926100e0565b6100eb565b6100e0565b90565b610113906100ee565b90565b61011f9061010a565b90565b9061012c90610116565b5f5260205260405f2090565b9061014460ff9161003c565b9181191691161790565b610157906100b9565b90565b90565b9061017261016d6101799261014e565b61015a565b8254610138565b9055565b5f0190565b61018a6100b5565b5061019f610199828490610259565b156100b9565b5f14610227576101c660016101c15f6101b98186906100ca565b018590610122565b61015d565b906101cf610286565b9061020c6102066102007f2f8788117e7eff1d82e926ec794901d17c78024a50270940304540a733656f0d956100be565b92610116565b92610116565b9261021561002c565b8061021f8161017d565b0390a4600190565b50505f90565b5f1c90565b60ff1690565b6102446102499161022d565b610232565b90565b6102569054610238565b90565b61027f915f61027461027a9361026d6100b5565b50826100ca565b01610122565b61024c565b90565b5f90565b61028e610282565b50339056fe60806040526004361015610013575b6108c4565b61001d5f3561016c565b806301ffc9a7146101675780630d109070146101625780631e5238bd1461015d578063248a9ca3146101585780632f2ff15d1461015357806336568abe1461014e5780633f4ba83a146101495780635c975abb1461014457806361baffe61461013f5780638456cb591461013a57806391d148541461013557806392b6a94814610130578063a217fddf1461012b578063b187bd2614610126578063b2a4eea014610121578063bf584c4b1461011c578063c38a337f14610117578063c78ef28c14610112578063d547741f1461010d578063e63ab1e9146101085763ee7b24760361000e57610891565b61085c565b6107f9565b6107c4565b610760565b6106fc565b610698565b610634565b6105ff565b610591565b61053d565b61050a565b6104d7565b6104a2565b61046f565b61043b565b610407565b610366565b6102f0565b61028c565b6101f4565b60e01c90565b60405190565b5f80fd5b5f80fd5b63ffffffff60e01b1690565b61019581610180565b0361019c57565b5f80fd5b905035906101ad8261018c565b565b906020828203126101c8576101c5915f016101a0565b90565b61017c565b151590565b6101db906101cd565b9052565b91906101f2905f602085019401906101d2565b565b346102245761022061020f61020a3660046101af565b6108cc565b610217610172565b918291826101df565b0390f35b610178565b5f91031261023357565b61017c565b7f4ba1c0b393f1850d2175b0f2d7c2d42c3f898b0037de3434dbcee26a67c6df6690565b610264610238565b90565b90565b61027390610267565b9052565b919061028a905f6020850194019061026a565b565b346102bc5761029c366004610229565b6102b86102a761025c565b6102af610172565b91829182610277565b0390f35b610178565b7fea6a6ac60158b17605be2a846cb00f21be4b4bb9921f4bd5846baa97af08148d90565b6102ed6102c1565b90565b3461032057610300366004610229565b61031c61030b6102e5565b610313610172565b91829182610277565b0390f35b610178565b61032e81610267565b0361033557565b5f80fd5b9050359061034682610325565b565b906020828203126103615761035e915f01610339565b90565b61017c565b346103965761039261038161037c366004610348565b61095b565b610389610172565b91829182610277565b0390f35b610178565b60018060a01b031690565b6103af9061039b565b90565b6103bb816103a6565b036103c257565b5f80fd5b905035906103d3826103b2565b565b91906040838203126103fd57806103f16103fa925f8601610339565b936020016103c6565b90565b61017c565b5f0190565b346104365761042061041a3660046103d5565b906109a6565b610428610172565b8061043281610402565b0390f35b610178565b3461046a5761045461044e3660046103d5565b906109b2565b61045c610172565b8061046681610402565b0390f35b610178565b3461049d5761047f366004610229565b610487610a1e565b61048f610172565b8061049981610402565b0390f35b610178565b346104d2576104b2366004610229565b6104ce6104bd610a4f565b6104c5610172565b918291826101df565b0390f35b610178565b34610505576104e7366004610229565b6104ef610a89565b6104f7610172565b8061050181610402565b0390f35b610178565b346105385761051a366004610229565b610522610ab7565b61052a610172565b8061053481610402565b0390f35b610178565b3461056e5761056a6105596105533660046103d5565b90610b0e565b610561610172565b918291826101df565b0390f35b610178565b9060208282031261058c57610589915f016103c6565b90565b61017c565b346105bf576105a96105a4366004610573565b610b65565b6105b1610172565b806105bb81610402565b0390f35b610178565b90565b5f1b90565b6105e06105db6105e5926105c4565b6105c7565b610267565b90565b6105f15f6105cc565b90565b6105fc6105e8565b90565b3461062f5761060f366004610229565b61062b61061a6105f4565b610622610172565b91829182610277565b0390f35b610178565b3461066457610644366004610229565b61066061064f610b70565b610657610172565b918291826101df565b0390f35b610178565b7f4e9617a5e2ee64b49ea666eb545a00a6f26df1c8ca519835eb93aac8d788949290565b610695610669565b90565b346106c8576106a8366004610229565b6106c46106b361068d565b6106bb610172565b91829182610277565b0390f35b610178565b7fbb28eb1a0cfabcecf96003fab466159bc2e051e49d79baf049890044e907244090565b6106f96106cd565b90565b3461072c5761070c366004610229565b6107286107176106f1565b61071f610172565b91829182610277565b0390f35b610178565b7f3b2a61e18f61be1272a467c8cbf17c05fd965ec69fdf24c3f07f078a6071aeea90565b61075d610731565b90565b3461079057610770366004610229565b61078c61077b610755565b610783610172565b91829182610277565b0390f35b610178565b7fb92d52e77ebaa0cae5c23e882d85609efbcb44029214147dd132daf9ef1018af90565b6107c1610795565b90565b346107f4576107d4366004610229565b6107f06107df6107b9565b6107e7610172565b91829182610277565b0390f35b610178565b346108285761081261080c3660046103d5565b90610bae565b61081a610172565b8061082481610402565b0390f35b610178565b7f65d7a28e3265b37a6474929f336521b332c1681b933f6cb9f3376673440d862a90565b61085961082d565b90565b3461088c5761086c366004610229565b610888610877610851565b61087f610172565b91829182610277565b0390f35b610178565b346108bf576108a96108a4366004610573565b610be8565b6108b1610172565b806108bb81610402565b0390f35b610178565b5f80fd5b5f90565b6108d46108c8565b50806108ef6108e9637965db0b60e01b610180565b91610180565b149081156108fc575b5090565b6109069150610bf3565b5f6108f8565b5f90565b61091990610267565b90565b9061092690610910565b5f5260205260405f2090565b5f1c90565b90565b61094661094b91610932565b610937565b90565b610958905461093a565b90565b60016109736109799261096c61090c565b505f61091c565b0161094e565b90565b906109979161099261098d8261095b565b610c19565b610999565b565b906109a391610c72565b50565b906109b09161097c565b565b90806109cd6109c76109c2610d21565b6103a6565b916103a6565b036109de576109db91610d2e565b50565b5f63334bd91960e11b8152806109f660048201610402565b0390fd5b610a0a610a0561082d565b610c19565b610a12610a14565b565b610a1c610e51565b565b610a266109fa565b565b60ff1690565b610a3a610a3f91610932565b610a28565b90565b610a4c9054610a2e565b90565b610a576108c8565b50610a626001610a42565b90565b610a6d610e5b565b610a75610a77565b565b610a87610a826106cd565b610c19565b565b610a91610a65565b565b610aa3610a9e61082d565b610c19565b610aab610aad565b565b610ab5610ee5565b565b610abf610a93565b565b90565b610ad8610ad3610add9261039b565b610ac1565b61039b565b90565b610ae990610ac4565b90565b610af590610ae0565b90565b90610b0290610aec565b5f5260205260405f2090565b610b34915f610b29610b2f93610b226108c8565b508261091c565b01610af8565b610a42565b90565b610b5090610b4b610b466105e8565b610c19565b610b52565b565b610b6390610b5e61082d565b6109a6565b565b610b6e90610b37565b565b610b786108c8565b50610b81610a4f565b90565b90610b9f91610b9a610b958261095b565b610c19565b610ba1565b565b90610bab91610d2e565b50565b90610bb891610b84565b565b610bd390610bce610bc96105e8565b610c19565b610bd5565b565b610be690610be161082d565b610bae565b565b610bf190610bba565b565b610bfb6108c8565b50610c15610c0f6301ffc9a760e01b610180565b91610180565b1490565b610c2b90610c25610d21565b90610f12565b565b90610c3960ff916105c7565b9181191691161790565b610c4c906101cd565b90565b90565b90610c67610c62610c6e92610c43565b610c4f565b8254610c2d565b9055565b610c7a6108c8565b50610c8f610c89828490610b0e565b156101cd565b5f14610d1757610cb66001610cb15f610ca981869061091c565b018590610af8565b610c52565b90610cbf610d21565b90610cfc610cf6610cf07f2f8788117e7eff1d82e926ec794901d17c78024a50270940304540a733656f0d95610910565b92610aec565b92610aec565b92610d05610172565b80610d0f81610402565b0390a4600190565b50505f90565b5f90565b610d29610d1d565b503390565b610d366108c8565b50610d42818390610b0e565b5f14610dc957610d685f610d635f610d5b81869061091c565b018590610af8565b610c52565b90610d71610d21565b90610dae610da8610da27ff6391f5c32d9c69d2a47ea670b442974b53935d1edc7fd64eb21e047a839171b95610910565b92610aec565b92610aec565b92610db7610172565b80610dc181610402565b0390a4600190565b50505f90565b610dd7610f4d565b610ddf610e03565b565b610dea906103a6565b9052565b9190610e01905f60208501940190610de1565b565b610e0e5f6001610c52565b610e16610d21565b610e4c7f5db9ee0a495bf2e6ff9c91a7834c1ba4fdd244a5e8aa4e537bd38aeae4b073aa91610e43610172565b91829182610dee565b0390a1565b610e59610dcf565b565b610e63610a4f565b610e6957565b5f63d93c066560e01b815280610e8160048201610402565b0390fd5b610e8d610e5b565b610e95610e97565b565b610ea2600180610c52565b610eaa610d21565b610ee07f62e78cea01bee320cd4e420270b5ea74000d11b0c9f74754ebdbfc544b05a25891610ed7610172565b91829182610dee565b0390a1565b610eed610e85565b565b916020610f10929493610f0960408201965f830190610de1565b019061026a565b565b90610f27610f21838390610b0e565b156101cd565b610f2f575050565b610f495f92839263e2517d3f60e01b845260048401610eef565b0390fd5b610f5e610f58610a4f565b156101cd565b610f6457565b5f638dfc202b60e01b815280610f7c60048201610402565b0390fdfea26469706673582212206c5c5b78856124ae451e4fa01147cab2c9cf5b6c8c9889974e5aa39173023fe164736f6c63430008210033","linkReferences":{}},"methodIdentifiers":{"AGREEMENT_ADMIN_ROLE()":"1e5238bd","CONFIG_ADMIN_ROLE()":"c78ef28c","DEFAULT_ADMIN_ROLE()":"a217fddf","ESCROW_MANAGER_ROLE()":"c38a337f","MARKETPLACE_ADMIN_ROLE()":"b2a4eea0","PAUSER_ROLE()":"e63ab1e9","REGISTRY_ADMIN_ROLE()":"bf584c4b","TREASURY_ADMIN_ROLE()":"0d109070","getRoleAdmin(bytes32)":"248a9ca3","grantPauseRole(address)":"92b6a948","grantRole(bytes32,address)":"2f2ff15d","hasRole(bytes32,address)":"91d14854","isPaused()":"b187bd26","pause()":"8456cb59","paused()":"5c975abb","renounceRole(bytes32,address)":"36568abe","restrictedAction()":"61baffe6","revokePauseRole(address)":"ee7b2476","revokeRole(bytes32,address)":"d547741f","supportsInterface(bytes4)":"01ffc9a7","unpause()":"3f4ba83a"},"id":26}