{"abi":[{"type":"constructor","inputs":[],"stateMutability":"nonpayable"},{"type":"function","name":"AGREEMENT_ADMIN_ROLE","inputs":[],"outputs":[{"name":"","type":"bytes32","internalType":"bytes32"}],"stateMutability":"view"},{"type":"function","name":"CONFIG_ADMIN_ROLE","inputs":[],"outputs":[{"name":"","type":"bytes32","internalType":"bytes32"}],"stateMutability":"view"},{"type":"function","name":"DEFAULT_ADMIN_ROLE","inputs":[],"outputs":[{"name":"","type":"bytes32","internalType":"bytes32"}],"stateMutability":"view"},{"type":"function","name":"ESCROW_MANAGER_ROLE","inputs":[],"outputs":[{"name":"","type":"bytes32","internalType":"bytes32"}],"stateMutability":"view"},{"type":"function","name":"MARKETPLACE_ADMIN_ROLE","inputs":[],"outputs":[{"name":"","type":"bytes32","internalType":"bytes32"}],"stateMutability":"view"},{"type":"function","name":"PAUSER_ROLE","inputs":[],"outputs":[{"name":"","type":"bytes32","internalType":"bytes32"}],"stateMutability":"view"},{"type":"function","name":"REGISTRY_ADMIN_ROLE","inputs":[],"outputs":[{"name":"","type":"bytes32","internalType":"bytes32"}],"stateMutability":"view"},{"type":"function","name":"TREASURY_ADMIN_ROLE","inputs":[],"outputs":[{"name":"","type":"bytes32","internalType":"bytes32"}],"stateMutability":"view"},{"type":"function","name":"getRoleAdmin","inputs":[{"name":"role","type":"bytes32","internalType":"bytes32"}],"outputs":[{"name":"","type":"bytes32","internalType":"bytes32"}],"stateMutability":"view"},{"type":"function","name":"grantPauseRole","inputs":[{"name":"account","type":"address","internalType":"address"}],"outputs":[],"stateMutability":"nonpayable"},{"type":"function","name":"grantRole","inputs":[{"name":"role","type":"bytes32","internalType":"bytes32"},{"name":"account","type":"address","internalType":"address"}],"outputs":[],"stateMutability":"nonpayable"},{"type":"function","name":"hasRole","inputs":[{"name":"role","type":"bytes32","internalType":"bytes32"},{"name":"account","type":"address","internalType":"address"}],"outputs":[{"name":"","type":"bool","internalType":"bool"}],"stateMutability":"view"},{"type":"function","name":"isPaused","inputs":[],"outputs":[{"name":"","type":"bool","internalType":"bool"}],"stateMutability":"view"},{"type":"function","name":"pause","inputs":[],"outputs":[],"stateMutability":"nonpayable"},{"type":"function","name":"paused","inputs":[],"outputs":[{"name":"","type":"bool","internalType":"bool"}],"stateMutability":"view"},{"type":"function","name":"renounceRole","inputs":[{"name":"role","type":"bytes32","internalType":"bytes32"},{"name":"callerConfirmation","type":"address","internalType":"address"}],"outputs":[],"stateMutability":"nonpayable"},{"type":"function","name":"restrictedAction","inputs":[],"outputs":[],"stateMutability":"nonpayable"},{"type":"function","name":"revokePauseRole","inputs":[{"name":"account","type":"address","internalType":"address"}],"outputs":[],"stateMutability":"nonpayable"},{"type":"function","name":"revokeRole","inputs":[{"name":"role","type":"bytes32","internalType":"bytes32"},{"name":"account","type":"address","internalType":"address"}],"outputs":[],"stateMutability":"nonpayable"},{"type":"function","name":"supportsInterface","inputs":[{"name":"interfaceId","type":"bytes4","internalType":"bytes4"}],"outputs":[{"name":"","type":"bool","internalType":"bool"}],"stateMutability":"view"},{"type":"function","name":"unpause","inputs":[],"outputs":[],"stateMutability":"nonpayable"},{"type":"event","name":"Paused","inputs":[{"name":"account","type":"address","indexed":false,"internalType":"address"}],"anonymous":false},{"type":"event","name":"RoleAdminChanged","inputs":[{"name":"role","type":"bytes32","indexed":true,"internalType":"bytes32"},{"name":"previousAdminRole","type":"bytes32","indexed":true,"internalType":"bytes32"},{"name":"newAdminRole","type":"bytes32","indexed":true,"internalType":"bytes32"}],"anonymous":false},{"type":"event","name":"RoleGranted","inputs":[{"name":"role","type":"bytes32","indexed":true,"internalType":"bytes32"},{"name":"account","type":"address","indexed":true,"internalType":"address"},{"name":"sender","type":"address","indexed":true,"internalType":"address"}],"anonymous":false},{"type":"event","name":"RoleRevoked","inputs":[{"name":"role","type":"bytes32","indexed":true,"internalType":"bytes32"},{"name":"account","type":"address","indexed":true,"internalType":"address"},{"name":"sender","type":"address","indexed":true,"internalType":"address"}],"anonymous":false},{"type":"event","name":"Unpaused","inputs":[{"name":"account","type":"address","indexed":false,"internalType":"address"}],"anonymous":false},{"type":"error","name":"AccessControlBadConfirmation","inputs":[]},{"type":"error","name":"AccessControlUnauthorizedAccount","inputs":[{"name":"account","type":"address","internalType":"address"},{"name":"neededRole","type":"bytes32","internalType":"bytes32"}]},{"type":"error","name":"EnforcedPause","inputs":[]},{"type":"error","name":"ExpectedPause","inputs":[]}],"bytecode":{"object":"0x608060405234801561000f575f5ffd5b506100225f5f1b3361005960201b60201c565b506100537f65d7a28e3265b37a6474929f336521b332c1681b933f6cb9f3376673440d862a3361005960201b60201c565b506101b8565b5f61006a838361014e60201b60201c565b6101445760015f5f8581526020019081526020015f205f015f8473ffffffffffffffffffffffffffffffffffffffff1673ffffffffffffffffffffffffffffffffffffffff1681526020019081526020015f205f6101000a81548160ff0219169083151502179055506100e16101b160201b60201c565b73ffffffffffffffffffffffffffffffffffffffff168273ffffffffffffffffffffffffffffffffffffffff16847f2f8788117e7eff1d82e926ec794901d17c78024a50270940304540a733656f0d60405160405180910390a460019050610148565b5f90505b92915050565b5f5f5f8481526020019081526020015f205f015f8373ffffffffffffffffffffffffffffffffffffffff1673ffffffffffffffffffffffffffffffffffffffff1681526020019081526020015f205f9054906101000a900460ff16905092915050565b5f33905090565b610dfd806101c55f395ff3fe608060405234801561000f575f5ffd5b5060043610610135575f3560e01c806391d14854116100b6578063bf584c4b1161007a578063bf584c4b146102ef578063c38a337f1461030d578063c78ef28c1461032b578063d547741f14610349578063e63ab1e914610365578063ee7b24761461038357610135565b806391d148541461024957806392b6a94814610279578063a217fddf14610295578063b187bd26146102b3578063b2a4eea0146102d157610135565b806336568abe116100fd57806336568abe146101f15780633f4ba83a1461020d5780635c975abb1461021757806361baffe6146102355780638456cb591461023f57610135565b806301ffc9a7146101395780630d109070146101695780631e5238bd14610187578063248a9ca3146101a55780632f2ff15d146101d5575b5f5ffd5b610153600480360381019061014e9190610bd1565b61039f565b6040516101609190610c16565b60405180910390f35b610171610418565b60405161017e9190610c47565b60405180910390f35b61018f61043c565b60405161019c9190610c47565b60405180910390f35b6101bf60048036038101906101ba9190610c8a565b610460565b6040516101cc9190610c47565b60405180910390f35b6101ef60048036038101906101ea9190610d0f565b61047c565b005b61020b60048036038101906102069190610d0f565b61049e565b005b610215610519565b005b61021f61054e565b60405161022c9190610c16565b60405180910390f35b61023d610563565b005b610247610598565b005b610263600480360381019061025e9190610d0f565b6105cd565b6040516102709190610c16565b60405180910390f35b610293600480360381019061028e9190610d4d565b610630565b005b61029d61066a565b6040516102aa9190610c47565b60405180910390f35b6102bb610670565b6040516102c89190610c16565b60405180910390f35b6102d961067e565b6040516102e69190610c47565b60405180910390f35b6102f76106a2565b6040516103049190610c47565b60405180910390f35b6103156106c6565b6040516103229190610c47565b60405180910390f35b6103336106ea565b6040516103409190610c47565b60405180910390f35b610363600480360381019061035e9190610d0f565b61070e565b005b61036d610730565b60405161037a9190610c47565b60405180910390f35b61039d60048036038101906103989190610d4d565b610754565b005b5f7f7965db0b000000000000000000000000000000000000000000000000000000007bffffffffffffffffffffffffffffffffffffffffffffffffffffffff1916827bffffffffffffffffffffffffffffffffffffffffffffffffffffffff1916148061041157506104108261078e565b5b9050919050565b7f4ba1c0b393f1850d2175b0f2d7c2d42c3f898b0037de3434dbcee26a67c6df6681565b7fea6a6ac60158b17605be2a846cb00f21be4b4bb9921f4bd5846baa97af08148d81565b5f5f5f8381526020019081526020015f20600101549050919050565b61048582610460565b61048e816107f7565b610498838361080b565b50505050565b6104a66108f4565b73ffffffffffffffffffffffffffffffffffffffff168173ffffffffffffffffffffffffffffffffffffffff161461050a576040517f6697b23200000000000000000000000000000000000000000000000000000000815260040160405180910390fd5b61051482826108fb565b505050565b7f65d7a28e3265b37a6474929f336521b332c1681b933f6cb9f3376673440d862a610543816107f7565b61054b6109e4565b50565b5f60015f9054906101000a900460ff16905090565b61056b610a45565b7fbb28eb1a0cfabcecf96003fab466159bc2e051e49d79baf049890044e9072440610595816107f7565b50565b7f65d7a28e3265b37a6474929f336521b332c1681b933f6cb9f3376673440d862a6105c2816107f7565b6105ca610a86565b50565b5f5f5f8481526020019081526020015f205f015f8373ffffffffffffffffffffffffffffffffffffffff1673ffffffffffffffffffffffffffffffffffffffff1681526020019081526020015f205f9054906101000a900460ff16905092915050565b5f5f1b61063c816107f7565b6106667f65d7a28e3265b37a6474929f336521b332c1681b933f6cb9f3376673440d862a8361047c565b5050565b5f5f1b81565b5f61067961054e565b905090565b7f4e9617a5e2ee64b49ea666eb545a00a6f26df1c8ca519835eb93aac8d788949281565b7fbb28eb1a0cfabcecf96003fab466159bc2e051e49d79baf049890044e907244081565b7f3b2a61e18f61be1272a467c8cbf17c05fd965ec69fdf24c3f07f078a6071aeea81565b7fb92d52e77ebaa0cae5c23e882d85609efbcb44029214147dd132daf9ef1018af81565b61071782610460565b610720816107f7565b61072a83836108fb565b50505050565b7f65d7a28e3265b37a6474929f336521b332c1681b933f6cb9f3376673440d862a81565b5f5f1b610760816107f7565b61078a7f65d7a28e3265b37a6474929f336521b332c1681b933f6cb9f3376673440d862a8361070e565b5050565b5f7f01ffc9a7000000000000000000000000000000000000000000000000000000007bffffffffffffffffffffffffffffffffffffffffffffffffffffffff1916827bffffffffffffffffffffffffffffffffffffffffffffffffffffffff1916149050919050565b610808816108036108f4565b610ae7565b50565b5f61081683836105cd565b6108ea5760015f5f8581526020019081526020015f205f015f8473ffffffffffffffffffffffffffffffffffffffff1673ffffffffffffffffffffffffffffffffffffffff1681526020019081526020015f205f6101000a81548160ff0219169083151502179055506108876108f4565b73ffffffffffffffffffffffffffffffffffffffff168273ffffffffffffffffffffffffffffffffffffffff16847f2f8788117e7eff1d82e926ec794901d17c78024a50270940304540a733656f0d60405160405180910390a4600190506108ee565b5f90505b92915050565b5f33905090565b5f61090683836105cd565b156109da575f5f5f8581526020019081526020015f205f015f8473ffffffffffffffffffffffffffffffffffffffff1673ffffffffffffffffffffffffffffffffffffffff1681526020019081526020015f205f6101000a81548160ff0219169083151502179055506109776108f4565b73ffffffffffffffffffffffffffffffffffffffff168273ffffffffffffffffffffffffffffffffffffffff16847ff6391f5c32d9c69d2a47ea670b442974b53935d1edc7fd64eb21e047a839171b60405160405180910390a4600190506109de565b5f90505b92915050565b6109ec610b38565b5f60015f6101000a81548160ff0219169083151502179055507f5db9ee0a495bf2e6ff9c91a7834c1ba4fdd244a5e8aa4e537bd38aeae4b073aa610a2e6108f4565b604051610a3b9190610d87565b60405180910390a1565b610a4d61054e565b15610a84576040517fd93c066500000000000000000000000000000000000000000000000000000000815260040160405180910390fd5b565b610a8e610a45565b6001805f6101000a81548160ff0219169083151502179055507f62e78cea01bee320cd4e420270b5ea74000d11b0c9f74754ebdbfc544b05a258610ad06108f4565b604051610add9190610d87565b60405180910390a1565b610af182826105cd565b610b345780826040517fe2517d3f000000000000000000000000000000000000000000000000000000008152600401610b2b929190610da0565b60405180910390fd5b5050565b610b4061054e565b610b76576040517f8dfc202b00000000000000000000000000000000000000000000000000000000815260040160405180910390fd5b565b5f5ffd5b5f7fffffffff0000000000000000000000000000000000000000000000000000000082169050919050565b610bb081610b7c565b8114610bba575f5ffd5b50565b5f81359050610bcb81610ba7565b92915050565b5f60208284031215610be657610be5610b78565b5b5f610bf384828501610bbd565b91505092915050565b5f8115159050919050565b610c1081610bfc565b82525050565b5f602082019050610c295f830184610c07565b92915050565b5f819050919050565b610c4181610c2f565b82525050565b5f602082019050610c5a5f830184610c38565b92915050565b610c6981610c2f565b8114610c73575f5ffd5b50565b5f81359050610c8481610c60565b92915050565b5f60208284031215610c9f57610c9e610b78565b5b5f610cac84828501610c76565b91505092915050565b5f73ffffffffffffffffffffffffffffffffffffffff82169050919050565b5f610cde82610cb5565b9050919050565b610cee81610cd4565b8114610cf8575f5ffd5b50565b5f81359050610d0981610ce5565b92915050565b5f5f60408385031215610d2557610d24610b78565b5b5f610d3285828601610c76565b9250506020610d4385828601610cfb565b9150509250929050565b5f60208284031215610d6257610d61610b78565b5b5f610d6f84828501610cfb565b91505092915050565b610d8181610cd4565b82525050565b5f602082019050610d9a5f830184610d78565b92915050565b5f604082019050610db35f830185610d78565b610dc06020830184610c38565b939250505056fea2646970667358221220be6ce14b24587e52191d0465a1fce5f4db8b5df710f46560bb94fa83e882069864736f6c63430008210033","linkReferences":{}},"methodIdentifiers":{"AGREEMENT_ADMIN_ROLE()":"1e5238bd","CONFIG_ADMIN_ROLE()":"c78ef28c","DEFAULT_ADMIN_ROLE()":"a217fddf","ESCROW_MANAGER_ROLE()":"c38a337f","MARKETPLACE_ADMIN_ROLE()":"b2a4eea0","PAUSER_ROLE()":"e63ab1e9","REGISTRY_ADMIN_ROLE()":"bf584c4b","TREASURY_ADMIN_ROLE()":"0d109070","getRoleAdmin(bytes32)":"248a9ca3","grantPauseRole(address)":"92b6a948","grantRole(bytes32,address)":"2f2ff15d","hasRole(bytes32,address)":"91d14854","isPaused()":"b187bd26","pause()":"8456cb59","paused()":"5c975abb","renounceRole(bytes32,address)":"36568abe","restrictedAction()":"61baffe6","revokePauseRole(address)":"ee7b2476","revokeRole(bytes32,address)":"d547741f","supportsInterface(bytes4)":"01ffc9a7","unpause()":"3f4ba83a"},"id":25}