{"abi":[{"type":"constructor","inputs":[],"stateMutability":"nonpayable"},{"type":"function","name":"deposit","inputs":[{"name":"token_","type":"address","internalType":"address"},{"name":"amount_","type":"uint256","internalType":"uint256"},{"name":"agreementId_","type":"uint256","internalType":"uint256"},{"name":"payee_","type":"address","internalType":"address"}],"outputs":[],"stateMutability":"nonpayable"},{"type":"function","name":"getDeposit","inputs":[{"name":"depositId_","type":"uint256","internalType":"uint256"}],"outputs":[{"name":"","type":"tuple","internalType":"struct Escrow.Deposit","components":[{"name":"id","type":"uint256","internalType":"uint256"},{"name":"token","type":"address","internalType":"address"},{"name":"amount","type":"uint256","internalType":"uint256"},{"name":"agreementId","type":"uint256","internalType":"uint256"},{"name":"payer","type":"address","internalType":"address"},{"name":"payee","type":"address","internalType":"address"},{"name":"status","type":"uint8","internalType":"enum Escrow.DepositStatus"},{"name":"createdAt","type":"uint256","internalType":"uint256"}]}],"stateMutability":"view"},{"type":"function","name":"nextDepositId","inputs":[],"outputs":[{"name":"","type":"uint256","internalType":"uint256"}],"stateMutability":"view"},{"type":"function","name":"refund","inputs":[{"name":"depositId_","type":"uint256","internalType":"uint256"}],"outputs":[],"stateMutability":"nonpayable"},{"type":"function","name":"release","inputs":[{"name":"depositId_","type":"uint256","internalType":"uint256"}],"outputs":[],"stateMutability":"nonpayable"},{"type":"event","name":"DepositCreated","inputs":[{"name":"depositId","type":"uint256","indexed":true,"internalType":"uint256"},{"name":"token","type":"address","indexed":true,"internalType":"address"},{"name":"amount","type":"uint256","indexed":false,"internalType":"uint256"},{"name":"agreementId","type":"uint256","indexed":true,"internalType":"uint256"}],"anonymous":false},{"type":"event","name":"DepositFunded","inputs":[{"name":"depositId","type":"uint256","indexed":true,"internalType":"uint256"},{"name":"token","type":"address","indexed":true,"internalType":"address"},{"name":"amount","type":"uint256","indexed":false,"internalType":"uint256"}],"anonymous":false},{"type":"event","name":"DepositRefunded","inputs":[{"name":"depositId","type":"uint256","indexed":true,"internalType":"uint256"},{"name":"payer","type":"address","indexed":true,"internalType":"address"},{"name":"amount","type":"uint256","indexed":false,"internalType":"uint256"}],"anonymous":false},{"type":"event","name":"DepositReleased","inputs":[{"name":"depositId","type":"uint256","indexed":true,"internalType":"uint256"},{"name":"payee","type":"address","indexed":true,"internalType":"address"},{"name":"amount","type":"uint256","indexed":false,"internalType":"uint256"}],"anonymous":false},{"type":"error","name":"DepositNotFound","inputs":[]},{"type":"error","name":"InvalidAddress","inputs":[]},{"type":"error","name":"InvalidAmount","inputs":[]},{"type":"error","name":"InvalidState","inputs":[]},{"type":"error","name":"SafeERC20FailedOperation","inputs":[{"name":"token","type":"address","internalType":"address"}]},{"type":"error","name":"Unauthorized","inputs":[]}],"bytecode":{"object":"0x608060405234602257600e609b565b60146026565b610f8b6100ad8239610f8b90f35b602c565b60405190565b5f80fd5b90565b90565b90565b60486044604c926030565b6036565b6033565b90565b5f1b90565b90605e5f1991604f565b9181191691161790565b60776073607b926033565b6036565b6033565b90565b90565b906091608d6097926068565b607e565b82546054565b9055565b60aa60a560016039565b5f6081565b56fe60806040526004361015610013575b6103c4565b61001d5f3561006c565b8063278ecde11461006757806337bdc99b146100625780638070a4bd1461005d5780638b6099db1461005857639f9fb9680361000e5761038f565b610250565b61019b565b6100fc565b6100c9565b60e01c90565b60405190565b5f80fd5b5f80fd5b90565b61008c81610080565b0361009357565b5f80fd5b905035906100a482610083565b565b906020828203126100bf576100bc915f01610097565b90565b61007c565b5f0190565b346100f7576100e16100dc3660046100a6565b610500565b6100e9610072565b806100f3816100c4565b0390f35b610078565b3461012a5761011461010f3660046100a6565b610632565b61011c610072565b80610126816100c4565b0390f35b610078565b5f91031261013957565b61007c565b1c90565b90565b61015590600861015a930261013e565b610142565b90565b906101689154610145565b90565b6101765f5f9061015d565b90565b61018290610080565b9052565b9190610199905f60208501940190610179565b565b346101cb576101ab36600461012f565b6101c76101b661016b565b6101be610072565b91829182610186565b0390f35b610078565b60018060a01b031690565b6101e4906101d0565b90565b6101f0816101db565b036101f757565b5f80fd5b90503590610208826101e7565b565b60808183031261024b57610220825f83016101fb565b926102486102318460208501610097565b9361023f8160408601610097565b936060016101fb565b90565b61007c565b346102825761026c61026336600461020a565b92919091610904565b610274610072565b8061027e816100c4565b0390f35b610078565b61029090610080565b9052565b61029d906101db565b9052565b634e487b7160e01b5f52602160045260245ffd5b600511156102bf57565b6102a1565b906102ce826102b5565b565b6102d9906102c4565b90565b6102e5906102d0565b9052565b9060e080610377936103015f8201515f860190610287565b61031360208201516020860190610294565b61032560408201516040860190610287565b61033760608201516060860190610287565b61034960808201516080860190610294565b61035b60a082015160a0860190610294565b61036d60c082015160c08601906102dc565b0151910190610287565b565b919061038d905f61010085019401906102e9565b565b346103bf576103bb6103aa6103a53660046100a6565b610d15565b6103b2610072565b91829182610379565b0390f35b610078565b5f80fd5b5f1c90565b60018060a01b031690565b6103e46103e9916103c8565b6103cd565b90565b6103f690546103d8565b90565b60a01c90565b60ff1690565b610411610416916103f9565b6103ff565b90565b6104239054610405565b90565b60a01b90565b9061043b60ff60a01b91610426565b9181191691161790565b61044e906102c4565b90565b90565b9061046961046461047092610445565b610451565b825461042c565b9055565b90565b61048b610486610490926101d0565b610474565b6101d0565b90565b61049c90610477565b90565b6104a890610493565b90565b6104b76104bc916103c8565b610142565b90565b6104c990546104ab565b90565b6104e06104db6104e592610080565b610474565b610080565b90565b6104f190610477565b90565b6104fd906104e8565b90565b61050981610d5b565b90610516600483016103ec565b610528610522336101db565b916101db565b036106175761053960058301610419565b61054c61054660016102c4565b916102c4565b036105fb5761055f600360058401610454565b610594610576610571600185016103ec565b61049f565b610582600485016103ec565b61058e600286016104bf565b91610ddc565b906105ad60026105a6600484016103ec565b92016104bf565b916105f66105e46105de7f69187e59ebb7ab44cba5434886e4e6cde1412568f3483279dc99de772cb25405936104cc565b936104f4565b936105ed610072565b91829182610186565b0390a3565b5f63baf3f0f760e01b815280610613600482016100c4565b0390fd5b5f6282b42960e81b81528061062e600482016100c4565b0390fd5b61063b81610d5b565b90610648600583016103ec565b61065a610654336101db565b916101db565b036107495761066b60058301610419565b61067e61067860016102c4565b916102c4565b0361072d57610691600260058401610454565b6106c66106a86106a3600185016103ec565b61049f565b6106b4600585016103ec565b6106c0600286016104bf565b91610ddc565b906106df60026106d8600584016103ec565b92016104bf565b916107286107166107107f27fd7b405d3b1cef830760908e4041d6c33a3e8fee51f248c99462d0d5550885936104cc565b936104f4565b9361071f610072565b91829182610186565b0390a3565b5f63baf3f0f760e01b815280610745600482016100c4565b0390fd5b5f6282b42960e81b815280610760600482016100c4565b0390fd5b90565b61077b61077661078092610764565b610474565b6101d0565b90565b61078c90610767565b90565b6107a361079e6107a892610764565b610474565b610080565b90565b90565b6107c26107bd6107c7926107ab565b610474565b610080565b90565b634e487b7160e01b5f52601160045260245ffd5b6107ed6107f391939293610080565b92610080565b82018092116107fe57565b6107ca565b5f1b90565b906108145f1991610803565b9181191691161790565b90565b9061083661083161083d926104cc565b61081e565b8254610808565b9055565b61084a906104e8565b90565b90610857906104cc565b5f5260205260405f2090565b90565b9061087760018060a01b0391610803565b9181191691161790565b90565b906108996108946108a0926104f4565b610881565b8254610866565b9055565b906108ae906104cc565b5f5260205260405f2090565b906108c660ff91610803565b9181191691161790565b151590565b6108de906108d0565b90565b90565b906108f96108f4610900926108d5565b6108e1565b82546108ba565b9055565b9290918361092261091c6109175f610783565b6101db565b916101db565b148015610b05575b610ae9578261094161093b5f61078f565b91610080565b14610acd57610a0e6109525f6104bf565b9261097761097161096360016107ae565b61096c5f6104bf565b6107de565b5f610821565b6109956109838761049f565b3361098d30610841565b908892610e23565b6109f66109ac6109a76001879061084d565b610863565b916109b9865f8501610821565b6109c68860018501610884565b6109d38760028501610821565b6109e08560038501610821565b6109ed3360048501610884565b60058301610884565b610a04600160058301610454565b6006429101610821565b610a246001610a1f600285906108a4565b6108e4565b8184849291610a7a610a68610a62610a5c7fdec20cd19688d34ddd5a2bb409045e13b3cfc97cdb8d80d2fc5ef2a6f18e848c946104cc565b946104f4565b946104cc565b94610a71610072565b91829182610186565b0390a4919091610ac8610ab6610ab07fdfaa8c912b5509c72ecaf1be942e001eb4a21e6f8f1fd3676d006d6d9f8e6084936104cc565b936104f4565b93610abf610072565b91829182610186565b0390a3565b5f63162908e360e11b815280610ae5600482016100c4565b0390fd5b5f63e6c4247b60e01b815280610b01600482016100c4565b0390fd5b5081610b21610b1b610b165f610783565b6101db565b916101db565b1461092a565b601f801991011690565b634e487b7160e01b5f52604160045260245ffd5b90610b4f90610b27565b810190811067ffffffffffffffff821117610b6957604052565b610b31565b90610b81610b7a610072565b9283610b45565b565b610b8e610100610b6e565b90565b5f90565b5f90565b5f90565b610ba5610b83565b9060208080808080808089610bb8610b91565b815201610bc3610b95565b815201610bce610b91565b815201610bd9610b91565b815201610be4610b95565b815201610bef610b95565b815201610bfa610b99565b815201610c05610b91565b81525050565b610c13610b9d565b90565b90610c2090610080565b9052565b90610c2e906101db565b9052565b90610c3c906102c4565b9052565b90610d07610cfe6006610c51610b83565b94610c68610c605f83016104bf565b5f8801610c16565b610c80610c77600183016103ec565b60208801610c24565b610c98610c8f600283016104bf565b60408801610c16565b610cb0610ca7600383016104bf565b60608801610c16565b610cc8610cbf600483016103ec565b60808801610c24565b610ce0610cd7600583016103ec565b60a08801610c24565b610cf8610cef60058301610419565b60c08801610c32565b016104bf565b60e08401610c16565b565b610d1290610c40565b90565b610d2c610d3191610d24610c0b565b50600161084d565b610d09565b90565b60ff1690565b610d46610d4b916103c8565b610d34565b90565b610d589054610d3a565b90565b610d78610d72610d6d600284906108a4565b610d4e565b156108d0565b610d9257610d8a610d8f91600161084d565b610863565b90565b5f63411321ed60e01b815280610daa600482016100c4565b0390fd5b610db7906104e8565b90565b610dc3906101db565b9052565b9190610dda905f60208501940190610dba565b565b91610df591610def918491600192610e72565b156108d0565b610dfc5750565b610e08610e1f91610dae565b5f918291635274afe760e01b835260048301610dc7565b0390fd5b9290610e4092610e3a928592919091600193610edc565b156108d0565b610e475750565b610e53610e6a91610dae565b5f918291635274afe760e01b835260048301610dc7565b0390fd5b5f90565b9091939293610e7f610e6e565b5063a9059cbb60e01b92604051935f525f1960601c1660045260245260205f60448180855af19360015f5114851615610eba575b5050604052565b8492941516610ed3575f903b113d151616915f80610eb3565b833d5f823e3d90fd5b91949394929092610eeb610e6e565b506323b872dd60e01b93604051945f525f1960601c166004525f1960601c1660245260445260205f60648180855af19360015f5114851615610f33575b50506040525f606052565b8492941516610f4c575f903b113d151616915f80610f28565b833d5f823e3d90fdfea2646970667358221220e8f9547a1e3081bc8d177f0f3dbff858703bf9bf23bd6fc7f5e0f51cc40943d864736f6c63430008210033","linkReferences":{}},"methodIdentifiers":{"deposit(address,uint256,uint256,address)":"8b6099db","getDeposit(uint256)":"9f9fb968","nextDepositId()":"8070a4bd","refund(uint256)":"278ecde1","release(uint256)":"37bdc99b"},"id":39}