{"abi":[{"type":"constructor","inputs":[],"stateMutability":"nonpayable"},{"type":"function","name":"deposit","inputs":[{"name":"token_","type":"address","internalType":"address"},{"name":"amount_","type":"uint256","internalType":"uint256"},{"name":"agreementId_","type":"uint256","internalType":"uint256"},{"name":"payee_","type":"address","internalType":"address"}],"outputs":[],"stateMutability":"nonpayable"},{"type":"function","name":"getDeposit","inputs":[{"name":"depositId_","type":"uint256","internalType":"uint256"}],"outputs":[{"name":"","type":"tuple","internalType":"struct Escrow.Deposit","components":[{"name":"id","type":"uint256","internalType":"uint256"},{"name":"token","type":"address","internalType":"address"},{"name":"amount","type":"uint256","internalType":"uint256"},{"name":"agreementId","type":"uint256","internalType":"uint256"},{"name":"payer","type":"address","internalType":"address"},{"name":"payee","type":"address","internalType":"address"},{"name":"status","type":"uint8","internalType":"enum Escrow.DepositStatus"},{"name":"createdAt","type":"uint256","internalType":"uint256"}]}],"stateMutability":"view"},{"type":"function","name":"nextDepositId","inputs":[],"outputs":[{"name":"","type":"uint256","internalType":"uint256"}],"stateMutability":"view"},{"type":"function","name":"refund","inputs":[{"name":"depositId_","type":"uint256","internalType":"uint256"},{"name":"caller_","type":"address","internalType":"address"}],"outputs":[],"stateMutability":"nonpayable"},{"type":"function","name":"release","inputs":[{"name":"depositId_","type":"uint256","internalType":"uint256"},{"name":"caller_","type":"address","internalType":"address"}],"outputs":[],"stateMutability":"nonpayable"},{"type":"event","name":"DepositCreated","inputs":[{"name":"depositId","type":"uint256","indexed":true,"internalType":"uint256"},{"name":"token","type":"address","indexed":true,"internalType":"address"},{"name":"amount","type":"uint256","indexed":false,"internalType":"uint256"},{"name":"agreementId","type":"uint256","indexed":true,"internalType":"uint256"}],"anonymous":false},{"type":"event","name":"DepositFunded","inputs":[{"name":"depositId","type":"uint256","indexed":true,"internalType":"uint256"},{"name":"token","type":"address","indexed":true,"internalType":"address"},{"name":"amount","type":"uint256","indexed":false,"internalType":"uint256"}],"anonymous":false},{"type":"event","name":"DepositRefunded","inputs":[{"name":"depositId","type":"uint256","indexed":true,"internalType":"uint256"},{"name":"payer","type":"address","indexed":true,"internalType":"address"},{"name":"amount","type":"uint256","indexed":false,"internalType":"uint256"}],"anonymous":false},{"type":"event","name":"DepositReleased","inputs":[{"name":"depositId","type":"uint256","indexed":true,"internalType":"uint256"},{"name":"payee","type":"address","indexed":true,"internalType":"address"},{"name":"amount","type":"uint256","indexed":false,"internalType":"uint256"}],"anonymous":false},{"type":"error","name":"DepositNotFound","inputs":[]},{"type":"error","name":"InvalidAddress","inputs":[]},{"type":"error","name":"InvalidAmount","inputs":[]},{"type":"error","name":"InvalidState","inputs":[]},{"type":"error","name":"SafeERC20FailedOperation","inputs":[{"name":"token","type":"address","internalType":"address"}]},{"type":"error","name":"Unauthorized","inputs":[]}],"bytecode":{"object":"0x608060405234602257600e609b565b60146026565b610fba6100ad8239610fba90f35b602c565b60405190565b5f80fd5b90565b90565b90565b60486044604c926030565b6036565b6033565b90565b5f1b90565b90605e5f1991604f565b9181191691161790565b60776073607b926033565b6036565b6033565b90565b90565b906091608d6097926068565b607e565b82546054565b9055565b60aa60a560016039565b5f6081565b56fe60806040526004361015610013575b6103f3565b61001d5f3561006c565b80637ad226dc146100675780638070a4bd146100625780638124fea61461005d5780638b6099db1461005857639f9fb9680361000e576103be565b610261565b6101e7565b6101b2565b610112565b60e01c90565b60405190565b5f80fd5b5f80fd5b90565b61008c81610080565b0361009357565b5f80fd5b905035906100a482610083565b565b60018060a01b031690565b6100ba906100a6565b90565b6100c6816100b1565b036100cd57565b5f80fd5b905035906100de826100bd565b565b919060408382031261010857806100fc610105925f8601610097565b936020016100d1565b90565b61007c565b5f0190565b346101415761012b6101253660046100e0565b9061052f565b610133610072565b8061013d8161010d565b0390f35b610078565b5f91031261015057565b61007c565b1c90565b90565b61016c9060086101719302610155565b610159565b90565b9061017f915461015c565b90565b61018d5f5f90610174565b90565b61019990610080565b9052565b91906101b0905f60208501940190610190565b565b346101e2576101c2366004610146565b6101de6101cd610182565b6101d5610072565b9182918261019d565b0390f35b610078565b34610216576102006101fa3660046100e0565b90610661565b610208610072565b806102128161010d565b0390f35b610078565b60808183031261025c57610231825f83016100d1565b926102596102428460208501610097565b936102508160408601610097565b936060016100d1565b90565b61007c565b346102935761027d61027436600461021b565b92919091610933565b610285610072565b8061028f8161010d565b0390f35b610078565b906020828203126102b1576102ae915f01610097565b90565b61007c565b6102bf90610080565b9052565b6102cc906100b1565b9052565b634e487b7160e01b5f52602160045260245ffd5b600511156102ee57565b6102d0565b906102fd826102e4565b565b610308906102f3565b90565b610314906102ff565b9052565b9060e0806103a6936103305f8201515f8601906102b6565b610342602082015160208601906102c3565b610354604082015160408601906102b6565b610366606082015160608601906102b6565b610378608082015160808601906102c3565b61038a60a082015160a08601906102c3565b61039c60c082015160c086019061030b565b01519101906102b6565b565b91906103bc905f6101008501940190610318565b565b346103ee576103ea6103d96103d4366004610298565b610d44565b6103e1610072565b918291826103a8565b0390f35b610078565b5f80fd5b5f1c90565b60018060a01b031690565b610413610418916103f7565b6103fc565b90565b6104259054610407565b90565b60a01c90565b60ff1690565b61044061044591610428565b61042e565b90565b6104529054610434565b90565b60a01b90565b9061046a60ff60a01b91610455565b9181191691161790565b61047d906102f3565b90565b90565b9061049861049361049f92610474565b610480565b825461045b565b9055565b90565b6104ba6104b56104bf926100a6565b6104a3565b6100a6565b90565b6104cb906104a6565b90565b6104d7906104c2565b90565b6104e66104eb916103f7565b610159565b90565b6104f890546104da565b90565b61050f61050a61051492610080565b6104a3565b610080565b90565b610520906104a6565b90565b61052c90610517565b90565b61053881610d8a565b9161055761055161054b6004860161041b565b926100b1565b916100b1565b036106465761056860058301610448565b61057b61057560016102f3565b916102f3565b0361062a5761058e600360058401610483565b6105c36105a56105a06001850161041b565b6104ce565b6105b16004850161041b565b6105bd600286016104ee565b91610e0b565b906105dc60026105d56004840161041b565b92016104ee565b9161062561061361060d7f69187e59ebb7ab44cba5434886e4e6cde1412568f3483279dc99de772cb25405936104fb565b93610523565b9361061c610072565b9182918261019d565b0390a3565b5f63baf3f0f760e01b8152806106426004820161010d565b0390fd5b5f6282b42960e81b81528061065d6004820161010d565b0390fd5b61066a81610d8a565b9161068961068361067d6005860161041b565b926100b1565b916100b1565b036107785761069a60058301610448565b6106ad6106a760016102f3565b916102f3565b0361075c576106c0600260058401610483565b6106f56106d76106d26001850161041b565b6104ce565b6106e36005850161041b565b6106ef600286016104ee565b91610e0b565b9061070e60026107076005840161041b565b92016104ee565b9161075761074561073f7f27fd7b405d3b1cef830760908e4041d6c33a3e8fee51f248c99462d0d5550885936104fb565b93610523565b9361074e610072565b9182918261019d565b0390a3565b5f63baf3f0f760e01b8152806107746004820161010d565b0390fd5b5f6282b42960e81b81528061078f6004820161010d565b0390fd5b90565b6107aa6107a56107af92610793565b6104a3565b6100a6565b90565b6107bb90610796565b90565b6107d26107cd6107d792610793565b6104a3565b610080565b90565b90565b6107f16107ec6107f6926107da565b6104a3565b610080565b90565b634e487b7160e01b5f52601160045260245ffd5b61081c61082291939293610080565b92610080565b820180921161082d57565b6107f9565b5f1b90565b906108435f1991610832565b9181191691161790565b90565b9061086561086061086c926104fb565b61084d565b8254610837565b9055565b61087990610517565b90565b90610886906104fb565b5f5260205260405f2090565b90565b906108a660018060a01b0391610832565b9181191691161790565b90565b906108c86108c36108cf92610523565b6108b0565b8254610895565b9055565b906108dd906104fb565b5f5260205260405f2090565b906108f560ff91610832565b9181191691161790565b151590565b61090d906108ff565b90565b90565b9061092861092361092f92610904565b610910565b82546108e9565b9055565b9290918361095161094b6109465f6107b2565b6100b1565b916100b1565b148015610b34575b610b18578261097061096a5f6107be565b91610080565b14610afc57610a3d6109815f6104ee565b926109a66109a061099260016107dd565b61099b5f6104ee565b61080d565b5f610850565b6109c46109b2876104ce565b336109bc30610870565b908892610e52565b610a256109db6109d66001879061087c565b610892565b916109e8865f8501610850565b6109f588600185016108b3565b610a028760028501610850565b610a0f8560038501610850565b610a1c33600485016108b3565b600583016108b3565b610a33600160058301610483565b6006429101610850565b610a536001610a4e600285906108d3565b610913565b8184849291610aa9610a97610a91610a8b7fdec20cd19688d34ddd5a2bb409045e13b3cfc97cdb8d80d2fc5ef2a6f18e848c946104fb565b94610523565b946104fb565b94610aa0610072565b9182918261019d565b0390a4919091610af7610ae5610adf7fdfaa8c912b5509c72ecaf1be942e001eb4a21e6f8f1fd3676d006d6d9f8e6084936104fb565b93610523565b93610aee610072565b9182918261019d565b0390a3565b5f63162908e360e11b815280610b146004820161010d565b0390fd5b5f63e6c4247b60e01b815280610b306004820161010d565b0390fd5b5081610b50610b4a610b455f6107b2565b6100b1565b916100b1565b14610959565b601f801991011690565b634e487b7160e01b5f52604160045260245ffd5b90610b7e90610b56565b810190811067ffffffffffffffff821117610b9857604052565b610b60565b90610bb0610ba9610072565b9283610b74565b565b610bbd610100610b9d565b90565b5f90565b5f90565b5f90565b610bd4610bb2565b9060208080808080808089610be7610bc0565b815201610bf2610bc4565b815201610bfd610bc0565b815201610c08610bc0565b815201610c13610bc4565b815201610c1e610bc4565b815201610c29610bc8565b815201610c34610bc0565b81525050565b610c42610bcc565b90565b90610c4f90610080565b9052565b90610c5d906100b1565b9052565b90610c6b906102f3565b9052565b90610d36610d2d6006610c80610bb2565b94610c97610c8f5f83016104ee565b5f8801610c45565b610caf610ca66001830161041b565b60208801610c53565b610cc7610cbe600283016104ee565b60408801610c45565b610cdf610cd6600383016104ee565b60608801610c45565b610cf7610cee6004830161041b565b60808801610c53565b610d0f610d066005830161041b565b60a08801610c53565b610d27610d1e60058301610448565b60c08801610c61565b016104ee565b60e08401610c45565b565b610d4190610c6f565b90565b610d5b610d6091610d53610c3a565b50600161087c565b610d38565b90565b60ff1690565b610d75610d7a916103f7565b610d63565b90565b610d879054610d69565b90565b610da7610da1610d9c600284906108d3565b610d7d565b156108ff565b610dc157610db9610dbe91600161087c565b610892565b90565b5f63411321ed60e01b815280610dd96004820161010d565b0390fd5b610de690610517565b90565b610df2906100b1565b9052565b9190610e09905f60208501940190610de9565b565b91610e2491610e1e918491600192610ea1565b156108ff565b610e2b5750565b610e37610e4e91610ddd565b5f918291635274afe760e01b835260048301610df6565b0390fd5b9290610e6f92610e69928592919091600193610f0b565b156108ff565b610e765750565b610e82610e9991610ddd565b5f918291635274afe760e01b835260048301610df6565b0390fd5b5f90565b9091939293610eae610e9d565b5063a9059cbb60e01b92604051935f525f1960601c1660045260245260205f60448180855af19360015f5114851615610ee9575b5050604052565b8492941516610f02575f903b113d151616915f80610ee2565b833d5f823e3d90fd5b91949394929092610f1a610e9d565b506323b872dd60e01b93604051945f525f1960601c166004525f1960601c1660245260445260205f60648180855af19360015f5114851615610f62575b50506040525f606052565b8492941516610f7b575f903b113d151616915f80610f57565b833d5f823e3d90fdfea26469706673582212204ce9202ba712ddc0060529dcbcbc7459e06c46684bc29605ed65ee117dc43c8064736f6c63430008210033","linkReferences":{}},"methodIdentifiers":{"deposit(address,uint256,uint256,address)":"8b6099db","getDeposit(uint256)":"9f9fb968","nextDepositId()":"8070a4bd","refund(uint256,address)":"7ad226dc","release(uint256,address)":"8124fea6"},"id":29}