{"abi":[{"type":"constructor","inputs":[],"stateMutability":"nonpayable"},{"type":"function","name":"cancelListing","inputs":[{"name":"listingId_","type":"uint256","internalType":"uint256"},{"name":"caller_","type":"address","internalType":"address"}],"outputs":[],"stateMutability":"nonpayable"},{"type":"function","name":"createListing","inputs":[{"name":"seller_","type":"address","internalType":"address"},{"name":"playerId_","type":"uint256","internalType":"uint256"},{"name":"clubId_","type":"uint256","internalType":"uint256"},{"name":"price_","type":"uint256","internalType":"uint256"},{"name":"metadataURI_","type":"string","internalType":"string"}],"outputs":[],"stateMutability":"nonpayable"},{"type":"function","name":"getListing","inputs":[{"name":"listingId_","type":"uint256","internalType":"uint256"}],"outputs":[{"name":"","type":"tuple","internalType":"struct TransferMarketplace.Listing","components":[{"name":"id","type":"uint256","internalType":"uint256"},{"name":"seller","type":"address","internalType":"address"},{"name":"playerId","type":"uint256","internalType":"uint256"},{"name":"clubId","type":"uint256","internalType":"uint256"},{"name":"price","type":"uint256","internalType":"uint256"},{"name":"metadataURI","type":"string","internalType":"string"},{"name":"status","type":"uint8","internalType":"enum TransferMarketplace.ListingStatus"},{"name":"createdAt","type":"uint256","internalType":"uint256"}]}],"stateMutability":"view"},{"type":"function","name":"getOffer","inputs":[{"name":"listingId_","type":"uint256","internalType":"uint256"},{"name":"buyer_","type":"address","internalType":"address"}],"outputs":[{"name":"","type":"tuple","internalType":"struct TransferMarketplace.Offer","components":[{"name":"listingId","type":"uint256","internalType":"uint256"},{"name":"buyer","type":"address","internalType":"address"},{"name":"amount","type":"uint256","internalType":"uint256"},{"name":"status","type":"uint8","internalType":"enum TransferMarketplace.OfferStatus"},{"name":"createdAt","type":"uint256","internalType":"uint256"}]}],"stateMutability":"view"},{"type":"function","name":"makeOffer","inputs":[{"name":"listingId_","type":"uint256","internalType":"uint256"},{"name":"buyer_","type":"address","internalType":"address"},{"name":"amount_","type":"uint256","internalType":"uint256"}],"outputs":[],"stateMutability":"nonpayable"},{"type":"function","name":"nextListingId","inputs":[],"outputs":[{"name":"","type":"uint256","internalType":"uint256"}],"stateMutability":"view"},{"type":"function","name":"rejectOffer","inputs":[{"name":"listingId_","type":"uint256","internalType":"uint256"},{"name":"buyer_","type":"address","internalType":"address"},{"name":"caller_","type":"address","internalType":"address"}],"outputs":[],"stateMutability":"nonpayable"},{"type":"event","name":"ListingCancelled","inputs":[{"name":"listingId","type":"uint256","indexed":true,"internalType":"uint256"},{"name":"seller","type":"address","indexed":true,"internalType":"address"}],"anonymous":false},{"type":"event","name":"ListingCreated","inputs":[{"name":"listingId","type":"uint256","indexed":true,"internalType":"uint256"},{"name":"seller","type":"address","indexed":true,"internalType":"address"},{"name":"playerId","type":"uint256","indexed":true,"internalType":"uint256"},{"name":"price","type":"uint256","indexed":false,"internalType":"uint256"}],"anonymous":false},{"type":"event","name":"OfferMade","inputs":[{"name":"listingId","type":"uint256","indexed":true,"internalType":"uint256"},{"name":"buyer","type":"address","indexed":true,"internalType":"address"},{"name":"amount","type":"uint256","indexed":false,"internalType":"uint256"}],"anonymous":false},{"type":"event","name":"OfferRejected","inputs":[{"name":"listingId","type":"uint256","indexed":true,"internalType":"uint256"},{"name":"buyer","type":"address","indexed":true,"internalType":"address"}],"anonymous":false},{"type":"error","name":"InvalidAddress","inputs":[]},{"type":"error","name":"InvalidMetadataURI","inputs":[]},{"type":"error","name":"InvalidPrice","inputs":[]},{"type":"error","name":"ListingNotFound","inputs":[]},{"type":"error","name":"OfferNotFound","inputs":[]},{"type":"error","name":"Unauthorized","inputs":[]}],"bytecode":{"object":"0x608060405234602257600e609b565b60146026565b6117026100ad823961170290f35b602c565b60405190565b5f80fd5b90565b90565b90565b60486044604c926030565b6036565b6033565b90565b5f1b90565b90605e5f1991604f565b9181191691161790565b60776073607b926033565b6036565b6033565b90565b90565b906091608d6097926068565b607e565b82546054565b9055565b60aa60a560016039565b5f6081565b56fe60806040526004361015610013575b61066f565b61001d5f3561008c565b8063107a274a146100875780633d7bf4f0146100825780634d38bb391461007d57806360101d3a146100785780637613d59914610073578063aaccf1ec1461006e5763b9520ce40361000e57610639565b610561565b6104c1565b610453565b6103ec565b6102fd565b610266565b60e01c90565b60405190565b5f80fd5b5f80fd5b5f80fd5b90565b6100b0816100a4565b036100b757565b5f80fd5b905035906100c8826100a7565b565b906020828203126100e3576100e0915f016100bb565b90565b61009c565b6100f1906100a4565b9052565b60018060a01b031690565b610109906100f5565b90565b61011590610100565b9052565b5190565b60209181520190565b90825f9392825e0152565b601f801991011690565b61015a6101636020936101689361015181610119565b9384809361011d565b95869101610126565b610131565b0190565b634e487b7160e01b5f52602160045260245ffd5b6004111561018a57565b61016c565b9061019982610180565b565b6101a49061018f565b90565b6101b09061019b565b9052565b9061024b9060e08061022e61010084016101d45f8801515f8701906100e8565b6101e66020880151602087019061010c565b6101f8604088015160408701906100e8565b61020a606088015160608701906100e8565b61021c608088015160808701906100e8565b60a087015185820360a087015261013b565b9461024160c082015160c08601906101a7565b01519101906100e8565b90565b6102639160208201915f8184039101526101b4565b90565b346102965761029261028161027c3660046100ca565b610a0f565b610289610092565b9182918261024e565b0390f35b610098565b6102a481610100565b036102ab57565b5f80fd5b905035906102bc8261029b565b565b90916060828403126102f3576102f06102d9845f85016100bb565b936102e781602086016102af565b936040016100bb565b90565b61009c565b5f0190565b3461032c576103166103103660046102be565b91610c62565b61031e610092565b80610328816102f8565b0390f35b610098565b5f80fd5b5f80fd5b5f80fd5b909182601f830112156103775781359167ffffffffffffffff831161037257602001926001830284011161036d57565b610339565b610335565b610331565b91909160a0818403126103e757610395835f83016102af565b926103a381602084016100bb565b926103b182604085016100bb565b926103bf83606083016100bb565b92608082013567ffffffffffffffff81116103e2576103de920161033d565b9091565b6100a0565b61009c565b346104215761040b6103ff36600461037c565b94939093929192611180565b610413610092565b8061041d816102f8565b0390f35b610098565b919060408382031261044e578061044261044b925f86016100bb565b936020016102af565b90565b61009c565b346104825761046c610466366004610426565b9061136e565b610474610092565b8061047e816102f8565b0390f35b610098565b90916060828403126104bc576104b96104a2845f85016100bb565b936104b081602086016102af565b936040016102af565b90565b61009c565b346104f0576104da6104d4366004610487565b91611413565b6104e2610092565b806104ec816102f8565b0390f35b610098565b5f9103126104ff57565b61009c565b1c90565b90565b61051b9060086105209302610504565b610508565b90565b9061052e915461050b565b90565b61053c5f5f90610523565b90565b610548906100a4565b9052565b919061055f905f6020850194019061053f565b565b34610591576105713660046104f5565b61058d61057c610531565b610584610092565b9182918261054c565b0390f35b610098565b600411156105a057565b61016c565b906105af82610596565b565b6105ba906105a5565b90565b6105c6906105b1565b9052565b90608080610622936105e25f8201515f8601906100e8565b6105f46020820151602086019061010c565b610606604082015160408601906100e8565b610618606082015160608601906105bd565b01519101906100e8565b565b9190610637905f60a085019401906105ca565b565b3461066a5761066661065561064f366004610426565b9061162d565b61065d610092565b91829182610624565b0390f35b610098565b5f80fd5b634e487b7160e01b5f52604160045260245ffd5b9061069190610131565b810190811067ffffffffffffffff8211176106ab57604052565b610673565b906106c36106bc610092565b9283610687565b565b6106d06101006106b0565b90565b5f90565b5f90565b606090565b5f90565b6106ec6106c5565b90602080808080808080896106ff6106d3565b81520161070a6106d7565b8152016107156106d3565b8152016107206106d3565b81520161072b6106d3565b8152016107366106db565b8152016107416106e0565b81520161074c6106d3565b81525050565b61075a6106e4565b90565b90565b61077461076f610779926100a4565b61075d565b6100a4565b90565b9061078690610760565b5f5260205260405f2090565b5f1c90565b6107a36107a891610792565b610508565b90565b6107b59054610797565b90565b906107c2906100a4565b9052565b60018060a01b031690565b6107dd6107e291610792565b6107c6565b90565b6107ef90546107d1565b90565b906107fc90610100565b9052565b634e487b7160e01b5f52602260045260245ffd5b9060016002830492168015610834575b602083101461082f57565b610800565b91607f1691610824565b5f5260205f2090565b905f929180549061086161085a83610814565b809461011d565b916001811690815f146108b8575060011461087c575b505050565b610889919293945061083e565b915f925b8184106108a057505001905f8080610877565b6001816020929593955484860152019101929061088d565b92949550505060ff19168252151560200201905f8080610877565b906108dd91610847565b90565b906109006108f9926108f0610092565b938480926108d3565b0383610687565b565b52565b60ff1690565b61091761091c91610792565b610905565b90565b610929905461090b565b90565b906109369061018f565b9052565b90610a016109f8600761094b6106c5565b9461096261095a5f83016107ab565b5f88016107b8565b61097a610971600183016107e5565b602088016107f2565b610992610989600283016107ab565b604088016107b8565b6109aa6109a1600383016107ab565b606088016107b8565b6109c26109b9600483016107ab565b608088016107b8565b6109da6109d1600583016108e0565b60a08801610902565b6109f26109e96006830161091f565b60c0880161092c565b016107ab565b60e084016107b8565b565b610a0c9061093a565b90565b610a26610a2b91610a1e610752565b50600161077c565b610a03565b90565b90565b610a45610a40610a4a92610a2e565b61075d565b6100f5565b90565b610a5690610a31565b90565b610a6d610a68610a7292610a2e565b61075d565b6100a4565b90565b610a7f60a06106b0565b90565b90610a8c906105a5565b9052565b90610a9a90610760565b5f5260205260405f2090565b610aba610ab5610abf926100f5565b61075d565b6100f5565b90565b610acb90610aa6565b90565b610ad790610ac2565b90565b90610ae490610ace565b5f5260205260405f2090565b610afa90516100a4565b90565b5f1b90565b90610b0e5f1991610afd565b9181191691161790565b90565b90610b30610b2b610b3792610760565b610b18565b8254610b02565b9055565b610b459051610100565b90565b90610b5960018060a01b0391610afd565b9181191691161790565b90565b90610b7b610b76610b8292610ace565b610b63565b8254610b48565b9055565b610b9090516105a5565b90565b90610b9f60ff91610afd565b9181191691161790565b610bb2906105a5565b90565b90565b90610bcd610bc8610bd492610ba9565b610bb5565b8254610b93565b9055565b90610c4e60806004610c5494610bfb5f8201610bf55f8801610af0565b90610b1b565b610c1460018201610c0e60208801610b3b565b90610b66565b610c2d60028201610c2760408801610af0565b90610b1b565b610c4660038201610c4060608801610b86565b90610bb8565b019201610af0565b90610b1b565b565b90610c6091610bd8565b565b919091610c6e81611658565b5082610c8a610c84610c7f5f610a4d565b610100565b91610100565b14610d7b5781610ca2610c9c5f610a59565b916100a4565b14610d6057610d1081610cf585610cec86610ce35f91610cda4295610cd1610cc8610a75565b995f8b016107b8565b602089016107f2565b604087016107b8565b60608501610a82565b608083016107b8565b610d0b610d0460028590610a90565b8690610ada565b610c56565b919091610d5b610d49610d437fbdf1e76c2ba2a5c85b93bf78678a4a3b06d63b18422612dac8d7d5249ed4671493610760565b93610ace565b93610d52610092565b9182918261054c565b0390a3565b5f62bfc92160e01b815280610d77600482016102f8565b0390fd5b5f63e6c4247b60e01b815280610d93600482016102f8565b0390fd5b91565b5090565b90565b610db5610db0610dba92610d9e565b61075d565b6100a4565b90565b634e487b7160e01b5f52601160045260245ffd5b610de0610de6919392936100a4565b926100a4565b8201809211610df157565b610dbd565b610e016101006106b0565b90565b5f80fd5b67ffffffffffffffff8111610e2657610e22602091610131565b0190565b610673565b90825f939282370152565b90929192610e4b610e4682610e08565b6106b0565b93818552602085019082840111610e6757610e6592610e2b565b565b610e04565b610e77913691610e36565b90565b5190565b601f602091010490565b1b90565b91906008610ea7910291610ea15f1984610e88565b92610e88565b9181191691161790565b9190610ec7610ec2610ecf93610760565b610b18565b908354610e8c565b9055565b5f90565b610ee991610ee3610ed3565b91610eb1565b565b5f5b828110610ef957505050565b80610f085f6001938501610ed7565b01610eed565b9190601f8111610f1e575b505050565b818111610f2b575b610f19565b610f40610f3a610f5e9461083e565b91610e7e565b916020610f4c82610e7e565b9110610f66575b809101910390610eeb565b5f8080610f26565b505f610f53565b90610f7d905f1990600802610504565b191690565b81610f8c91610f6d565b906002021790565b90610f9e81610119565b9067ffffffffffffffff821161105e57610fc282610fbc8554610814565b85610f0e565b602090601f8311600114610ff657918091610fe5935f92610fea575b5050610f82565b90555b565b90915001515f80610fde565b601f198316916110058561083e565b925f5b8181106110465750916002939185600196941061102c575b50505002019055610fe8565b61103c910151601f841690610f6d565b90555f8080611020565b91936020600181928787015181550195019201611008565b610673565b9061106d91610f94565b565b611079905161018f565b90565b6110859061018f565b90565b90565b906110a061109b6110a79261107c565b611088565b8254610b93565b9055565b9061116c60e06007611172946110ce5f82016110c85f8801610af0565b90610b1b565b6110e7600182016110e160208801610b3b565b90610b66565b611100600282016110fa60408801610af0565b90610b1b565b6111196003820161111360608801610af0565b90610b1b565b6111326004820161112c60808801610af0565b90610b1b565b61114b6005820161114560a08801610e7a565b90611063565b6111646006820161115e60c0880161106f565b9061108b565b019201610af0565b90610b1b565b565b9061117e916110ab565b565b949092938561119f6111996111945f610a4d565b610100565b91610100565b1461135257846111b76111b15f610a59565b916100a4565b14611337576111d06111ca828490610d97565b90610d9a565b6111e26111dc5f610a59565b916100a4565b1461131b576111f05f6107ab565b9260016111fc90610da1565b6112055f6107ab565b9061120f91610dd1565b611219905f610b1b565b83928792869290889092915f944296611230610df6565b985f8a019061123e916107b8565b602089019061124c916107f2565b604088019061125a916107b8565b6060870190611268916107b8565b6080860190611276916107b8565b61127f91610e6c565b60a084019061128d91610902565b60c083019061129b9161092c565b60e08201906112a9916107b8565b6001826112b59161077c565b906112bf91611174565b929091927f12dc294b81a709d694b1337a350a12a00076c19a77a25aab67a5f0c07e0f164d906112ee90610760565b916112f890610ace565b9261130290610760565b9361130b610092565b61131681928261054c565b0390a4565b5f630eec403f60e41b815280611333600482016102f8565b0390fd5b5f62bfc92160e01b81528061134e600482016102f8565b0390fd5b5f63e6c4247b60e01b81528061136a600482016102f8565b0390fd5b61137781611658565b611383600182016107e5565b61139561138f85610100565b91610100565b036113f5576113a99060066001910161108b565b906113dd6113d77f8e25282255ab31897df2b0456bb993ac7f84d376861aefd84901d2d63a7428a293610760565b91610ace565b916113e6610092565b806113f0816102f8565b0390a3565b5f6282b42960e81b81528061140c600482016102f8565b0390fd5b90565b909161143b61143561142f600161142986611658565b016107e5565b92610100565b91610100565b036114f85761145e61145961145260028490610a90565b8490610ada565b611410565b61146a600482016107ab565b61147c6114765f610a59565b916100a4565b146114dc5761149090600360029101610bb8565b906114c46114be7f1b15bc319d6f29dd5bcf76cd2b89490ed2fe49f1a31fb6b8624b0029fd85c26593610760565b91610ace565b916114cd610092565b806114d7816102f8565b0390a3565b5f636df5846d60e01b8152806114f4600482016102f8565b0390fd5b5f6282b42960e81b81528061150f600482016102f8565b0390fd5b61151d60a06106b0565b90565b5f90565b61152c611513565b906020808080808661153c6106d3565b8152016115476106d7565b8152016115526106d3565b81520161155d611520565b8152016115686106d3565b81525050565b611576611524565b90565b60ff1690565b61158b61159091610792565b611579565b90565b61159d905461157f565b90565b9061161f61161660046115b1611513565b946115c86115c05f83016107ab565b5f88016107b8565b6115e06115d7600183016107e5565b602088016107f2565b6115f86115ef600283016107ab565b604088016107b8565b61161061160760038301611593565b60608801610a82565b016107ab565b608084016107b8565b565b61162a906115a0565b90565b6116529161164861164d9261164061156e565b506002610a90565b610ada565b611621565b90565b90565b8061166b6116655f610a59565b916100a4565b1480156116a9575b61168d5761168561168a91600161077c565b611655565b90565b5f630fc87cc760e31b8152806116a5600482016102f8565b0390fd5b50806116c56116bf6116ba5f6107ab565b6100a4565b916100a4565b101561167356fea2646970667358221220328c0957f70be3bf03ea120bbc41f3616649f0f1e3d94c1c4024de291f9803b364736f6c63430008210033","linkReferences":{}},"methodIdentifiers":{"cancelListing(uint256,address)":"60101d3a","createListing(address,uint256,uint256,uint256,string)":"4d38bb39","getListing(uint256)":"107a274a","getOffer(uint256,address)":"b9520ce4","makeOffer(uint256,address,uint256)":"3d7bf4f0","nextListingId()":"aaccf1ec","rejectOffer(uint256,address,address)":"7613d599"},"id":19}