{"abi":[{"type":"constructor","inputs":[],"stateMutability":"nonpayable"},{"type":"function","name":"cancelListing","inputs":[{"name":"listingId_","type":"uint256","internalType":"uint256"}],"outputs":[],"stateMutability":"nonpayable"},{"type":"function","name":"createListing","inputs":[{"name":"seller_","type":"address","internalType":"address"},{"name":"playerId_","type":"uint256","internalType":"uint256"},{"name":"clubId_","type":"uint256","internalType":"uint256"},{"name":"price_","type":"uint256","internalType":"uint256"},{"name":"metadataUri_","type":"string","internalType":"string"}],"outputs":[],"stateMutability":"nonpayable"},{"type":"function","name":"getListing","inputs":[{"name":"listingId_","type":"uint256","internalType":"uint256"}],"outputs":[{"name":"","type":"tuple","internalType":"struct TransferMarketplace.Listing","components":[{"name":"id","type":"uint256","internalType":"uint256"},{"name":"seller","type":"address","internalType":"address"},{"name":"playerId","type":"uint256","internalType":"uint256"},{"name":"clubId","type":"uint256","internalType":"uint256"},{"name":"price","type":"uint256","internalType":"uint256"},{"name":"metadataURI","type":"string","internalType":"string"},{"name":"status","type":"uint8","internalType":"enum TransferMarketplace.ListingStatus"},{"name":"createdAt","type":"uint256","internalType":"uint256"}]}],"stateMutability":"view"},{"type":"function","name":"getOffer","inputs":[{"name":"listingId_","type":"uint256","internalType":"uint256"},{"name":"buyer_","type":"address","internalType":"address"}],"outputs":[{"name":"","type":"tuple","internalType":"struct TransferMarketplace.Offer","components":[{"name":"listingId","type":"uint256","internalType":"uint256"},{"name":"buyer","type":"address","internalType":"address"},{"name":"amount","type":"uint256","internalType":"uint256"},{"name":"status","type":"uint8","internalType":"enum TransferMarketplace.OfferStatus"},{"name":"createdAt","type":"uint256","internalType":"uint256"}]}],"stateMutability":"view"},{"type":"function","name":"makeOffer","inputs":[{"name":"listingId_","type":"uint256","internalType":"uint256"},{"name":"buyer_","type":"address","internalType":"address"},{"name":"amount_","type":"uint256","internalType":"uint256"}],"outputs":[],"stateMutability":"nonpayable"},{"type":"function","name":"nextListingId","inputs":[],"outputs":[{"name":"","type":"uint256","internalType":"uint256"}],"stateMutability":"view"},{"type":"function","name":"rejectOffer","inputs":[{"name":"listingId_","type":"uint256","internalType":"uint256"},{"name":"buyer_","type":"address","internalType":"address"}],"outputs":[],"stateMutability":"nonpayable"},{"type":"event","name":"ListingCancelled","inputs":[{"name":"listingId","type":"uint256","indexed":true,"internalType":"uint256"},{"name":"seller","type":"address","indexed":true,"internalType":"address"}],"anonymous":false},{"type":"event","name":"ListingCreated","inputs":[{"name":"listingId","type":"uint256","indexed":true,"internalType":"uint256"},{"name":"seller","type":"address","indexed":true,"internalType":"address"},{"name":"playerId","type":"uint256","indexed":true,"internalType":"uint256"},{"name":"price","type":"uint256","indexed":false,"internalType":"uint256"}],"anonymous":false},{"type":"event","name":"OfferMade","inputs":[{"name":"listingId","type":"uint256","indexed":true,"internalType":"uint256"},{"name":"buyer","type":"address","indexed":true,"internalType":"address"},{"name":"amount","type":"uint256","indexed":false,"internalType":"uint256"}],"anonymous":false},{"type":"event","name":"OfferRejected","inputs":[{"name":"listingId","type":"uint256","indexed":true,"internalType":"uint256"},{"name":"buyer","type":"address","indexed":true,"internalType":"address"}],"anonymous":false},{"type":"error","name":"InvalidAddress","inputs":[]},{"type":"error","name":"InvalidMetadataURI","inputs":[]},{"type":"error","name":"InvalidPrice","inputs":[]},{"type":"error","name":"ListingNotFound","inputs":[]},{"type":"error","name":"OfferNotFound","inputs":[]},{"type":"error","name":"Unauthorized","inputs":[]}],"bytecode":{"object":"0x608060405234602257600e609b565b60146026565b61172b6100ad823961172b90f35b602c565b60405190565b5f80fd5b90565b90565b90565b60486044604c926030565b6036565b6033565b90565b5f1b90565b90605e5f1991604f565b9181191691161790565b60776073607b926033565b6036565b6033565b90565b90565b906091608d6097926068565b607e565b82546054565b9055565b60aa60a560016039565b5f6081565b56fe60806040526004361015610013575b610634565b61001d5f3561008c565b8063107a274a14610087578063305a67a8146100825780633d7bf4f01461007d5780634d38bb3914610078578063aaccf1ec14610073578063b9520ce41461006e5763db9371c20361000e57610600565b6105ca565b6104c5565b61041f565b610330565b6102a0565b610266565b60e01c90565b60405190565b5f80fd5b5f80fd5b5f80fd5b90565b6100b0816100a4565b036100b757565b5f80fd5b905035906100c8826100a7565b565b906020828203126100e3576100e0915f016100bb565b90565b61009c565b6100f1906100a4565b9052565b60018060a01b031690565b610109906100f5565b90565b61011590610100565b9052565b5190565b60209181520190565b90825f9392825e0152565b601f801991011690565b61015a6101636020936101689361015181610119565b9384809361011d565b95869101610126565b610131565b0190565b634e487b7160e01b5f52602160045260245ffd5b6004111561018a57565b61016c565b9061019982610180565b565b6101a49061018f565b90565b6101b09061019b565b9052565b9061024b9060e08061022e61010084016101d45f8801515f8701906100e8565b6101e66020880151602087019061010c565b6101f8604088015160408701906100e8565b61020a606088015160608701906100e8565b61021c608088015160808701906100e8565b60a087015185820360a087015261013b565b9461024160c082015160c08601906101a7565b01519101906100e8565b90565b6102639160208201915f8184039101526101b4565b90565b346102965761029261028161027c3660046100ca565b6109d4565b610289610092565b9182918261024e565b0390f35b610098565b5f0190565b346102ce576102b86102b33660046100ca565b610a71565b6102c0610092565b806102ca8161029b565b0390f35b610098565b6102dc81610100565b036102e357565b5f80fd5b905035906102f4826102d3565b565b909160608284031261032b57610328610311845f85016100bb565b9361031f81602086016102e7565b936040016100bb565b90565b61009c565b3461035f576103496103433660046102f6565b91610cf8565b610351610092565b8061035b8161029b565b0390f35b610098565b5f80fd5b5f80fd5b5f80fd5b909182601f830112156103aa5781359167ffffffffffffffff83116103a55760200192600183028401116103a057565b61036c565b610368565b610364565b91909160a08184031261041a576103c8835f83016102e7565b926103d681602084016100bb565b926103e482604085016100bb565b926103f283606083016100bb565b92608082013567ffffffffffffffff8111610415576104119201610370565b9091565b6100a0565b61009c565b346104545761043e6104323660046103af565b9493909392919261121a565b610446610092565b806104508161029b565b0390f35b610098565b5f91031261046357565b61009c565b1c90565b90565b61047f9060086104849302610468565b61046c565b90565b90610492915461046f565b90565b6104a05f5f90610487565b90565b6104ac906100a4565b9052565b91906104c3905f602085019401906104a3565b565b346104f5576104d5366004610459565b6104f16104e0610495565b6104e8610092565b918291826104b0565b0390f35b610098565b9190604083820312610522578061051661051f925f86016100bb565b936020016102e7565b90565b61009c565b6004111561053157565b61016c565b9061054082610527565b565b61054b90610536565b90565b61055790610542565b9052565b906080806105b3936105735f8201515f8601906100e8565b6105856020820151602086019061010c565b610597604082015160408601906100e8565b6105a96060820151606086019061054e565b01519101906100e8565b565b91906105c8905f60a0850194019061055b565b565b346105fb576105f76105e66105e03660046104fa565b90611555565b6105ee610092565b918291826105b5565b0390f35b610098565b3461062f576106196106133660046104fa565b90611580565b610621610092565b8061062b8161029b565b0390f35b610098565b5f80fd5b634e487b7160e01b5f52604160045260245ffd5b9061065690610131565b810190811067ffffffffffffffff82111761067057604052565b610638565b90610688610681610092565b928361064c565b565b610695610100610675565b90565b5f90565b5f90565b606090565b5f90565b6106b161068a565b90602080808080808080896106c4610698565b8152016106cf61069c565b8152016106da610698565b8152016106e5610698565b8152016106f0610698565b8152016106fb6106a0565b8152016107066106a5565b815201610711610698565b81525050565b61071f6106a9565b90565b90565b61073961073461073e926100a4565b610722565b6100a4565b90565b9061074b90610725565b5f5260205260405f2090565b5f1c90565b61076861076d91610757565b61046c565b90565b61077a905461075c565b90565b90610787906100a4565b9052565b60018060a01b031690565b6107a26107a791610757565b61078b565b90565b6107b49054610796565b90565b906107c190610100565b9052565b634e487b7160e01b5f52602260045260245ffd5b90600160028304921680156107f9575b60208310146107f457565b6107c5565b91607f16916107e9565b5f5260205f2090565b905f929180549061082661081f836107d9565b809461011d565b916001811690815f1461087d5750600114610841575b505050565b61084e9192939450610803565b915f925b81841061086557505001905f808061083c565b60018160209295939554848601520191019290610852565b92949550505060ff19168252151560200201905f808061083c565b906108a29161080c565b90565b906108c56108be926108b5610092565b93848092610898565b038361064c565b565b52565b60ff1690565b6108dc6108e191610757565b6108ca565b90565b6108ee90546108d0565b90565b906108fb9061018f565b9052565b906109c66109bd600761091061068a565b9461092761091f5f8301610770565b5f880161077d565b61093f610936600183016107aa565b602088016107b7565b61095761094e60028301610770565b6040880161077d565b61096f61096660038301610770565b6060880161077d565b61098761097e60048301610770565b6080880161077d565b61099f610996600583016108a5565b60a088016108c7565b6109b76109ae600683016108e4565b60c088016108f1565b01610770565b60e0840161077d565b565b6109d1906108ff565b90565b6109eb6109f0916109e3610717565b506001610741565b6109c8565b90565b5f1b90565b90610a0460ff916109f3565b9181191691161790565b610a179061018f565b90565b90565b90610a32610a2d610a3992610a0e565b610a1a565b82546109f8565b9055565b610a51610a4c610a56926100f5565b610722565b6100f5565b90565b610a6290610a3d565b90565b610a6e90610a59565b90565b610a7a81611681565b610a86600182016107aa565b610a98610a9233610100565b91610100565b03610af857610aac90600660019101610a1d565b33610ae0610ada7f8e25282255ab31897df2b0456bb993ac7f84d376861aefd84901d2d63a7428a293610725565b91610a65565b91610ae9610092565b80610af38161029b565b0390a3565b5f6282b42960e81b815280610b0f6004820161029b565b0390fd5b90565b610b2a610b25610b2f92610b13565b610722565b6100f5565b90565b610b3b90610b16565b90565b610b52610b4d610b5792610b13565b610722565b6100a4565b90565b610b6460a0610675565b90565b90610b7190610536565b9052565b90610b7f90610725565b5f5260205260405f2090565b90610b9590610a65565b5f5260205260405f2090565b610bab90516100a4565b90565b90610bba5f19916109f3565b9181191691161790565b90565b90610bdc610bd7610be392610725565b610bc4565b8254610bae565b9055565b610bf19051610100565b90565b90610c0560018060a01b03916109f3565b9181191691161790565b90565b90610c27610c22610c2e92610a65565b610c0f565b8254610bf4565b9055565b610c3c9051610536565b90565b610c4890610536565b90565b90565b90610c63610c5e610c6a92610c3f565b610c4b565b82546109f8565b9055565b90610ce460806004610cea94610c915f8201610c8b5f8801610ba1565b90610bc7565b610caa60018201610ca460208801610be7565b90610c12565b610cc360028201610cbd60408801610ba1565b90610bc7565b610cdc60038201610cd660608801610c32565b90610c4e565b019201610ba1565b90610bc7565b565b90610cf691610c6e565b565b919091610d0481611681565b5082610d20610d1a610d155f610b32565b610100565b91610100565b14610e445782610d38610d3233610100565b91610100565b03610e295781610d50610d4a5f610b3e565b916100a4565b14610e0e57610dbe81610da385610d9a86610d915f91610d884295610d7f610d76610b5a565b995f8b0161077d565b602089016107b7565b6040870161077d565b60608501610b67565b6080830161077d565b610db9610db260028590610b75565b8690610b8b565b610cec565b919091610e09610df7610df17fbdf1e76c2ba2a5c85b93bf78678a4a3b06d63b18422612dac8d7d5249ed4671493610725565b93610a65565b93610e00610092565b918291826104b0565b0390a3565b5f62bfc92160e01b815280610e256004820161029b565b0390fd5b5f6282b42960e81b815280610e406004820161029b565b0390fd5b5f63e6c4247b60e01b815280610e5c6004820161029b565b0390fd5b91565b5090565b90565b610e7e610e79610e8392610e67565b610722565b6100a4565b90565b634e487b7160e01b5f52601160045260245ffd5b610ea9610eaf919392936100a4565b926100a4565b8201809211610eba57565b610e86565b610eca610100610675565b90565b5f80fd5b67ffffffffffffffff8111610eef57610eeb602091610131565b0190565b610638565b90825f939282370152565b90929192610f14610f0f82610ed1565b610675565b93818552602085019082840111610f3057610f2e92610ef4565b565b610ecd565b610f40913691610eff565b90565b5190565b601f602091010490565b1b90565b91906008610f70910291610f6a5f1984610f51565b92610f51565b9181191691161790565b9190610f90610f8b610f9893610725565b610bc4565b908354610f55565b9055565b5f90565b610fb291610fac610f9c565b91610f7a565b565b5f5b828110610fc257505050565b80610fd15f6001938501610fa0565b01610fb6565b9190601f8111610fe7575b505050565b818111610ff4575b610fe2565b61100961100361102794610803565b91610f47565b91602061101582610f47565b911061102f575b809101910390610fb4565b5f8080610fef565b505f61101c565b90611046905f1990600802610468565b191690565b8161105591611036565b906002021790565b9061106781610119565b9067ffffffffffffffff82116111275761108b8261108585546107d9565b85610fd7565b602090601f83116001146110bf579180916110ae935f926110b3575b505061104b565b90555b565b90915001515f806110a7565b601f198316916110ce85610803565b925f5b81811061110f575091600293918560019694106110f5575b505050020190556110b1565b611105910151601f841690611036565b90555f80806110e9565b919360206001819287870151815501950192016110d1565b610638565b906111369161105d565b565b611142905161018f565b90565b9061120660e0600761120c946111685f82016111625f8801610ba1565b90610bc7565b6111816001820161117b60208801610be7565b90610c12565b61119a6002820161119460408801610ba1565b90610bc7565b6111b3600382016111ad60608801610ba1565b90610bc7565b6111cc600482016111c660808801610ba1565b90610bc7565b6111e5600582016111df60a08801610f43565b9061112c565b6111fe600682016111f860c08801611138565b90610a1d565b019201610ba1565b90610bc7565b565b9061121891611145565b565b949092938561123961123361122e5f610b32565b610100565b91610100565b1461141f578561125161124b33610100565b91610100565b0361140457846112696112635f610b3e565b916100a4565b146113e95761128261127c828490610e60565b90610e63565b61129461128e5f610b3e565b916100a4565b146113cd576112a25f610770565b9260016112ae90610e6a565b6112b75f610770565b906112c191610e9a565b6112cb905f610bc7565b83928792869290889092915f9442966112e2610ebf565b985f8a01906112f09161077d565b60208901906112fe916107b7565b604088019061130c9161077d565b606087019061131a9161077d565b60808601906113289161077d565b61133191610f35565b60a084019061133f916108c7565b60c083019061134d916108f1565b60e082019061135b9161077d565b60018261136791610741565b906113719161120e565b929091927f12dc294b81a709d694b1337a350a12a00076c19a77a25aab67a5f0c07e0f164d906113a090610725565b916113aa90610a65565b926113b490610725565b936113bd610092565b6113c88192826104b0565b0390a4565b5f630eec403f60e41b8152806113e56004820161029b565b0390fd5b5f62bfc92160e01b8152806114006004820161029b565b0390fd5b5f6282b42960e81b81528061141b6004820161029b565b0390fd5b5f63e6c4247b60e01b8152806114376004820161029b565b0390fd5b61144560a0610675565b90565b5f90565b61145461143b565b9060208080808086611464610698565b81520161146f61069c565b81520161147a610698565b815201611485611448565b815201611490610698565b81525050565b61149e61144c565b90565b60ff1690565b6114b36114b891610757565b6114a1565b90565b6114c590546114a7565b90565b9061154761153e60046114d961143b565b946114f06114e85f8301610770565b5f880161077d565b6115086114ff600183016107aa565b602088016107b7565b61152061151760028301610770565b6040880161077d565b61153861152f600383016114bb565b60608801610b67565b01610770565b6080840161077d565b565b611552906114c8565b90565b61157a9161157061157592611568611496565b506002610b75565b610b8b565b611549565b90565b90565b611594600161158e83611681565b016107aa565b6115a66115a033610100565b91610100565b03611663576115c96115c46115bd60028490610b75565b8490610b8b565b61157d565b6115d560048201610770565b6115e76115e15f610b3e565b916100a4565b14611647576115fb90600360029101610c4e565b9061162f6116297f1b15bc319d6f29dd5bcf76cd2b89490ed2fe49f1a31fb6b8624b0029fd85c26593610725565b91610a65565b91611638610092565b806116428161029b565b0390a3565b5f636df5846d60e01b81528061165f6004820161029b565b0390fd5b5f6282b42960e81b81528061167a6004820161029b565b0390fd5b90565b8061169461168e5f610b3e565b916100a4565b1480156116d2575b6116b6576116ae6116b3916001610741565b61167e565b90565b5f630fc87cc760e31b8152806116ce6004820161029b565b0390fd5b50806116ee6116e86116e35f610770565b6100a4565b916100a4565b101561169c56fea26469706673582212205e9e4b5034bb1cbb44dc47bf2fc7d63b2473d6c4a20380f9b8d383b7cb2cfb6a64736f6c63430008210033","linkReferences":{}},"methodIdentifiers":{"cancelListing(uint256)":"305a67a8","createListing(address,uint256,uint256,uint256,string)":"4d38bb39","getListing(uint256)":"107a274a","getOffer(uint256,address)":"b9520ce4","makeOffer(uint256,address,uint256)":"3d7bf4f0","nextListingId()":"aaccf1ec","rejectOffer(uint256,address)":"db9371c2"},"id":40}