{"abi":[{"type":"constructor","inputs":[],"stateMutability":"nonpayable"},{"type":"function","name":"depositToken","inputs":[{"name":"token_","type":"address","internalType":"address"},{"name":"amount_","type":"uint256","internalType":"uint256"}],"outputs":[],"stateMutability":"nonpayable"},{"type":"function","name":"owner","inputs":[],"outputs":[{"name":"","type":"address","internalType":"address"}],"stateMutability":"view"},{"type":"function","name":"renounceOwnership","inputs":[],"outputs":[],"stateMutability":"nonpayable"},{"type":"function","name":"tokenBalance","inputs":[{"name":"","type":"address","internalType":"address"}],"outputs":[{"name":"","type":"uint256","internalType":"uint256"}],"stateMutability":"view"},{"type":"function","name":"transferOwnership","inputs":[{"name":"newOwner","type":"address","internalType":"address"}],"outputs":[],"stateMutability":"nonpayable"},{"type":"function","name":"withdrawToken","inputs":[{"name":"token_","type":"address","internalType":"address"},{"name":"to_","type":"address","internalType":"address"},{"name":"amount_","type":"uint256","internalType":"uint256"}],"outputs":[],"stateMutability":"nonpayable"},{"type":"event","name":"OwnershipTransferred","inputs":[{"name":"previousOwner","type":"address","indexed":true,"internalType":"address"},{"name":"newOwner","type":"address","indexed":true,"internalType":"address"}],"anonymous":false},{"type":"event","name":"TokenDeposited","inputs":[{"name":"token","type":"address","indexed":true,"internalType":"address"},{"name":"amount","type":"uint256","indexed":false,"internalType":"uint256"}],"anonymous":false},{"type":"event","name":"TokenWithdrawn","inputs":[{"name":"token","type":"address","indexed":true,"internalType":"address"},{"name":"to","type":"address","indexed":true,"internalType":"address"},{"name":"amount","type":"uint256","indexed":false,"internalType":"uint256"}],"anonymous":false},{"type":"error","name":"InsufficientBalance","inputs":[]},{"type":"error","name":"InvalidAddress","inputs":[]},{"type":"error","name":"InvalidAmount","inputs":[]},{"type":"error","name":"OwnableInvalidOwner","inputs":[{"name":"owner","type":"address","internalType":"address"}]},{"type":"error","name":"OwnableUnauthorizedAccount","inputs":[{"name":"account","type":"address","internalType":"address"}]},{"type":"error","name":"SafeERC20FailedOperation","inputs":[{"name":"token","type":"address","internalType":"address"}]}],"bytecode":{"object":"0x60806040523461002757610011610036565b61001961002c565b610b0c6102078239610b0c90f35b610032565b60405190565b5f80fd5b61003f336100a8565b565b90565b60018060a01b031690565b90565b61006661006161006b92610041565b61004f565b610044565b90565b61007790610052565b90565b61008390610044565b90565b61008f9061007a565b9052565b91906100a6905f60208501940190610086565b565b806100c36100bd6100b85f61006e565b61007a565b9161007a565b146100d3576100d1906101a7565b565b6100f66100df5f61006e565b5f918291631e4fbdf760e01b835260048301610093565b0390fd5b5f1c90565b60018060a01b031690565b61011661011b916100fa565b6100ff565b90565b610128905461010a565b90565b5f1b90565b9061014160018060a01b039161012b565b9181191691161790565b61015f61015a61016492610044565b61004f565b610044565b90565b6101709061014b565b90565b61017c90610167565b90565b90565b9061019761019261019e92610173565b61017f565b8254610130565b9055565b5f0190565b6101b05f61011e565b6101ba825f610182565b906101ee6101e87f8be0079c531659141344cd1fd0a4f28419497f9722a3daafe3b4186f6b6457e093610173565b91610173565b916101f761002c565b80610201816101a2565b0390a356fe60806040526004361015610013575b610398565b61001d5f3561007c565b806301e3366714610077578063338b5dea14610072578063715018a61461006d5780638da5cb5b14610068578063eedc966a146100635763f2fde38b0361000e57610365565b610330565b610228565b6101d3565b610190565b61012f565b60e01c90565b60405190565b5f80fd5b5f80fd5b60018060a01b031690565b6100a490610090565b90565b6100b08161009b565b036100b757565b5f80fd5b905035906100c8826100a7565b565b90565b6100d6816100ca565b036100dd57565b5f80fd5b905035906100ee826100cd565b565b90916060828403126101255761012261010b845f85016100bb565b9361011981602086016100bb565b936040016100e1565b90565b61008c565b5f0190565b3461015e576101486101423660046100f0565b91610638565b610150610082565b8061015a8161012a565b0390f35b610088565b919060408382031261018b578061017f610188925f86016100bb565b936020016100e1565b90565b61008c565b346101bf576101a96101a3366004610163565b90610676565b6101b1610082565b806101bb8161012a565b0390f35b610088565b5f9103126101ce57565b61008c565b34610201576101e33660046101c4565b6101eb610795565b6101f3610082565b806101fd8161012a565b0390f35b610088565b61020f9061009b565b9052565b9190610226905f60208501940190610206565b565b34610258576102383660046101c4565b6102546102436107cf565b61024b610082565b91829182610213565b0390f35b610088565b9060208282031261027657610273915f016100bb565b90565b61008c565b90565b61029261028d61029792610090565b61027b565b610090565b90565b6102a39061027e565b90565b6102af9061029a565b90565b906102bc906102a6565b5f5260205260405f2090565b1c90565b90565b6102df9060086102e493026102c8565b6102cc565b90565b906102f291546102cf565b90565b61030b906103066001915f926102b2565b6102e7565b90565b610317906100ca565b9052565b919061032e905f6020850194019061030e565b565b346103605761035c61034b61034636600461025d565b6102f5565b610353610082565b9182918261031b565b0390f35b610088565b346103935761037d61037836600461025d565b610849565b610385610082565b8061038f8161012a565b0390f35b610088565b5f80fd5b906103af92916103aa610854565b6104c9565b565b90565b6103c86103c36103cd926103b1565b61027b565b610090565b90565b6103d9906103b4565b90565b6103f06103eb6103f5926103b1565b61027b565b6100ca565b90565b5f1c90565b61040961040e916103f8565b6102cc565b90565b61041b90546103fd565b90565b634e487b7160e01b5f52601160045260245ffd5b610441610447919392936100ca565b926100ca565b820391821161045257565b61041e565b5f1b90565b906104685f1991610457565b9181191691161790565b61048661048161048b926100ca565b61027b565b6100ca565b90565b90565b906104a66104a16104ad92610472565b61048e565b825461045c565b9055565b6104ba9061027e565b90565b6104c6906104b1565b90565b919091806104e76104e16104dc5f6103d0565b61009b565b9161009b565b148015610616575b6105fa57816105066105005f6103dc565b916100ca565b146105de5761051f61051a600183906102b2565b610411565b61053161052b846100ca565b916100ca565b106105c25761055e82610558610549600185906102b2565b9161055383610411565b610432565b90610491565b61057261056a826104bd565b8484916108b3565b9190916105bd6105ab6105a57f8210728e7c071f615b840ee026032693858fbcd5e5359e67e438c890f59e5620936102a6565b936102a6565b936105b4610082565b9182918261031b565b0390a3565b5f631e9acf1760e31b8152806105da6004820161012a565b0390fd5b5f63162908e360e11b8152806105f66004820161012a565b0390fd5b5f63e6c4247b60e01b8152806106126004820161012a565b0390fd5b508261063261062c6106275f6103d0565b61009b565b9161009b565b146104ef565b90610643929161039c565b565b61064e9061029a565b90565b610660610666919392936100ca565b926100ca565b820180921161067157565b61041e565b8061069161068b6106865f6103d0565b61009b565b9161009b565b1461075457816106a96106a35f6103dc565b916100ca565b14610738576106cc6106ba826104bd565b336106c430610645565b9085926108fa565b6106f4826106ee6106df600185906102b2565b916106e983610411565b610651565b90610491565b6107336107217fbc7c8a4d8049a3f99a02f2a20640c206a2e4d3f2fa54fd20da9f01fda3620cda926102a6565b9261072a610082565b9182918261031b565b0390a2565b5f63162908e360e11b8152806107506004820161012a565b0390fd5b5f63e6c4247b60e01b81528061076c6004820161012a565b0390fd5b610778610854565b610780610782565b565b61079361078e5f6103d0565b610983565b565b61079d610770565b565b5f90565b60018060a01b031690565b6107ba6107bf916103f8565b6107a3565b90565b6107cc90546107ae565b90565b6107d761079f565b506107e15f6107c2565b90565b6107f5906107f0610854565b6107f7565b565b8061081261080c6108075f6103d0565b61009b565b9161009b565b146108225761082090610983565b565b61084561082e5f6103d0565b5f918291631e4fbdf760e01b835260048301610213565b0390fd5b610852906107e4565b565b61085c6107cf565b61087561086f61086a6109e2565b61009b565b9161009b565b0361087c57565b61089e6108876109e2565b5f91829163118cdaa760e01b835260048301610213565b0390fd5b151590565b6108b09061029a565b90565b916108cc916108c69184916001926109f3565b156108a2565b6108d35750565b6108df6108f6916108a7565b5f918291635274afe760e01b835260048301610213565b0390fd5b929061091792610911928592919091600193610a5d565b156108a2565b61091e5750565b61092a610941916108a7565b5f918291635274afe760e01b835260048301610213565b0390fd5b9061095660018060a01b0391610457565b9181191691161790565b90565b9061097861097361097f926102a6565b610960565b8254610945565b9055565b61098c5f6107c2565b610996825f610963565b906109ca6109c47f8be0079c531659141344cd1fd0a4f28419497f9722a3daafe3b4186f6b6457e0936102a6565b916102a6565b916109d3610082565b806109dd8161012a565b0390a3565b6109ea61079f565b503390565b5f90565b9091939293610a006109ef565b5063a9059cbb60e01b92604051935f525f1960601c1660045260245260205f60448180855af19360015f5114851615610a3b575b5050604052565b8492941516610a54575f903b113d151616915f80610a34565b833d5f823e3d90fd5b91949394929092610a6c6109ef565b506323b872dd60e01b93604051945f525f1960601c166004525f1960601c1660245260445260205f60648180855af19360015f5114851615610ab4575b50506040525f606052565b8492941516610acd575f903b113d151616915f80610aa9565b833d5f823e3d90fdfea26469706673582212208e27890819533c1065e861dae17175058c03d004dbf78c131896f626e1b8726b64736f6c63430008210033","linkReferences":{}},"methodIdentifiers":{"depositToken(address,uint256)":"338b5dea","owner()":"8da5cb5b","renounceOwnership()":"715018a6","tokenBalance(address)":"eedc966a","transferOwnership(address)":"f2fde38b","withdrawToken(address,address,uint256)":"01e33667"},"id":30}