{"abi":[{"type":"constructor","inputs":[],"stateMutability":"nonpayable"},{"type":"function","name":"getClub","inputs":[{"name":"owner_","type":"address","internalType":"address"}],"outputs":[{"name":"","type":"tuple","internalType":"struct ClubRegistry.Club","components":[{"name":"id","type":"uint256","internalType":"uint256"},{"name":"owner","type":"address","internalType":"address"},{"name":"name","type":"string","internalType":"string"},{"name":"metadataURI","type":"string","internalType":"string"},{"name":"country","type":"string","internalType":"string"},{"name":"city","type":"string","internalType":"string"},{"name":"league","type":"string","internalType":"string"},{"name":"logoURI","type":"string","internalType":"string"},{"name":"website","type":"string","internalType":"string"},{"name":"status","type":"uint8","internalType":"enum ClubRegistry.ClubStatus"},{"name":"registeredAt","type":"uint256","internalType":"uint256"}]}],"stateMutability":"view"},{"type":"function","name":"getClubOwner","inputs":[{"name":"clubId","type":"uint256","internalType":"uint256"}],"outputs":[{"name":"","type":"address","internalType":"address"}],"stateMutability":"view"},{"type":"function","name":"nextClubId","inputs":[],"outputs":[{"name":"","type":"uint256","internalType":"uint256"}],"stateMutability":"view"},{"type":"function","name":"owner","inputs":[],"outputs":[{"name":"","type":"address","internalType":"address"}],"stateMutability":"view"},{"type":"function","name":"registerClub","inputs":[{"name":"owner_","type":"address","internalType":"address"},{"name":"name_","type":"string","internalType":"string"},{"name":"metadataUri_","type":"string","internalType":"string"},{"name":"country_","type":"string","internalType":"string"},{"name":"city_","type":"string","internalType":"string"},{"name":"league_","type":"string","internalType":"string"},{"name":"logoUri_","type":"string","internalType":"string"},{"name":"website_","type":"string","internalType":"string"}],"outputs":[],"stateMutability":"nonpayable"},{"type":"function","name":"renounceOwnership","inputs":[],"outputs":[],"stateMutability":"nonpayable"},{"type":"function","name":"setClubStatus","inputs":[{"name":"owner_","type":"address","internalType":"address"},{"name":"status_","type":"uint8","internalType":"enum ClubRegistry.ClubStatus"}],"outputs":[],"stateMutability":"nonpayable"},{"type":"function","name":"transferOwnership","inputs":[{"name":"newOwner","type":"address","internalType":"address"}],"outputs":[],"stateMutability":"nonpayable"},{"type":"function","name":"updateClubMetadata","inputs":[{"name":"owner_","type":"address","internalType":"address"},{"name":"metadataUri_","type":"string","internalType":"string"}],"outputs":[],"stateMutability":"nonpayable"},{"type":"event","name":"ClubMetadataUpdated","inputs":[{"name":"owner","type":"address","indexed":true,"internalType":"address"},{"name":"clubId","type":"uint256","indexed":true,"internalType":"uint256"},{"name":"metadataURI","type":"string","indexed":false,"internalType":"string"}],"anonymous":false},{"type":"event","name":"ClubRegistered","inputs":[{"name":"owner","type":"address","indexed":true,"internalType":"address"},{"name":"clubId","type":"uint256","indexed":true,"internalType":"uint256"},{"name":"name","type":"string","indexed":false,"internalType":"string"}],"anonymous":false},{"type":"event","name":"ClubStatusUpdated","inputs":[{"name":"owner","type":"address","indexed":true,"internalType":"address"},{"name":"clubId","type":"uint256","indexed":true,"internalType":"uint256"},{"name":"status","type":"uint8","indexed":false,"internalType":"enum ClubRegistry.ClubStatus"}],"anonymous":false},{"type":"event","name":"OwnershipTransferred","inputs":[{"name":"previousOwner","type":"address","indexed":true,"internalType":"address"},{"name":"newOwner","type":"address","indexed":true,"internalType":"address"}],"anonymous":false},{"type":"error","name":"ClubAlreadyRegistered","inputs":[]},{"type":"error","name":"ClubNotFound","inputs":[]},{"type":"error","name":"InvalidAddress","inputs":[]},{"type":"error","name":"InvalidMetadataURI","inputs":[]},{"type":"error","name":"OwnableInvalidOwner","inputs":[{"name":"owner","type":"address","internalType":"address"}]},{"type":"error","name":"OwnableUnauthorizedAccount","inputs":[{"name":"account","type":"address","internalType":"address"}]},{"type":"error","name":"Unauthorized","inputs":[]}],"bytecode":{"object":"0x608060405234610027576100116100b5565b61001961002c565b611681610292823961168190f35b610032565b60405190565b5f80fd5b90565b90565b90565b61005361004e61005892610036565b61003c565b610039565b90565b5f1b90565b9061006c5f199161005b565b9181191691161790565b61008a61008561008f92610039565b61003c565b610039565b90565b90565b906100aa6100a56100b192610076565b610092565b8254610060565b9055565b6100be33610138565b6100d26100cb600161003f565b6001610095565b565b90565b60018060a01b031690565b6100f66100f16100fb926100d4565b61003c565b6100d7565b90565b610107906100e2565b90565b610113906100d7565b90565b61011f9061010a565b9052565b9190610136905f60208501940190610116565b565b8061015361014d6101485f6100fe565b61010a565b9161010a565b146101635761016190610232565b565b61018661016f5f6100fe565b5f918291631e4fbdf760e01b835260048301610123565b0390fd5b5f1c90565b60018060a01b031690565b6101a66101ab9161018a565b61018f565b90565b6101b8905461019a565b90565b906101cc60018060a01b039161005b565b9181191691161790565b6101ea6101e56101ef926100d7565b61003c565b6100d7565b90565b6101fb906101d6565b90565b610207906101f2565b90565b90565b9061022261021d610229926101fe565b61020a565b82546101bb565b9055565b5f0190565b61023b5f6101ae565b610245825f61020d565b906102796102737f8be0079c531659141344cd1fd0a4f28419497f9722a3daafe3b4186f6b6457e0936101fe565b916101fe565b9161028261002c565b8061028c8161022d565b0390a356fe6101006040526004361015610014575b6107a5565b61001e5f356100ad565b806313668ba1146100a857806348754f46146100a3578063588f3e411461009e578063715018a6146100995780638da5cb5b14610094578063b7ba4c371461008f578063da5a78981461008a578063f2fde38b146100855763fd904adf0361000f5761075f565b6105f5565b6105c0565b61052e565b610468565b610435565b6103f1565b6101e8565b61014e565b60e01c90565b60405190565b5f80fd5b5f80fd5b5f80fd5b60018060a01b031690565b6100d9906100c5565b90565b6100e5816100d0565b036100ec57565b5f80fd5b905035906100fd826100dc565b565b6004111561010957565b5f80fd5b9050359061011a826100ff565b565b91906040838203126101445780610138610141925f86016100f0565b9360200161010d565b90565b6100bd565b5f0190565b3461017d5761016761016136600461011c565b90610914565b61016f6100b3565b8061017981610149565b0390f35b6100b9565b90565b61018e81610182565b0361019557565b5f80fd5b905035906101a682610185565b565b906020828203126101c1576101be915f01610199565b90565b6100bd565b6101cf906100d0565b9052565b91906101e6905f602085019401906101c6565b565b34610218576102146102036101fe3660046101a8565b610966565b61020b6100b3565b918291826101d3565b0390f35b6100b9565b9060208282031261023657610233915f016100f0565b90565b6100bd565b61024490610182565b9052565b610251906100d0565b9052565b5190565b60209181520190565b90825f9392825e0152565b601f801991011690565b61029661029f6020936102a49361028d81610255565b93848093610259565b95869101610262565b61026d565b0190565b634e487b7160e01b5f52602160045260245ffd5b600411156102c657565b6102a8565b906102d5826102bc565b565b6102e0906102cb565b90565b6102ec906102d7565b9052565b9080610140806103b76103a361039161037f61036d61035b6103496103d69a61033760208e61032b6101608501945f8084015191019061023b565b015160208d0190610248565b60408d01518b820360408d0152610277565b60608c01518a820360608c0152610277565b60808b015189820360808b0152610277565b60a08a015188820360a08a0152610277565b60c089015187820360c0890152610277565b60e088015186820360e0880152610277565b610100870151858203610100870152610277565b946103cc6101208201516101208601906102e3565b015191019061023b565b90565b6103ee9160208201915f8184039101526102f0565b90565b346104215761041d61040c61040736600461021d565b610d1f565b6104146100b3565b918291826103d9565b0390f35b6100b9565b5f91031261043057565b6100bd565b3461046357610445366004610426565b61044d610d8e565b6104556100b3565b8061045f81610149565b0390f35b6100b9565b3461049857610478366004610426565b610494610483610d98565b61048b6100b3565b918291826101d3565b0390f35b6100b9565b5f80fd5b5f80fd5b5f80fd5b909182601f830112156104e35781359167ffffffffffffffff83116104de5760200192600183028401116104d957565b6104a5565b6104a1565b61049d565b91909160408184031261052957610501835f83016100f0565b92602082013567ffffffffffffffff81116105245761052092016104a9565b9091565b6100c1565b6100bd565b3461055d576105476105413660046104e8565b9161101a565b61054f6100b3565b8061055981610149565b0390f35b6100b9565b1c90565b90565b61057990600861057e9302610562565b610566565b90565b9061058c9154610569565b90565b61059b60015f90610581565b90565b6105a790610182565b9052565b91906105be905f6020850194019061059e565b565b346105f0576105d0366004610426565b6105ec6105db61058f565b6105e36100b3565b918291826105ab565b0390f35b6100b9565b346106235761060d61060836600461021d565b61116d565b6106156100b3565b8061061f81610149565b0390f35b6100b9565b9190916101008184031261075a57610642835f83016100f0565b92602082013567ffffffffffffffff811161075557816106639184016104a9565b929093604082013567ffffffffffffffff811161075057836106869184016104a9565b929093606082013567ffffffffffffffff811161074b57816106a99184016104a9565b929093608082013567ffffffffffffffff811161074657836106cc9184016104a9565b92909360a082013567ffffffffffffffff811161074157816106ef9184016104a9565b92909360c082013567ffffffffffffffff811161073c57836107129184016104a9565b92909360e082013567ffffffffffffffff81116107375761073392016104a9565b9091565b6100c1565b6100c1565b6100c1565b6100c1565b6100c1565b6100c1565b6100c1565b6100bd565b346107a05761078a610772366004610628565b9d9c909c9b919b9a929a9993999894989795976112b8565b6107926100b3565b8061079c81610149565b0390f35b6100b9565b5f80fd5b906107bb916107b661153e565b6108a2565b565b5f1b90565b906107ce60ff916107bd565b9181191691161790565b6107e1906102cb565b90565b90565b906107fc6107f7610803926107d8565b6107e4565b82546107c2565b9055565b5f1c90565b61081861081d91610807565b610566565b90565b61082a905461080c565b90565b90565b61084461083f610849926100c5565b61082d565b6100c5565b90565b61085590610830565b90565b6108619061084c565b90565b61087861087361087d92610182565b61082d565b610182565b90565b610889906102d7565b9052565b91906108a0905f60208501940190610880565b565b906108c55f6108b08461158c565b936108be84600987016107e7565b9301610820565b909161090f6108fd6108f77f8d3569d375861b90d74892155c1cac43979a690b25361d6e177dce4b7fe0bb4593610858565b93610864565b936109066100b3565b9182918261088d565b0390a3565b9061091e916107a9565b565b5f90565b9061092e90610864565b5f5260205260405f2090565b60018060a01b031690565b61095161095691610807565b61093a565b90565b6109639054610945565b90565b61097d61098291610975610920565b506003610924565b610959565b90565b634e487b7160e01b5f52604160045260245ffd5b906109a39061026d565b810190811067ffffffffffffffff8211176109bd57604052565b610985565b906109d56109ce6100b3565b9283610999565b565b6109e26101606109c2565b90565b5f90565b5f90565b606090565b5f90565b6109fe6109d7565b906020808080808080808080808c610a146109e5565b815201610a1f6109e9565b815201610a2a6109ed565b815201610a356109ed565b815201610a406109ed565b815201610a4b6109ed565b815201610a566109ed565b815201610a616109ed565b815201610a6c6109ed565b815201610a776109f2565b815201610a826109e5565b81525050565b610a906109f6565b90565b90610a9d90610858565b5f5260205260405f2090565b90610ab390610182565b9052565b90610ac1906100d0565b9052565b634e487b7160e01b5f52602260045260245ffd5b9060016002830492168015610af9575b6020831014610af457565b610ac5565b91607f1691610ae9565b5f5260205f2090565b905f9291805490610b26610b1f83610ad9565b8094610259565b916001811690815f14610b7d5750600114610b41575b505050565b610b4e9192939450610b03565b915f925b818410610b6557505001905f8080610b3c565b60018160209295939554848601520191019290610b52565b92949550505060ff19168252151560200201905f8080610b3c565b90610ba291610b0c565b90565b90610bc5610bbe92610bb56100b3565b93848092610b98565b0383610999565b565b52565b60ff1690565b610bdc610be191610807565b610bca565b90565b610bee9054610bd0565b90565b90610bfb906102cb565b9052565b90610d11610d07600a610c106109d7565b94610c27610c1f5f8301610820565b5f8801610aa9565b610c3f610c3660018301610959565b60208801610ab7565b610c57610c4e60028301610ba5565b60408801610bc7565b610c6f610c6660038301610ba5565b60608801610bc7565b610c87610c7e60048301610ba5565b60808801610bc7565b610c9f610c9660058301610ba5565b60a08801610bc7565b610cb7610cae60068301610ba5565b60c08801610bc7565b610ccf610cc660078301610ba5565b60e08801610bc7565b610ce8610cde60088301610ba5565b6101008801610bc7565b610d01610cf760098301610be4565b6101208801610bf1565b01610820565b6101408401610aa9565b565b610d1c90610bff565b90565b610d36610d3b91610d2e610a88565b506002610a93565b610d13565b90565b610d4661153e565b610d4e610d7b565b565b90565b610d67610d62610d6c92610d50565b61082d565b6100c5565b90565b610d7890610d53565b90565b610d8c610d875f610d6f565b6115df565b565b610d96610d3e565b565b610da0610920565b50610daa5f610959565b90565b91565b5090565b610dc8610dc3610dcd92610d50565b61082d565b610182565b90565b5090565b601f602091010490565b1b90565b91906008610dfd910291610df75f1984610dde565b92610dde565b9181191691161790565b90565b9190610e20610e1b610e2893610864565b610e07565b908354610de2565b9055565b5f90565b610e4291610e3c610e2c565b91610e0a565b565b5f5b828110610e5257505050565b80610e615f6001938501610e30565b01610e46565b9190601f8111610e77575b505050565b818111610e84575b610e72565b610e99610e93610eb794610b03565b91610dd4565b916020610ea582610dd4565b9110610ebf575b809101910390610e44565b5f8080610e7f565b505f610eac565b90610ed6905f1990600802610562565b191690565b81610ee591610ec6565b906002021790565b91610ef89082610dd0565b9067ffffffffffffffff8211610fb757610f1c82610f168554610ad9565b85610e67565b5f90601f8311600114610f4f57918091610f3e935f92610f43575b5050610edb565b90555b565b90915001355f80610f37565b601f19831691610f5e85610b03565b925f5b818110610f9f57509160029391856001969410610f85575b50505002019055610f41565b610f95910135601f841690610ec6565b90555f8080610f79565b91936020600181928787013581550195019201610f61565b610985565b90610fc79291610eed565b565b60209181520190565b90825f939282370152565b9190610ff781610ff081610ffc95610fc9565b8095610fd2565b61026d565b0190565b90916110179260208301925f818503910152610fdd565b90565b6110238161158c565b9080611037611031336100d0565b916100d0565b036110ed5761105061104a848690610dad565b90610db0565b61106261105c5f610db4565b91610182565b146110d1575f6110829161107b85879060038701610fbc565b9201610820565b91926110b76110b17fcda307b8f904719c8812cbe81db5ffaf870f2a7c5083a1c7ec98bff026fdfb6193610858565b93610864565b936110cc6110c36100b3565b92839283611000565b0390a3565b5f630eec403f60e41b8152806110e960048201610149565b0390fd5b5f6282b42960e81b81528061110460048201610149565b0390fd5b6111199061111461153e565b61111b565b565b8061113661113061112b5f610d6f565b6100d0565b916100d0565b1461114657611144906115df565b565b6111696111525f610d6f565b5f918291631e4fbdf760e01b8352600483016101d3565b0390fd5b61117690611108565b565b9061118290610858565b5f5260205260405f2090565b60ff1690565b6111a06111a591610807565b61118e565b90565b6111b29054611194565b90565b90565b6111cc6111c76111d1926111b5565b61082d565b610182565b90565b634e487b7160e01b5f52601160045260245ffd5b6111f76111fd91939293610182565b92610182565b820180921161120857565b6111d4565b906112195f19916107bd565b9181191691161790565b9061123861123361123f92610864565b610e07565b825461120d565b9055565b90565b9061125760018060a01b03916107bd565b9181191691161790565b90565b9061127961127461128092610858565b611261565b8254611246565b9055565b151590565b61129290611284565b90565b90565b906112ad6112a86112b492611289565b611295565b82546107c2565b9055565b9d9b989496919d9c9a97929c99959960a05260e05260a0516112ea6112e46112df5f610d6f565b6100d0565b916100d0565b146115225760a0516113046112fe336100d0565b916100d0565b036115075761131d6113178d8590610dad565b90610db0565b61132f6113295f610db4565b91610182565b146114eb5761134a611345600460a05190611178565b6111a8565b6114cf576113fb61141c99611411978f6114279f96611406976113e56113f0936113746001610820565b60c05261139d61139661138760016111b8565b6113916001610820565b6111e8565b6001611223565b6113b36113ae600260a05190610a93565b611243565b6080526113c660c0515f60805101611223565b6113d760a051600160805101611264565b60e051600260805101610fbc565b600360805101610fbc565b600460805101610fbc565b600560805101610fbc565b600660805101610fbc565b600760805101610fbc565b600860805101610fbc565b61143760016009608051016107e7565b61144642600a60805101611223565b61145f60a05161145a600360c05190610924565b611264565b6114776001611472600460a05190611178565b611298565b60a05160c0519060e051926114b56114af7f17ec837cadb088b5ef69c0e1896a339d46bba0b819ee9c725de0ef76f6c5000a93610858565b93610864565b936114ca6114c16100b3565b92839283611000565b0390a3565b5f6344cc954160e01b8152806114e760048201610149565b0390fd5b5f630eec403f60e41b81528061150360048201610149565b0390fd5b5f6282b42960e81b81528061151e60048201610149565b0390fd5b5f63e6c4247b60e01b81528061153a60048201610149565b0390fd5b611546610d98565b61155f61155961155461163e565b6100d0565b916100d0565b0361156657565b61158861157161163e565b5f91829163118cdaa760e01b8352600483016101d3565b0390fd5b6115a96115a361159e60048490611178565b6111a8565b15611284565b6115c3576115bb6115c0916002610a93565b611243565b90565b5f633179c29160e01b8152806115db60048201610149565b0390fd5b6115e85f610959565b6115f2825f611264565b906116266116207f8be0079c531659141344cd1fd0a4f28419497f9722a3daafe3b4186f6b6457e093610858565b91610858565b9161162f6100b3565b8061163981610149565b0390a3565b611646610920565b50339056fea2646970667358221220a9e12457392e33ebe5fc3e706692392736ab0d1fc84b7884c8553cb8f300a6f364736f6c63430008210033","linkReferences":{}},"methodIdentifiers":{"getClub(address)":"588f3e41","getClubOwner(uint256)":"48754f46","nextClubId()":"da5a7898","owner()":"8da5cb5b","registerClub(address,string,string,string,string,string,string,string)":"fd904adf","renounceOwnership()":"715018a6","setClubStatus(address,uint8)":"13668ba1","transferOwnership(address)":"f2fde38b","updateClubMetadata(address,string)":"b7ba4c37"},"id":41}