{"abi":[{"type":"constructor","inputs":[],"stateMutability":"nonpayable"},{"type":"function","name":"getClub","inputs":[{"name":"owner_","type":"address","internalType":"address"}],"outputs":[{"name":"","type":"tuple","internalType":"struct ClubRegistry.Club","components":[{"name":"id","type":"uint256","internalType":"uint256"},{"name":"owner","type":"address","internalType":"address"},{"name":"name","type":"string","internalType":"string"},{"name":"metadataURI","type":"string","internalType":"string"},{"name":"country","type":"string","internalType":"string"},{"name":"city","type":"string","internalType":"string"},{"name":"league","type":"string","internalType":"string"},{"name":"logoURI","type":"string","internalType":"string"},{"name":"website","type":"string","internalType":"string"},{"name":"status","type":"uint8","internalType":"enum ClubRegistry.ClubStatus"},{"name":"registeredAt","type":"uint256","internalType":"uint256"}]}],"stateMutability":"view"},{"type":"function","name":"getClubOwner","inputs":[{"name":"clubId","type":"uint256","internalType":"uint256"}],"outputs":[{"name":"","type":"address","internalType":"address"}],"stateMutability":"view"},{"type":"function","name":"nextClubId","inputs":[],"outputs":[{"name":"","type":"uint256","internalType":"uint256"}],"stateMutability":"view"},{"type":"function","name":"registerClub","inputs":[{"name":"owner_","type":"address","internalType":"address"},{"name":"name_","type":"string","internalType":"string"},{"name":"metadataURI_","type":"string","internalType":"string"},{"name":"country_","type":"string","internalType":"string"},{"name":"city_","type":"string","internalType":"string"},{"name":"league_","type":"string","internalType":"string"},{"name":"logoURI_","type":"string","internalType":"string"},{"name":"website_","type":"string","internalType":"string"}],"outputs":[],"stateMutability":"nonpayable"},{"type":"function","name":"setClubStatus","inputs":[{"name":"owner_","type":"address","internalType":"address"},{"name":"status_","type":"uint8","internalType":"enum ClubRegistry.ClubStatus"}],"outputs":[],"stateMutability":"nonpayable"},{"type":"function","name":"updateClubMetadata","inputs":[{"name":"owner_","type":"address","internalType":"address"},{"name":"metadataURI_","type":"string","internalType":"string"}],"outputs":[],"stateMutability":"nonpayable"},{"type":"event","name":"ClubMetadataUpdated","inputs":[{"name":"owner","type":"address","indexed":true,"internalType":"address"},{"name":"clubId","type":"uint256","indexed":true,"internalType":"uint256"},{"name":"metadataURI","type":"string","indexed":false,"internalType":"string"}],"anonymous":false},{"type":"event","name":"ClubRegistered","inputs":[{"name":"owner","type":"address","indexed":true,"internalType":"address"},{"name":"clubId","type":"uint256","indexed":true,"internalType":"uint256"},{"name":"name","type":"string","indexed":false,"internalType":"string"}],"anonymous":false},{"type":"event","name":"ClubStatusUpdated","inputs":[{"name":"owner","type":"address","indexed":true,"internalType":"address"},{"name":"clubId","type":"uint256","indexed":true,"internalType":"uint256"},{"name":"status","type":"uint8","indexed":false,"internalType":"enum ClubRegistry.ClubStatus"}],"anonymous":false},{"type":"error","name":"ClubAlreadyRegistered","inputs":[]},{"type":"error","name":"ClubNotFound","inputs":[]},{"type":"error","name":"InvalidAddress","inputs":[]},{"type":"error","name":"InvalidMetadataURI","inputs":[]}],"bytecode":{"object":"0x608060405234602257600e609b565b60146026565b6113bc6100ad82396113bc90f35b602c565b60405190565b5f80fd5b90565b90565b90565b60486044604c926030565b6036565b6033565b90565b5f1b90565b90605e5f1991604f565b9181191691161790565b60776073607b926033565b6036565b6033565b90565b90565b906091608d6097926068565b607e565b82546054565b9055565b60aa60a560016039565b5f6081565b56fe6101006040526004361015610014575b6106d9565b61001e5f3561007d565b806313668ba11461007857806348754f4614610073578063588f3e411461006e578063b7ba4c3714610069578063da5a7898146100645763fd904adf0361000f57610693565b610527565b610487565b6103c1565b6101b8565b61011e565b60e01c90565b60405190565b5f80fd5b5f80fd5b5f80fd5b60018060a01b031690565b6100a990610095565b90565b6100b5816100a0565b036100bc57565b5f80fd5b905035906100cd826100ac565b565b600411156100d957565b5f80fd5b905035906100ea826100cf565b565b91906040838203126101145780610108610111925f86016100c0565b936020016100dd565b90565b61008d565b5f0190565b3461014d576101376101313660046100ec565b906107c2565b61013f610083565b8061014981610119565b0390f35b610089565b90565b61015e81610152565b0361016557565b5f80fd5b9050359061017682610155565b565b906020828203126101915761018e915f01610169565b90565b61008d565b61019f906100a0565b9052565b91906101b6905f60208501940190610196565b565b346101e8576101e46101d36101ce366004610178565b61087a565b6101db610083565b918291826101a3565b0390f35b610089565b9060208282031261020657610203915f016100c0565b90565b61008d565b61021490610152565b9052565b610221906100a0565b9052565b5190565b60209181520190565b90825f9392825e0152565b601f801991011690565b61026661026f6020936102749361025d81610225565b93848093610229565b95869101610232565b61023d565b0190565b634e487b7160e01b5f52602160045260245ffd5b6004111561029657565b610278565b906102a58261028c565b565b6102b09061029b565b90565b6102bc906102a7565b9052565b90806101408061038761037361036161034f61033d61032b6103196103a69a61030760208e6102fb6101608501945f8084015191019061020b565b015160208d0190610218565b60408d01518b820360408d0152610247565b60608c01518a820360608c0152610247565b60808b015189820360808b0152610247565b60a08a015188820360a08a0152610247565b60c089015187820360c0890152610247565b60e088015186820360e0880152610247565b610100870151858203610100870152610247565b9461039c6101208201516101208601906102b3565b015191019061020b565b90565b6103be9160208201915f8184039101526102c0565b90565b346103f1576103ed6103dc6103d73660046101ed565b610c33565b6103e4610083565b918291826103a9565b0390f35b610089565b5f80fd5b5f80fd5b5f80fd5b909182601f8301121561043c5781359167ffffffffffffffff831161043757602001926001830284011161043257565b6103fe565b6103fa565b6103f6565b9190916040818403126104825761045a835f83016100c0565b92602082013567ffffffffffffffff811161047d576104799201610402565b9091565b610091565b61008d565b346104b6576104a061049a366004610441565b91610ec2565b6104a8610083565b806104b281610119565b0390f35b610089565b5f9103126104c557565b61008d565b1c90565b90565b6104e19060086104e693026104ca565b6104ce565b90565b906104f491546104d1565b90565b6105025f5f906104e9565b90565b61050e90610152565b9052565b9190610525905f60208501940190610505565b565b34610557576105373660046104bb565b6105536105426104f7565b61054a610083565b91829182610512565b0390f35b610089565b9190916101008184031261068e57610576835f83016100c0565b92602082013567ffffffffffffffff81116106895781610597918401610402565b929093604082013567ffffffffffffffff811161068457836105ba918401610402565b929093606082013567ffffffffffffffff811161067f57816105dd918401610402565b929093608082013567ffffffffffffffff811161067a5783610600918401610402565b92909360a082013567ffffffffffffffff81116106755781610623918401610402565b92909360c082013567ffffffffffffffff81116106705783610646918401610402565b92909360e082013567ffffffffffffffff811161066b576106679201610402565b9091565b610091565b610091565b610091565b610091565b610091565b610091565b610091565b61008d565b346106d4576106be6106a636600461055c565b9d9c909c9b919b9a929a9993999894989795976110e5565b6106c6610083565b806106d081610119565b0390f35b610089565b5f80fd5b5f1b90565b906106ee60ff916106dd565b9181191691161790565b6107019061029b565b90565b90565b9061071c610717610723926106f8565b610704565b82546106e2565b9055565b5f1c90565b61073861073d91610727565b6104ce565b90565b61074a905461072c565b90565b90565b61076461075f61076992610095565b61074d565b610095565b90565b61077590610750565b90565b6107819061076c565b90565b61079861079361079d92610152565b61074d565b610152565b90565b6107a9906102a7565b9052565b91906107c0905f602085019401906107a0565b565b906107e55f6107d084611333565b936107de8460098701610707565b9301610740565b909161082f61081d6108177f8d3569d375861b90d74892155c1cac43979a690b25361d6e177dce4b7fe0bb4593610778565b93610784565b93610826610083565b918291826107ad565b0390a3565b5f90565b9061084290610784565b5f5260205260405f2090565b60018060a01b031690565b61086561086a91610727565b61084e565b90565b6108779054610859565b90565b61089161089691610889610834565b506002610838565b61086d565b90565b634e487b7160e01b5f52604160045260245ffd5b906108b79061023d565b810190811067ffffffffffffffff8211176108d157604052565b610899565b906108e96108e2610083565b92836108ad565b565b6108f66101606108d6565b90565b5f90565b5f90565b606090565b5f90565b6109126108eb565b906020808080808080808080808c6109286108f9565b8152016109336108fd565b81520161093e610901565b815201610949610901565b815201610954610901565b81520161095f610901565b81520161096a610901565b815201610975610901565b815201610980610901565b81520161098b610906565b8152016109966108f9565b81525050565b6109a461090a565b90565b906109b190610778565b5f5260205260405f2090565b906109c790610152565b9052565b906109d5906100a0565b9052565b634e487b7160e01b5f52602260045260245ffd5b9060016002830492168015610a0d575b6020831014610a0857565b6109d9565b91607f16916109fd565b5f5260205f2090565b905f9291805490610a3a610a33836109ed565b8094610229565b916001811690815f14610a915750600114610a55575b505050565b610a629192939450610a17565b915f925b818410610a7957505001905f8080610a50565b60018160209295939554848601520191019290610a66565b92949550505060ff19168252151560200201905f8080610a50565b90610ab691610a20565b90565b90610ad9610ad292610ac9610083565b93848092610aac565b03836108ad565b565b52565b60ff1690565b610af0610af591610727565b610ade565b90565b610b029054610ae4565b90565b90610b0f9061029b565b9052565b90610c25610c1b600a610b246108eb565b94610b3b610b335f8301610740565b5f88016109bd565b610b53610b4a6001830161086d565b602088016109cb565b610b6b610b6260028301610ab9565b60408801610adb565b610b83610b7a60038301610ab9565b60608801610adb565b610b9b610b9260048301610ab9565b60808801610adb565b610bb3610baa60058301610ab9565b60a08801610adb565b610bcb610bc260068301610ab9565b60c08801610adb565b610be3610bda60078301610ab9565b60e08801610adb565b610bfc610bf260088301610ab9565b6101008801610adb565b610c15610c0b60098301610af8565b6101208801610b05565b01610740565b61014084016109bd565b565b610c3090610b13565b90565b610c4a610c4f91610c4261099c565b5060016109a7565b610c27565b90565b91565b5090565b90565b610c70610c6b610c7592610c59565b61074d565b610152565b90565b5090565b601f602091010490565b1b90565b91906008610ca5910291610c9f5f1984610c86565b92610c86565b9181191691161790565b90565b9190610cc8610cc3610cd093610784565b610caf565b908354610c8a565b9055565b5f90565b610cea91610ce4610cd4565b91610cb2565b565b5f5b828110610cfa57505050565b80610d095f6001938501610cd8565b01610cee565b9190601f8111610d1f575b505050565b818111610d2c575b610d1a565b610d41610d3b610d5f94610a17565b91610c7c565b916020610d4d82610c7c565b9110610d67575b809101910390610cec565b5f8080610d27565b505f610d54565b90610d7e905f19906008026104ca565b191690565b81610d8d91610d6e565b906002021790565b91610da09082610c78565b9067ffffffffffffffff8211610e5f57610dc482610dbe85546109ed565b85610d0f565b5f90601f8311600114610df757918091610de6935f92610deb575b5050610d83565b90555b565b90915001355f80610ddf565b601f19831691610e0685610a17565b925f5b818110610e4757509160029391856001969410610e2d575b50505002019055610de9565b610e3d910135601f841690610d6e565b90555f8080610e21565b91936020600181928787013581550195019201610e09565b610899565b90610e6f9291610d95565b565b60209181520190565b90825f939282370152565b9190610e9f81610e9881610ea495610e71565b8095610e7a565b61023d565b0190565b9091610ebf9260208301925f818503910152610e85565b90565b610ecb81611333565b90610ee0610eda848690610c52565b90610c55565b610ef2610eec5f610c5c565b91610152565b14610f61575f610f1291610f0b85879060038701610e64565b9201610740565b9192610f47610f417fcda307b8f904719c8812cbe81db5ffaf870f2a7c5083a1c7ec98bff026fdfb6193610778565b93610784565b93610f5c610f53610083565b92839283610ea8565b0390a3565b5f630eec403f60e41b815280610f7960048201610119565b0390fd5b610f91610f8c610f9692610c59565b61074d565b610095565b90565b610fa290610f7d565b90565b90610faf90610778565b5f5260205260405f2090565b60ff1690565b610fcd610fd291610727565b610fbb565b90565b610fdf9054610fc1565b90565b90565b610ff9610ff4610ffe92610fe2565b61074d565b610152565b90565b634e487b7160e01b5f52601160045260245ffd5b61102461102a91939293610152565b92610152565b820180921161103557565b611001565b906110465f19916106dd565b9181191691161790565b9061106561106061106c92610784565b610caf565b825461103a565b9055565b90565b9061108460018060a01b03916106dd565b9181191691161790565b90565b906110a66110a16110ad92610778565b61108e565b8254611073565b9055565b151590565b6110bf906110b1565b90565b90565b906110da6110d56110e1926110b6565b6110c2565b82546106e2565b9055565b9d9b989496919d9c9a97929c99959960a05260e05260a05161111761111161110c5f610f99565b6100a0565b916100a0565b146113175761113061112a8d8590610c52565b90610c55565b61114261113c5f610c5c565b91610152565b146112fb5761115d611158600360a05190610fa5565b610fd5565b6112df5761120b61122c99611221978f6112379f96611216976111f5611200936111865f610740565b60c0526111ad6111a76111996001610fe5565b6111a25f610740565b611015565b5f611050565b6111c36111be600160a051906109a7565b611070565b6080526111d660c0515f60805101611050565b6111e760a051600160805101611091565b60e051600260805101610e64565b600360805101610e64565b600460805101610e64565b600560805101610e64565b600660805101610e64565b600760805101610e64565b600860805101610e64565b6112476001600960805101610707565b61125642600a60805101611050565b61126f60a05161126a600260c05190610838565b611091565b6112876001611282600360a05190610fa5565b6110c5565b60a05160c0519060e051926112c56112bf7f17ec837cadb088b5ef69c0e1896a339d46bba0b819ee9c725de0ef76f6c5000a93610778565b93610784565b936112da6112d1610083565b92839283610ea8565b0390a3565b5f6344cc954160e01b8152806112f760048201610119565b0390fd5b5f630eec403f60e41b81528061131360048201610119565b0390fd5b5f63e6c4247b60e01b81528061132f60048201610119565b0390fd5b61135061134a61134560038490610fa5565b610fd5565b156110b1565b61136a576113626113679160016109a7565b611070565b90565b5f633179c29160e01b81528061138260048201610119565b0390fdfea2646970667358221220e1f1a641e17f527a381cca38c9c9fc4abe5c9bf0767d99d084336de4accf932364736f6c63430008210033","linkReferences":{}},"methodIdentifiers":{"getClub(address)":"588f3e41","getClubOwner(uint256)":"48754f46","nextClubId()":"da5a7898","registerClub(address,string,string,string,string,string,string,string)":"fd904adf","setClubStatus(address,uint8)":"13668ba1","updateClubMetadata(address,string)":"b7ba4c37"},"id":28}